:100000000C9434000C9451000C9451000C94510049
:100010000C9451000C9451000C9451000C9451001C
:100020000C9451000C9451000C9451000C94DC0081
:100030000C9451000C9451000C9451000C945100FC
:100040000C9451000C9451000C9451000C945100EC
:100050000C9451000C9451000C9451000C945100DC
:100060000C9451000C94510011241FBECFEFD8E026
:10007000DEBFCDBF11E0A0E0B1E0EEE9FAE002C0E2
:1000800005900D92AE33B107D9F721E0AEE3B1E0B0
:1000900001C01D92AF33B207E1F70E9429010C9411
:1000A0004D050C940000CF93C82F88B1807F9C2F02
:1000B00092959F70892B88B988B18F7D88B988B156
:1000C000806188B988B18F7E88B984E690E00E940B
:1000D0003C0288B1807FCF70C82BC8B988B18061DD
:1000E00088B988B18F7E88B982E090E00E942402AE
:1000F000CF9108958FEF87B98AE090E00E942402A3
:1001000082E00E94530088E20E9453008CE00E942B
:10011000530086E00E94530081E00E94530008953E
:10012000CF93DF93EC0123C098B1907F82958F70BD
:10013000892B88B988B1806288B988B1806188B913
:1001400088B18F7E88B988EC90E00E943C0298B11B
:100150008991907F8F70892B88B988B1806188B927
:1001600088B18F7E88B982E090E00E942402888165
:100170008111DACFDF91CF910895CF93DF93EA0118
:10018000811108C0603130F4862F8F7080680E9422
:10019000530009C0813039F4603128F4862F8F7004
:1001A000806C0E945300CE010E94900080E80E9463
:1001B0005300DF91CF9108951F920F920FB60F92C7
:1001C00011248F9381E080933E018F910F900FBE99
:1001D0000F901F9018950E940F02789408950F9326
:1001E0001F93CF93DF93CDB7DEB761970FB6F89427
:1001F000DEBF0FBECDBF182F8093070140E051E056
:1002000060E080E00E94BD001F921F9381E191E0B9
:100210009F938F931F9281E18F938E010F5F1F4FEA
:100220001F930F930E945502A80160E081E00E9495
:10023000BD000FB6F894DEBF0FBECDBF61960FB6FE
:10024000F894DEBF0FBECDBFDF91CF911F910F910C
:1002500008950E947A000E945F010E94EB004FE126
:1002600051E060E080E00E94BD004FE251E060E0BC
:1002700081E00E94BD0080ED97E00E942402D0E062
:100280000E94A301C82F882329F0D81719F00E94D3
:10029000EF00DC2F80913E01882361F010923E0137
:1002A0008FE00E94530084E690E00E9424028CE0DC
:1002B0000E94530082E390E00E942402E1CF84B1C7
:1002C000836084B98AB1806C8AB98AB1877C8AB923
:1002D0008BB188638BB90895CF93DF9300D0CDB7EE
:1002E000DEB71A82198205C089819A8101969A83A4
:1002F000898389819A81883E9340B0F30F900F9053
:10030000DF91CF9108951F93CF93DF93182FC0E013
:10031000D0E012C00E946C0129B181E090E0012E72
:1003200002C0880F991F0A94E2F78223D81302C0F3
:10033000CF5F01C0C0E0D82FC73061F78D2FDF91AC
:10034000CF911F910895CF9385B1836085B98BB10B
:10035000806C8BB985B18D7F85B985E00E94830162
:10036000882311F0C0E001C0C1E384E00E94830152
:10037000811101C0C2E383E00E948301811101C0A9
:10038000C3E385B1826085B985B18E7F85B985E08B
:100390000E948301811101C0C4E384E00E948301B3
:1003A000811101C0C5E383E00E948301811101C076
:1003B000C6E385B1816085B98BB18F778BB985E054
:1003C0000E948301811101C0C7E384E00E94830180
:1003D000811101C0C8E383E00E948301811101C043
:1003E000C9E38BB180688BB98BB18F7B8BB985E00A
:1003F0000E948301811101C0CAE284E00E9483014E
:10040000811101C0C0E383E00E948301811101C01A
:10041000C3E28BB180648BB98C2FCF910895109279
:1004200080008DE080938100EFE6F0E080818260C3
:100430008083109285001092840084E790E490936A
:100440008900809388000895AC0114BC85E085BDC7
:1004500010926E0081EF86BD20E030E008C0A99BBD
:10046000FECF91EF96BD92E095BB2F5F3F4F2417D3
:100470003507ACF315BC0895AC0114BC81E085BD13
:1004800010926E0085EF86BD20E030E009C0A99B88
:10049000FECF95EF96BD95B3926095BB2F5F3F4F12
:1004A00024173507A4F315BC0895AEE0B0E0EBE5E2
:1004B000F2E00C9424050D891E898F89988D26E021
:1004C0002C831A83098397FF02C080E090E801978C
:1004D0009E838D83AE01455E5F4F698D7A8DCE011F
:1004E00001960E9485024D815E8157FD0AC02F81D1
:1004F0003885421753070CF49A01F801E20FF31FF5
:1005000010822E96E4E00C944005ABE0B0E0EBE8FE
:10051000F2E00C9416056C017B018A01FC01178244
:100520001682838181FFCCC1CE0101963C01F60188
:100530009381F70193FD859193FF81917F0188233A
:1005400009F4BAC1853239F493FD859193FF819105
:100550007F01853229F4B60190E00E947C04E7CF48
:10056000912C212C312CFFE1F315D8F08B3279F04E
:1005700038F4803279F08332A1F4232D20611DC03C
:100580008D3261F0803369F4232D216016C0832DF4
:100590008260382EE32DE4603E2E2AC0F32DF860F1
:1005A0001DC037FC2DC020ED280F2A3040F08E32C0
:1005B000B9F436FC81C1232D2064322E19C036FED9
:1005C00006C08AE0989E200D1124922E11C0EAE008
:1005D0002E9E200D1124222EF32DF0623F2E08C0F6
:1005E0008C3621F4832D8068382E02C0883641F481
:1005F000F70193FD859193FF81917F018111B3CF25
:10060000982F9F7D9554933028F40C5F1F4F9FE3E4
:1006100099830DC0833631F0833771F0833509F04B
:1006200059C021C0F801808189830E5F1F4F882443
:100630008394912C530113C02801F2E04F0E511CFA
:10064000F801A080B18036FE03C0692D70E002C0C1
:100650006FEF7FEFC5010E9471044C018201F32D01
:10066000FF773F2E16C0280122E0420E511CF801F0
:10067000A080B18036FE03C0692D70E002C06FEF2C
:100680007FEFC5010E9466044C01F32DF0683F2EF8
:10069000820133FC1BC0822D90E088169906B0F4CD
:1006A000B60180E290E00E947C042A94F4CFF50128
:1006B00037FC859137FE81915F01B60190E00E9481
:1006C0007C0421102A9421E0821A9108811491045B
:1006D00071F7E8C0843611F0893641F5F80137FE2C
:1006E00007C060817181828193810C5F1F4F08C0B8
:1006F00060817181072E000C880B990B0E5F1F4FD4
:10070000F32DFF763F2E97FF09C090958095709549
:1007100061957F4F8F4F9F4FF0683F2E2AE030E06A
:10072000A3010E94B804882E861845C0853731F48D
:10073000232D2F7EB22E2AE030E025C0932D997F05
:10074000B92E8F36C1F018F4883579F0B5C08037EE
:1007500019F0883721F0B0C0E92FE061BE2EB4FE59
:100760000DC0FB2DF460BF2E09C034FE0AC0292F36
:100770002660B22E06C028E030E005C020E130E05F
:1007800002C020E132E0F801B7FE07C0608171814C
:10079000828193810C5F1F4F06C06081718180E070
:1007A00090E00E5F1F4FA3010E94B804882E8618A8
:1007B000FB2DFF773F2E36FE0DC0232D2E7FA22E60
:1007C000891458F434FE0BC032FC09C0832D8E7E90
:1007D000A82E05C0B82CA32C03C0B82C01C0B92C7E
:1007E000A4FE0FC0FE01E80DF11D8081803321F4CD
:1007F0009A2D997EA92E09C0A2FE06C0B394B39487
:1008000004C08A2D867809F0B394A3FC11C0A0FE21
:1008100006C0B21488F4280C922C9B180EC0B21497
:1008200060F4B60180E290E00E947C04B394F7CFBC
:10083000B21418F42B1802C0982C212CA4FE10C05E
:10084000B60180E390E00E947C04A2FE17C0A1FCE8
:1008500003C088E790E002C088E590E0B6010CC0D4
:100860008A2D867859F0A1FE02C08BE201C080E299
:10087000A7FC8DE2B60190E00E947C04891438F454
:10088000B60180E390E00E947C049A94F7CF8A94AA
:10089000F301E80DF11D8081B60190E00E947C0417
:1008A0008110F5CF222009F442CEB60180E290E01B
:1008B0000E947C042A94F6CFF6018681978102C0BB
:1008C0008FEF9FEF2B96E2E10C943205FC0105902F
:1008D000615070400110D8F7809590958E0F9F1F42
:1008E0000895FC016150704001900110D8F7809587
:1008F00090958E0F9F1F08950F931F93CF93DF93B3
:10090000FB01238121FD03C08FEF9FEF2CC022FF4D
:1009100016C046815781248135814217530744F41C
:10092000A081B1819D012F5F3F4F318320838C9344
:10093000268137812F5F3F4F3783268314C08B0179
:10094000EC01FB010084F185E02D0995892BE1F68E
:10095000D80116968D919C911797019617969C93A6
:100960008E931697CE01DF91CF911F910F9108952D
:10097000FA01AA27283051F1203181F1E8946F93D0
:100980006E7F6E5F7F4F8F4F9F4FAF4FB1E03ED076
:10099000B4E03CD0670F781F891F9A1FA11D680F14
:1009A000791F8A1F911DA11D6A0F711D811D911D47
:1009B000A11D20D009F468943F912AE0269F1124BC
:1009C0003019305D3193DEF6CF010895462F477020
:1009D000405D4193B3E00FD0C9F7F6CF462F4F707B
:1009E000405D4A3318F0495D31FD4052419302D0D9
:1009F000A9F7EACFB4E0A69597958795779567957F
:100A0000BA95C9F700976105710508959B01AC017E
:100A10000A2E06945795479537952795BA95C9F7A5
:100A2000620F731F841F951FA01D08952F923F9280
:100A30004F925F926F927F928F929F92AF92BF92EE
:100A4000CF92DF92EF92FF920F931F93CF93DF939A
:100A5000CDB7DEB7CA1BDB0B0FB6F894DEBF0FBEF7
:100A6000CDBF09942A88398848885F846E847D8444
:100A70008C849B84AA84B984C884DF80EE80FD8046
:100A80000C811B81AA81B981CE0FD11D0FB6F894BC
:0E0A9000DEBF0FBECDBFED010895F894FFCF7D
:100A9E005465636C613A20202020202020202020E5
:100AAE002041534349493A202533642020200054E5
:100ABE0065636C61646F20417469766F212000500C
:0E0ACE0072657373696F6E6520616C676F00EF
:00000001FF
