S010000050726F6A65746F312E7372656300
S11300000C9434000C9451000C9451000C94510045
S11300100C9451000C9451000C9451000C94510018
S11300200C9451000C9451000C9451000C94510008
S11300300C9451000C9451000C9451000C945100F8
S11300400C9451000C9451000C94C3040C94510072
S11300500C9451000C9451000C9451000C945100D8
S11300600C9451000C94510011241FBECFEFD8E022
S1130070DEBFCDBF12E0A0E0B1E0E4E4FDE002C0E9
S113008005900D92AC36B107D9F722E0ACE6B2E0A8
S113009001C01D92A03FB207E1F70E9481020C94B7
S11300A0A0060C94000020E04CE268E071E080E0DF
S11300B00E94F10046E151E060E081E00E94D2003C
S11300C00895CF93C82F88B1807F9C2F92959F70FD
S11300D0892B88B988B18F7D88B988B1806188B946
S11300E088B18F7E88B984E690E00E94570688B173
S11300F0807FCF70C82BC8B988B1806188B988B1B6
S11301008F7E88B982E090E00E943F06CF910895E7
S11301108FEF87B98AE090E00E943F0682E00E9458
S1130120610088E20E9461008CE00E94610086E028
S11301300E94610081E00E946100089581E00E94B4
S1130140610080E80E9461000895CF93DF93EC0181
S113015023C098B1907F82958F70892B88B988B11C
S1130160806288B988B1806188B988B18F7E88B986
S113017088EC90E00E94570698B18991907F8F7027
S1130180892B88B988B1806188B988B18F7E88B994
S113019082E090E00E943F0688818111DACFDF91EE
S11301A0CF910895CF93DF93EA01811108C06031A4
S11301B030F4862F8F7080680E94610009C08130FE
S11301C039F4603128F4862F8F70806C0E946100AE
S11301D0CE010E94A50080E80E946100DF91CF91CA
S11301E008956F927F928F929F92AF92BF92CF9217
S11301F0DF92EF92FF920F931F93CF93DF93CDB7CC
S1130200DEB761970FB6F894DEBF0FBECDBF782E70
S11302104A01622ECDB6DEB6ADB6BEB6FB01019084
S11302200020E9F73197E61BF70B0E2FE13128F494
S1130230AB0160E00E94D20042C0FF2771968DB7E7
S11302409EB78E1B9F0B0FB6F8949EBF0FBE8DBF3B
S113025001967C010E947006D7010D900020E9F7F9
S1130260119781E1E6E2F1E001900D928A95E1F7C0
S113027010E01BC040E150E0B701610F711DCE01D9
S113028001960E947706198AAE014F5F5F4F60E0C6
S1130290872D0E94D200C4010E943F060E94BB0524
S11302A0892B11F0662059F01F5F011718F76110B0
S11302B0DFCF0FB6F894BEBE0FBEADBE05C00FB6FD
S11302C0F894BEBE0FBEADBE0FB6F894DEBE0FBE30
S11302D0CDBE61960FB6F894DEBF0FBECDBFDF91E1
S11302E0CF911F910F91FF90EF90DF90CF90BF902F
S11302F0AF909F908F907F906F900895EF92FF92B0
S11303000F931F93CF93DF9300D0CDB7DEB77C015B
S11303100E949E0047E351E060E080E00E94D2002A
S113032046E451E060E081E00E94D20000E010E089
S113033019C00E94BB0590ED980F9A3098F4F7010C
S1130340E00FF11F808389831A82AE014F5F5F4FF4
S1130350602F81E00E94D2000F5F1F4F88EC90E075
S11303600E943F060630110524F3F70116820F9010
S11303700F90DF91CF911F910F91FF90EF9008950F
S1130380EF92FF920F931F93CF93DF9300D0CDB7DB
S1130390DEB77C010E949E004DE451E060E080E005
S11303A00E94D20046E451E060E081E00E94D20065
S11303B000E010E01AC00E94BB0590ED980F9A303F
S11303C0A0F4F701E00FF11F80838AE289831A8287
S11303D0AE014F5F5F4F602F81E00E94D2000F5F3C
S11303E01F4F88EC90E00E943F06063011051CF375
S11303F0F70116820F900F90DF91CF911F910F910B
S1130400FF90EF900895CF93DF93CDB7DEB7A19718
S11304100FB6F894DEBF0FBECDBFDC010D900020F7
S1130420E9F71197A81BB90B169709F053C0DB0124
S11304300D900020E9F71197A61BB70B169709F04A
S11304404CC0FC0183E4898385E48A8386E0DE0171
S1130450139601900D928A95E1F786E0FB01DE0187
S1130460199601900D928A95E1F7BE016F5F7F4F57
S11304708EE090E00E94A604BE01615F7F4F82E19E
S113048090E00E94330519A20E949E004BE551E0C2
S113049060E080E00E94D200AE01415F5F4F60E007
S11304A081E00E94D20080ED97E00E943F060E9406
S11304B09E008F858335A1F488898534A1F46AE68A
S11304C071E0CE010F960E948606892B79F080E0B8
S11304D090E00EC080E090E00BC080E090E008C0A7
S11304E080E090E005C080E090E002C081E090E010
S11304F0A1960FB6F894DEBF0FBECDBFDF91CF91AA
S11305000895CF93DF93CDB7DEB766970FB6F8940F
S1130510DEBF0FBECDBF0E9477050E9488000E94F7
S1130520970488E0E0E0F1E0DE011F9601900D926F
S11305308A95E1F70E9453000E94BB058823E1F3EA
S1130540CE0101960E947E01CE0108960E94C00150
S1130550BE01685F7F4FCE0101960E940302892B82
S113056009F4CDC00E949E0049E751E060E080E0BC
S11305700E94D20048E851E060E081E00E94D2008D
S113058080ED97E00E943F06CC24C394D12CE12C4B
S1130590F12CB0C00E949E00F701EE0FFF1F81E016
S11305A090E08C0F9D1FE80FF91F4685578560E08A
S11305B080E00E94D20057019FEFA91AB90A84E093
S11305C0A816B10484F4F501EE0FFF1F81E090E05A
S11305D08C0F9D1FE80FF91F4685578560E081E069
S11305E00E94D20006C045E351E060E081E00E9431
S11305F0D2000E94BB05182F8823D9F38CE291E026
S11306000E943F06123429F492E0E916F1040CF436
S113061070C0113439F41E141F0424F481E0E81A64
S1130620F10868C01A3279F40E949E0047E951E04B
S113063060E080E00E94D20088EE93E00E943F06D2
S1130640C12CD12C57C0F701EE0FFF1F81E090E0C1
S11306508C0F9D1FE80FF91F0684F785E02D80811C
S1130660181348C0123361F018F4113331F042C04A
S11306701333C9F0143351F13DC00E94F3033AC05F
S11306800E949E0040EE51E060E080E00E94D200B3
S113069043EA51E060E081E00E94D20080ED97E0FF
S11306A00E943F0627C00E949E004BEE51E060E08E
S11306B080E00E94D20043EA51E060E081E00E94C1
S11306C0D20080ED97E00E943F0614C00E949E0075
S11306D047EF51E060E080E00E94D20043EA51E03D
S11306E060E081E00E94D20080ED97E00E943F0626
S11306F001C07501C114D10409F04CCF1BCF0E9475
S11307009E0046EB51E060E080E00E94D20046EC9F
S113071051E060E081E00E94D20080ED97E00E9409
S11307203F0608CFCF92DF92EF92FF920F931F9371
S1130730CF93DF93CDB7DEB7BC01EDB6FEB6FC01B7
S113074001900020E9F73197AF01481B590B6A016A
S113075083E0C80ED11CEDB7FEB7EC19FD090FB646
S1130760F894FEBF0FBEEDBF0DB71EB70F5F1F4F4E
S113077083E4818383E5F801818342838DB79EB747
S113078004960E947706B801C6010E94A6040FB61B
S1130790F894FEBE0FBEEDBEDF91CF911F910F9175
S11307A0FF90EF90DF90CF900895CF93DF9300D028
S11307B01F92CDB7DEB7BE016F5F7F4F83E090E03D
S11307C00E9433058981833529F48A81833521F494
S11307D08B8103C085E401C085E40F900F900F90D6
S11307E0DF91CF9108950F931F93CF93DF93CDB7EC
S11307F0DEB72A970FB6F894DEBF0FBECDBFFE0159
S1130800319689E0DF011D928A95E9F70E949E00E6
S11308104DEF51E060E080E00E94D2004DE052E0F4
S113082060E081E00E94D20000E010E00E94BB057D
S11308308A8790ED980F9A30D8F408301105C4F4E3
S1130840E1E0F0E0EC0FFD1FE00FF11F808362E0B8
S1130850600FAE01465F5F4F81E00E94D2000F5FE0
S11308601F4F8FE493EC0197F1F700C00000DECF37
S11308708332C1F510161106ACF5E1E0F0E0EC0F9F
S1130880FD1FE00FF11F1082CE0101960E9492031A
S11308900E94D503182F0E949E001F3469F440E182
S11308A052E060E080E00E94D20041E252E060E069
S11308B081E00E94D2000CC043E352E060E080E09B
S11308C00E94D20046E452E060E081E00E94D2003F
S11308D09FEBA7E2B9E09150A040B040E1F700C01F
S11308E000001AC08A3209F0A1CF0E949E0048E598
S11308F052E060E080E00E94D20041E652E060E015
S113090081E00E94D2002FE78AE196E021508040E6
S11309109040E1F700C000002A960FB6F894DEBFBD
S11309200FBECDBFDF91CF911F910F91089510920B
S1130930C50083E38093C4001092C00088E98093CB
S1130940C10086E08093C20078940895AC0120E051
S113095030E00CC09091C00095FFFCCFFB01E20F8A
S1130960F31F90819093C6002F5F3F4F24173507E4
S11309708CF38091C00086FFFCCFE0ECF0E0808136
S11309808064808308951F920F920FB60F921124F2
S11309902F933F934F938F939F93EF93FF934091A4
S11309A0C60080916E0290916F0201968F779078C5
S11309B0992324F4019780689F6F019620916C021B
S11309C030916D028217930759F0E0916E02F09115
S11309D06F02E059FD4F408390936F0280936E0243
S11309E0FF91EF919F918F914F913F912F910F9094
S11309F00FBE0F901F90189540916E0250916F0298
S1130A0020916C0230916D0281E04217530709F086
S1130A1080E090E00895CF93DF93EC010E94FC0402
S1130A20892BE1F4E0916C02F0916D02E059FD4FE5
S1130A308081888380916C0290916D0201968F77FA
S1130A409078992324F4019780689F6F019690937E
S1130A506D0280936C0281E090E002C080E090E03F
S1130A60DF91CF910895AF92BF92CF92DF92EF9230
S1130A70FF920F931F93CF93DF931F92CDB7DEB7EF
S1130A806C015B01E12CF12C00E010E019C0CE01F7
S1130A9001960E940B05892B51F0F501E00FF11F1F
S1130AA0898180830F5F1F4FE12CF12C09C08FE3F4
S1130AB09CE90197F1F700C000009FEFE91AF90AD9
S1130AC00C151D0524F484E6E816F10404F3F5017D
S1130AD0E00FF11F10820F90DF91CF911F910F91C2
S1130AE0FF90EF90DF90CF90BF90AF90089584B1C6
S1130AF0836084B98AB1806C8AB98AB1837C8AB9EB
S1130B008BB18C638BB90895CF93DF9300D0CDB7AD
S1130B10DEB71A82198205C089819A8101969A8367
S1130B20898389819A81883E9340B0F30F900F9016
S1130B30DF91CF9108951F93CF93DF93182FC0E0D7
S1130B40D0E012C00E94840529B181E090E0012E1A
S1130B5002C0880F991F0A94E2F78223D81302C0B7
S1130B60CF5F01C0C0E0D82FC73061F78D2FDF9170
S1130B70CF911F910895CF9385B1836085B98BB1CF
S1130B80806C8BB985B18D7F85B985E00E949B050A
S1130B90882311F0C0E001C0C1E384E00E949B05FA
S1130BA0811101C0C2E383E00E949B05811101C051
S1130BB0C3E382E00E949B05811101C0C1E485B1B9
S1130BC0826085B985B18E7F85B985E00E949B05D9
S1130BD0811101C0C4E384E00E949B05811101C01E
S1130BE0C5E383E00E949B05811101C0C6E382E056
S1130BF00E949B05811101C0C2E485B1816085B961
S1130C008BB18F778BB985E00E949B05811101C060
S1130C10C7E384E00E949B05811101C0C8E383E01F
S1130C200E949B05811101C0C9E382E00E949B05DB
S1130C30811101C0C3E48BB180688BB98BB18F7B08
S1130C408BB985E00E949B05811101C0CAE284E052
S1130C500E949B05811101C0C0E383E00E949B05B3
S1130C60811101C0C3E282E00E949B05811101C091
S1130C70C4E48BB180648BB98C2FCF910895AC01FF
S1130C8014BC85E085BD10926E0081EF86BD20E026
S1130C9030E008C0A99BFECF91EF96BD92E095BBD2
S1130CA02F5F3F4F24173507ACF315BC0895AC01F3
S1130CB014BC81E085BD10926E0085EF86BD20E0F6
S1130CC030E009C0A99BFECF95EF96BD95B3926025
S1130CD095BB2F5F3F4F24173507A4F315BC089528
S1130CE0FB01DC0101900D920020E1F70895FB0166
S1130CF0DC014150504048F001900D920020C9F7AA
S1130D0001C01D9241505040E0F70895FB015191FC
S1130D105523A9F0BF01DC014D9145174111E1F7BD
S1130D2059F4CD010190002049F04D914015411135
S1130D30C9F3FB014111EFCF81E090E001970895E1
S1070D40F894FFCF51
S1130D44D601DE01E901F5012042616E636F20558D
S1130D54465247532000446967697465206361728D
S1130D6474616F3A2000202020202020202020209D
S1130D742020202020200044696769746520636F63
S1130D846469676F3A005F5F5F5F5F5F0044696730
S1130D946974652073656E68613A005265737020E6
S1130DA45365727669646F723A004E616F2061759F
S1130DB4746F72697A61646F00436F6469676F204A
S1130DC476616C69646F210050726F63657373613B
S1130DD46E646F2E2E2E00566F6C74616E646F2ECB
S1130DE42E2E00456D20646573656E766F6C76698E
S1130DF46D656E746F00436F6E746120696E766105
S1130E046C696461210054656E7465206E6F76614B
S1130E146D656E746500312D536171756500322DF5
S1130E244465706F7369746F00332D506167616D2D
S1130E34656E746F002A2D53616C646F0056616C87
S1130E446F7220646F2073617175653A00522400D7
S1130E545361717565207265616C697A61646F218F
S1130E6400526574697265206F2064696E686569EF
S1130E74726F0053616C646F20696E737566696385
S1130E8469656E74650054656E7465206F7574725B
S1130E946F2076616C6F72004F7065726163616F6D
S10F0EA40063616E63656C6164610000B2
S9030000FC
