:100000000C943C000C9459000C9459000C94590029
:100010000C9459000C9459000C9459000C945900FC
:100020000C9459000C9459000C9459000C945900EC
:100030000C9459000C9459000C9459000C945900DC
:100040000C9459000C9459000C9494060C9459008B
:100050000C9459000C9459000C9459000C945900BC
:100060000C9459000C945900D902EB02F402FD02E1
:100070002E0371037503890311241FBECFEFD8E04F
:10008000DEBFCDBF12E0A0E0B1E0ECE0F3E102C0E2
:1000900005900D92A83DB107D9F723E0A8EDB2E095
:1000A00001C01D92A636B207E1F70E94B1020C947E
:1000B00084090C94000020E04CE260E071E080E0F4
:1000C0000E94F9004EE051E060E081E00E94DA0019
:1000D0000895CF93C82F88B1807F9C2F92959F70F1
:1000E000892B88B988B18F7D88B988B1806188B93A
:1000F00088B18F7E88B984E690E00E941A0988B1A1
:10010000807FCF70C82BC8B988B1806188B988B1A9
:100110008F7E88B982E090E00E940209CF91089515
:100120008FEF87B98AE090E00E94020982E00E9486
:10013000690088E20E9469008CE00E94690086E004
:100140000E94690081E00E946900089581E00E9498
:10015000690080E80E9469000895CF93DF93EC0165
:1001600023C098B1907F82958F70892B88B988B110
:10017000806288B988B1806188B988B18F7E88B97A
:1001800088EC90E00E941A0998B18991907F8F7055
:10019000892B88B988B1806188B988B18F7E88B988
:1001A00082E090E00E94020988818111DACFDF911C
:1001B000CF910895CF93DF93EA01811108C0603198
:1001C00030F4862F8F7080680E94690009C08130EA
:1001D00039F4603128F4862F8F70806C0E9469009A
:1001E000CE010E94AD0080E80E946900DF91CF91AE
:1001F00008956F927F928F929F92AF92BF92CF920B
:10020000DF92EF92FF920F931F93CF93DF93CDB7BF
:10021000DEB761970FB6F894DEBF0FBECDBF782E64
:100220004A01622ECDB6DEB6ADB6BEB6FB01019078
:100230000020E9F73197E61BF70B0E2FE13128F488
:10024000AB0160E00E94DA0042C0FF2771968DB7D3
:100250009EB78E1B9F0B0FB6F8949EBF0FBE8DBF2F
:1002600001967C010E944409D7010D900020E9F716
:10027000119781E1EEE1F1E001900D928A95E1F7AD
:1002800010E01BC040E150E0B701610F711DCE01CD
:1002900001960E945B09198AAE014F5F5F4F60E0D3
:1002A000872D0E94DA00C4010E9402090E947E0884
:1002B000892B11F0662059F01F5F011718F76110A4
:1002C000DFCF0FB6F894BEBE0FBEADBE05C00FB6F1
:1002D000F894BEBE0FBEADBE0FB6F894DEBE0FBE24
:1002E000CDBE61960FB6F894DEBF0FBECDBFDF91D5
:1002F000CF911F910F91FF90EF90DF90CF90BF9023
:10030000AF909F908F907F906F900895EF92FF92A3
:100310000F931F93CF93DF9300D0CDB7DEB77C014F
:100320000E94A6004FE251E060E080E00E94DA0007
:100330004EE351E060E081E00E94DA0000E010E06E
:100340001DC00E94BB07892BF1F40E947E0890ED2E
:10035000980F9A3098F4F701E00FF11F808389839A
:100360001A82AE014F5F5F4F602F81E00E94DA007A
:100370000F5F1F4F88EC90E00E94020906301105C4
:1003800004F3F70116820F900F90DF91CF911F9128
:100390000F91FF90EF900895EF92FF920F931F93AC
:1003A000CF93DF9300D0CDB7DEB77C010E94A600CB
:1003B00045E451E060E080E00E94DA004EE351E065
:1003C00060E081E00E94DA0000E010E01EC00E94C0
:1003D000BB07892BF9F40E947E0890ED980F9A30A4
:1003E000A0F4F701E00FF11F80838AE289831A826B
:1003F000AE014F5F5F4F602F81E00E94DA000F5F18
:100400001F4F88EC90E00E94020906301105FCF2B3
:10041000F70116820F900F90DF91CF911F910F91EE
:10042000FF90EF9008950F931F93CF93DF93CDB775
:10043000DEB7AE970FB6F894DEBF0FBECDBFDC01BE
:100440000D900020E9F71197A81BB90B169709F03A
:1004500055C0DB010D900020E9F71197A61BB70BE3
:10046000169709F04EC0FC0183E4898385E48A83F2
:1004700086E0DE01139601900D928A95E1F786E001
:10048000FB01DE01199601900D928A95E1F7BE01FC
:100490006F5F7F4F8EE090E00E946A068E01015FE1
:1004A0001F4F80E2F80111928A95E9F7B8018FE1B8
:1004B00090E00E94F6070E94A60043E551E060E04C
:1004C00080E00E94DA00A80160E081E00E94DA008A
:1004D00080ED97E00E9402090E94A6008F85833577
:1004E00099F48889853499F462E671E0C8010E9424
:1004F0006A09892B79F080E090E00EC080E090E0FE
:100500000BC080E090E008C080E090E005C080E093
:1005100090E002C081E090E0AE960FB6F894DEBFA6
:100520000FBECDBFDF91CF911F910F9108950E9413
:10053000A60041E751E060E080E00E94DA004EE76B
:1005400051E060E081E00E94DA0004C088EC90E0B5
:100550000E9402090E94BB07892BC1F70E94A600D6
:100560000895CF93DF93CDB7DEB72E970FB6F894EB
:10057000DEBF0FBECDBF0E943A080E9490000E94CD
:100580005B0600E007C001E005C002E003C003E035
:1005900001C005E00E94BB07892B21F00E94970251
:1005A00000E0F8CF802F90E0FC01EC5CFF4F0C9452
:1005B00033090E94A6000E945B0004C00E94BB0792
:1005C000892B21F40E947E088823C1F30E94BB0777
:1005D000892BC9F2DFCFCE0101960E9486010E94CD
:1005E000BB07892B91F2D6CFCE0108960E94CC0191
:1005F0000E94BB07892B59F2CDCFBE01685F7F4FA8
:10060000CE0101960E941302892BA1F00E94A60040
:100610004BE851E060E080E00E94DA004AE951E0F6
:1006200060E081E00E94DA0080ED97E00E9402091C
:1006300004E0B0CF0E94A60049EA51E060E080E00B
:100640000E94DA0049EB51E060E081E00E94DA00AC
:1006500080ED97E00E94020900E09CCF0E94A60076
:1006600049EC51E060E080E00E94DA0041ED51E0A9
:1006700060E081E00E94DA0004C00E94BB07892B81
:1006800029F40E947E08182F8823B9F38CE291E0A8
:100690000E940209123409F47DCF1A3271F40E94CB
:1006A000A6004DED51E060E080E00E94DA0088EEA7
:1006B00093E00E94020900E06DCF123351F020F464
:1006C000113309F466CF66CF133329F0143329F0C0
:1006D00061CF06E05FCF07E05DCF0E94E60500E056
:1006E00059CF0E94FF0304E055CF0E94A60043EDBE
:1006F00051E060E080E00E94DA0049EE51E060E005
:1007000081E00E94DA0080ED97E00E94020904E097
:1007100041CF0E94DF0404E03DCFCF92DF92EF9201
:10072000FF920F931F93CF93DF93CDB7DEB7BC013A
:10073000EDB6FEB6FC0101900020E9F73197AF015C
:10074000481B590B6A0183E0C80ED11CEDB7FEB7F8
:10075000EC19FD090FB6F894FEBF0FBEEDBF0DB743
:100760001EB70F5F1F4F83E4818383E5F801818308
:1007700042838DB79EB704960E945B09B801C601FB
:100780000E946A060FB6F894FEBE0FBEEDBEDF9162
:10079000CF911F910F91FF90EF90DF90CF90089530
:1007A000CF93DF9300D000D01F92CDB7DEB7BE014C
:1007B0006F5F7F4F83E090E00E94F6071C820E94EB
:1007C000A600AE014F5F5F4F60E080E00E94DA005C
:1007D00080ED97E00E9402098981833529F48A819E
:1007E000833521F48B8103C085E401C085E40F903B
:1007F0000F900F900F900F90DF91CF9108950F936E
:100800001F93CF93DF93CDB7DEB72B970FB6F89436
:10081000DEBF0FBECDBFFE01319689E0DF011D9224
:100820008A95E9F70E94A6004CEF51E060E080E075
:100830000E94DA004CE052E060E081E00E94DA00C1
:1008400000E010E00E94BB07892B99F00E94A600EF
:100850004FE052E060E080E00E94DA004CE152E0BC
:1008600060E081E00E94DA0080ED97E00E940209DA
:100870009BC00E947E0890ED980F9A30D8F4083003
:100880001105C4F4E1E0F0E0EC0FFD1FE00FF11FF3
:1008900080838A871B8662E0600FAE01465F5F4FF0
:1008A00081E00E94DA000F5F1F4F88EC90E00E9409
:1008B0000209C8CF833209F062C0101611060CF08D
:1008C0005EC0E1E0F0E0EC0FFD1FE00FF11F1082D1
:1008D0000E94BB07892B99F00E94A6004FE052E0CE
:1008E00060E080E00E94DA004CE152E060E081E0EC
:1008F0000E94DA0080ED97E00E94020955C0CE0107
:1009000001960E948D030E94BB07892B99F00E94DB
:10091000A6004FE052E060E080E00E94DA004CE187
:1009200052E060E081E00E94DA0080ED97E00E94F2
:1009300002093AC00E94D003182F0E94A6001F345B
:1009400069F44BEC51E060E080E00E94DA004AE29A
:1009500052E060E081E00E94DA000CC045E352E022
:1009600060E080E00E94DA004BE352E060E081E06A
:100970000E94DA0088EB9BE00E94020915C08A32CF
:1009800009F060CF0E94A60048E452E060E080E0F9
:100990000E94DA0041E552E060E081E00E94DA0066
:1009A00080ED97E00E9402092B960FB6F894DEBF07
:1009B0000FBECDBFDF91CF911F910F910895EF92A0
:1009C000FF920F931F93CF93DF93CDB7DEB7A99715
:1009D0000FB6F894DEBF0FBECDBF83E4898386E5F2
:1009E0008A830E94BB07892B99F00E94A6004FE0E2
:1009F00052E060E080E00E94DA004CE152E060E00A
:100A000081E00E94DA0080ED97E00E940209D1C0E7
:100A1000BE016F5F7F4F82E090E00E946A060E94F5
:100A2000BB07892B99F00E94A6004FE052E060E0DE
:100A300080E00E94DA004CE152E060E081E00E9438
:100A4000DA0080ED97E00E940209B3C0BE016D5F3D
:100A50007F4F83E090E00E94F6071E828B818335F2
:100A600009F095C08C81863509F091C00D81FE0199
:100A70007A9680E1DF011D928A95E9F7003108F04E
:100A80000FE00E94BB07892B99F00E94A6004FE05F
:100A900052E060E080E00E94DA004CE152E060E069
:100AA00081E00E94DA0080ED97E00E94020981C097
:100AB00010E07E01BAE1EB0EF11CB701C8010E9403
:100AC000F607F701E00FF11F1082F70101900020F7
:100AD000E9F73197EE19FF09E230F10544F17E01A3
:100AE00086E0E80EF11C82E594E29F838E83D701B5
:100AF00012961C928F0102501109A801BE01665E78
:100B00007F4FC7010E944B09F70101900020E9F7D0
:100B100031978EE290E0918380836AE170E06C0F00
:100B20007D1F600F711FC7010E9439091CC03197DA
:100B300089F486E0EBE5F2E0DE01169601900D9275
:100B40008A95E1F7BE01665E7F4FCE0106960E9450
:100B5000390909C087E0E1E6F2E0DE01169601906E
:100B60000D928A95E1F70E94A60048E652E060E007
:100B700080E00E94DA00AE014A5F5F4F60E081E0F2
:100B80000E94DA0088EB9BE00E94020912C00E94DA
:100B9000A60045E752E060E080E00E94DA0043E80A
:100BA00052E060E081E00E94DA0088EB9BE00E9466
:100BB0000209A9960FB6F894DEBF0FBECDBFDF9134
:100BC000CF911F910F91FF90EF900895CF93DF93F6
:100BD00000D000D01F92CDB7DEB783E4898386E4CE
:100BE0008A830E94BB07892B99F00E94A6004AE8DD
:100BF00052E060E080E00E94DA0045E952E060E007
:100C000081E00E94DA0080ED97E00E9402094BC06B
:100C1000BE016F5F7F4F82E090E00E946A060E94F3
:100C2000BB07892B99F00E94A6004AE852E060E0D9
:100C300080E00E94DA0045E952E060E081E00E9435
:100C4000DA0080ED97E00E9402092DC0BE016D5FC1
:100C50007F4F82E090E00E94F6071D820E94A6006E
:100C60008B81833581F48C81863469F441EA52E0CA
:100C700060E080E00E94DA0048EA52E060E081E053
:100C80000E94DA000CC044EB52E060E080E00E9479
:100C9000DA0046EC52E060E081E00E94DA0080ED8C
:100CA00097E00E9402090F900F900F900F900F9005
:100CB000DF91CF9108951092C50083E38093C40023
:100CC0001092C00088E98093C10086E08093C20042
:100CD00078940895AC0120E030E00CC09091C00001
:100CE00095FFFCCFFB01E20FF31F90819093C600AC
:100CF0002F5F3F4F241735078CF38091C00086FF8C
:100D0000FCCFE0ECF0E08081806480830895FC01FA
:100D100001900020E9F73197BC019F01281B390B96
:100D2000C9010E946A0608951F920F920FB60F9292
:100D300011242F933F934F935F936F937F938F93E0
:100D40009F93AF93BF93EF93FF938091C600E09181
:100D5000DA029FEF9E0F9530D8F491E09E0F9093AA
:100D6000DA02F0E0E552FD4F8083963009F0F2C0E0
:100D70008091DF02885091E08C3008F490E09093ED
:100D8000E1028EEC92E00E9487061092DA02E2C045
:100D90009091D802992309F4B3C09091D902933568
:100DA00009F065C0843541F481E08093E10281ED72
:100DB00092E00E9487069FC08C3439F41092E102C1
:100DC00084ED92E00E94870696C0883451F4EBEDE2
:100DD000F2E083E5808388E4818382E08093DA0215
:100DE0008AC02091E4023091E5022F5F3F4F2F77B8
:100DF0003078332334F42150310920683F6F2F5F5E
:100E00003F4F4091E2025091E3022417350759F019
:100E1000E091E402F091E502EA51FD4F90833093B6
:100E2000E5022093E4022091E4023091E5022F5F75
:100E30003F4F2F773078332334F421503109206825
:100E40003F6F2F5F3F4F4091E2025091E302241722
:100E5000350709F450C0E091E402F091E502EA514F
:100E6000FD4F80833093E5022093E40244C020913B
:100E7000E4023091E5022F5F3F4F2F773078332324
:100E800034F42150310920683F6F2F5F3F4F40916C
:100E9000E2025091E3022417350759F0E091E40291
:100EA000F091E502EA51FD4F90833093E5022093E3
:100EB000E4022091E4023091E5022F5F3F4F2F774B
:100EC0003078332334F42150310920683F6F2F5F8D
:100ED0003F4F4091E2025091E3022417350759F049
:100EE000E091E402F091E502EA51FD4F80833093F6
:100EF000E5022093E4021092D8021092D9022AC08F
:100F0000833531F48093D90281E08093D80222C0E6
:100F10002091E4023091E5022F5F3F4F2F77307828
:100F2000332334F42150310920683F6F2F5F3F4F46
:100F30004091E2025091E3022417350759F0E09105
:100F4000E402F091E502EA51FD4F80833093E5021F
:100F50002093E402FF91EF91BF91AF919F918F9108
:100F60007F916F915F914F913F912F910F900FBEA5
:100F70000F901F9018958091E10290E008954091A4
:100F8000E4025091E5022091E2023091E30281E017
:100F90004217530709F080E090E00895CF93DF9364
:100FA000EC010E94BF07892BE1F4E091E202F0918D
:100FB000E302EA51FD4F808188838091E2029091A3
:100FC000E30201968F779078992324F40197806843
:100FD0009F6F01969093E3028093E20281E090E09C
:100FE00002C080E090E0DF91CF910895AF92BF9270
:100FF000CF92DF92EF92FF920F931F93CF93DF93E5
:101000001F92CDB7DEB76C015B01E12CF12C00E043
:1010100010E019C0CE0101960E94CE07892B51F035
:10102000F501E00FF11F898180830F5F1F4FE12CD5
:10103000F12C09C08FE39CE90197F1F700C0000093
:101040009FEFE91AF90A0C151D0524F484E6E81649
:10105000F10404F3F501E00FF11F10820F90DF910E
:10106000CF911F910F91FF90EF90DF90CF90BF90A5
:10107000AF90089584B1836084B98AB1806C8AB9D5
:101080008AB1837C8AB98BB18C638BB90895CF9375
:10109000DF9300D0CDB7DEB71A82198205C08981EF
:1010A0009A8101969A83898389819A81883E9340A7
:1010B000B0F30F900F90DF91CF9108951F93CF93CE
:1010C000DF93182FC0E0D0E012C00E94470829B17A
:1010D00081E090E0012E02C0880F991F0A94E2F788
:1010E0008223D81302C0CF5F01C0C0E0D82FC73021
:1010F00061F78D2FDF91CF911F910895CF9385B127
:10110000836085B98BB1806C8BB985B18D7F85B9D2
:1011100085E00E945E08882311F0C0E001C0C1E3B1
:1011200084E00E945E08811101C0C2E383E00E9456
:101130005E08811101C0C3E382E00E945E08811154
:1011400001C0C1E485B1826085B985B18E7F85B962
:1011500085E00E945E08811101C0C4E384E00E9422
:101160005E08811101C0C5E383E00E945E08811121
:1011700001C0C6E382E00E945E08811101C0C2E4A2
:1011800085B1816085B98BB18F778BB985E00E947D
:101190005E08811101C0C7E384E00E945E088111EE
:1011A00001C0C8E383E00E945E08811101C0C9E369
:1011B00082E00E945E08811101C0C3E48BB18068A7
:1011C0008BB98BB18F7B8BB985E00E945E08811152
:1011D00001C0CAE284E00E945E08811101C0C0E340
:1011E00083E00E945E08811101C0C3E282E00E9498
:1011F0005E08811101C0C4E48BB180648BB98C2F6F
:10120000CF910895AC0114BC85E085BD10926E00AD
:1012100081EF86BD20E030E008C0A99BFECF91EFB2
:1012200096BD92E095BB2F5F3F4F24173507ACF377
:1012300015BC0895AC0114BC81E085BD10926E0010
:1012400085EF86BD20E030E009C0A99BFECF95EF79
:1012500096BD95B3926095BB2F5F3F4F241735071E
:10126000A4F315BC0895EE0FFF1F0590F491E02D37
:101270000994FB01DC010D900020E9F71197019022
:101280000D920020E1F70895FB01DC0101900D9221
:101290000020E1F70895FB01DC010D900020E9F743
:1012A00011974150504028F0019000200D92C9F74D
:1012B00008951C920895FB01DC014150504048F014
:1012C00001900D920020C9F701C01D92415050407D
:1012D000E0F70895FB0151915523A9F0BF01DC010E
:1012E0004D9145174111E1F759F4CD0101900020CE
:1012F00049F04D9140154111C9F3FB014111EFCF68
:0C13000081E090E001970895F894FFCF81
:10130C002042616E636F205546524753200044695A
:10131C00676974652063617274616F3A20002020E4
:10132C0020202020202020202020202020200044AD
:10133C00696769746520636F6469676F3A005F5F02
:10134C005F5F5F5F004469676974652073656E68F1
:10135C00613A0052657370205365727669646F72DE
:10136C003A004E616F206175746F72697A61646FB7
:10137C000020202020464F524120204445002020B0
:10138C0020204F5045524143414F00436F646967E1
:10139C006F2076616C69646F210050726F636573A6
:1013AC0073616E646F2E2E2E00436F6E7461206914
:1013BC006E76616C696461210054656E7465206E93
:1013CC006F76616D656E746500312D536171756555
:1013DC0000322D506167616D656E746F00566F6CD5
:1013EC0074616E646F2E2E2E00456D2064657365DE
:1013FC006E766F6C76696D656E746F0056616C6F8E
:10140C007220646F2073617175653A005224004F2D
:10141C00502043414E43454C4144410053495354A1
:10142C00454D4120424C4F512E005265616C697AFA
:10143C0061646F210053616C646F00696E73756633
:10144C00696369656E7465004F7065726163616F85
:10145C000063616E63656C616461005224302E30F0
:10146C00005224302E30300053616C646F20617454
:10147C0075616C3A004572726F20616F206F6274F7
:10148C0065720073616C646F210053455353414F77
:10149C00204E414F0046494E414C495A414441214E
:1014AC000053657373616F0046696E616C697A6194
:1014BC00646121004572726F20616F2066696E61F4
:1014CC006C697A61720073657373616F21004348B4
:0814DC0000435400434C0000E2
:00000001FF
