S010000050726F6A65746F312E7372656300
S11300000C943C000C9459000C9459000C94590025
S11300100C9459000C9459000C9459000C945900F8
S11300200C9459000C9459000C9459000C942E0112
S11300300C9459000C9459000C9459000C945900D8
S11300400C9459000C9459000C9493060C94590088
S11300500C9459000C9459000C9459000C945900B8
S11300600C9459000C945900C702D902E202EB0225
S11300701C035F036303770311241FBECFEFD8E093
S1130080DEBFCDBF12E0A0E0B1E0EEE2F3E102C0DA
S113009005900D92A23DB107D9F723E0A2EDB2E09D
S11300A001C01D92A436B207E1F70E949C020C9491
S11300B095090C94000040E051E063E080E00E9468
S11300C0EB004BE051E061E081E00E94EB0088EB43
S11300D09BE00E941A090E94B7004AE151E062E0E5
S11300E080E00E94EB0048E251E061E081E00E9480
S11300F0EB000895CF93C82F88B1807F9C2F9295F1
S11301009F70892B88B988B18F7D88B988B1806147
S113011088B988B18F7E88B984E690E00E9432095C
S113012088B1807FCF70C82BC8B988B1806188B985
S113013088B18F7E88B982E090E00E941A09CF913D
S113014008958FEF87B98AE090E00E941A0982E04F
S11301500E947A0088E20E947A008CE00E947A0071
S113016086E00E947A0081E00E947A00089581E08E
S11301700E947A0080E80E947A000895CF93DF936A
S1130180EC0123C098B1907F82958F70892B88B938
S113019088B1806288B988B1806188B988B18F7E5E
S11301A088B988EC90E00E94320998B18991907FD7
S11301B08F70892B88B988B1806188B988B18F7EA6
S11301C088B982E090E00E941A0988818111DACF0F
S11301D0DF91CF910895CF93DF93EA01811108C095
S11301E0603130F4862F8F7080680E947A0009C0D5
S11301F0813039F4603128F4862F8F70806C0E942E
S11302007A00CE010E94BE0080E80E947A00DF914D
S1130210CF910895109280008BE0809381008AEF43
S113022090E0909389008093880082E080936F002F
S11302300895CF93DF9300D0CDB7DEB783E48983ED
S11302408FE48A83BE016F5F7F4F82E090E00E945B
S113025066060F900F90DF91CF9108951F920F9231
S11302600FB60F9211242F933F934F935F936F9385
S11302707F938F939F93AF93BF93EF93FF9380915B
S1130280D2029091D302A091D402B091D5020196EA
S1130290A11DB11D8093D2029093D302A093D402E6
S11302A0B093D5028091D2029091D302A091D4024E
S11302B0B091D50280339547A105B10550F00E9455
S11302C019011092D2021092D3021092D402109209
S11302D0D502FF91EF91BF91AF919F918F917F9143
S11302E06F915F914F913F912F910F900FBE0F909F
S11302F01F901895EF92FF920F931F93CF93DF9364
S113030000D0CDB7DEB77C010E94B70047E351E0CF
S113031060E080E00E94EB0046E451E060E081E0B0
S11303200E94EB0000E010E01DC00E94D307892B5F
S1130330F1F40E94960890ED980F9A3098F4F70122
S1130340E00FF11F808389831A82AE014F5F5F4FF4
S1130350602F81E00E94EB000F5F1F4F88EC90E05C
S11303600E941A090630110504F3F70116820F9052
S11303700F90DF91CF911F910F91FF90EF9008950F
S1130380EF92FF920F931F93CF93DF9300D0CDB7DB
S1130390DEB77C010E94B7004DE451E060E080E0EC
S11303A00E94EB0046E451E060E081E00E94EB0033
S11303B000E010E01EC00E94D307892BF9F40E94CC
S11303C0960890ED980F9A30A0F4F701E00FF11F12
S11303D080838AE289831A82AE014F5F5F4F602F68
S11303E081E00E94EB000F5F1F4F88EC90E00E94B9
S11303F01A0906301105FCF2F70116820F900F90CE
S1130400DF91CF911F910F91FF90EF900895CF93BB
S1130410DF93CDB7DEB7AE970FB6F894DEBF0FBE4D
S1130420CDBFDC010D900020E9F71197A81BB90B93
S1130430169709F050C0DB010D900020E9F71197E1
S1130440A61BB70B169709F049C0FC0183E4898306
S113045085E48A8386E0DE01139601900D928A95E5
S1130460E1F786E0FB01DE01199601900D928A9571
S1130470E1F7BE016F5F7F4F8EE090E00E94660659
S1130480BE01615F7F4F80E2FB0111928A95E9F71B
S11304908FE190E00E940E080E94B7004BE551E006
S11304A064E080E00E94EB0080ED97E00E941A096E
S11304B00E94B7008F858335A1F488898534A1F41F
S11304C066E671E0CE010F960E947B09892B79F0D4
S11304D080E090E00EC080E090E00BC080E090E00F
S11304E008C080E090E005C080E090E002C081E0B8
S11304F090E0AE960FB6F894DEBF0FBECDBFDF918D
S1130500CF9108950E94B70045E751E060E080E094
S11305100E94EB0042E851E060E081E00E94EB00C1
S113052004C088EC90E00E941A090E94D307892B2A
S1130530C1F70E94B7000895CF93DF93CDB7DEB71C
S11305402E970FB6F894DEBF0FBECDBF0E9452089F
S11305500E94A1000E9457060E940A01789400E0BC
S113056007C001E005C002E003C003E001C005E0EC
S11305700E94D307892B21F00E94820200E0F8CF69
S1130580802F90E0FC01EC5CFF4F0C944B090E941F
S1130590B7000E945B0004C00E94D307892B21F49A
S11305A00E9496088823C1F30E94D307892BC9F2BD
S11305B0DFCFCE0101960E947A010E94D307892BD6
S11305C091F2D6CFCE0108960E94C0010E94D307B3
S11305D0892B59F2CDCFBE01685F7F4FCE010196C2
S11305E00E940702892BA1F00E94B7004FE851E056
S11305F060E080E00E94EB004DE951E060E081E0C2
S11306000E94EB0080ED97E00E941A0904E0B0CF4D
S11306100E94B7004CEA51E060E080E00E94EB00E9
S11306204CEB51E060E081E00E94EB0080ED97E04C
S11306300E941A0900E09CCF0E94B7004CEC51E0E4
S113064060E080E00E94EB0044ED51E060E081E076
S11306500E94EB0004C00E94D307892B29F40E9456
S11306609608182F8823B9F38CE291E00E941A09A6
S1130670123409F47DCF1A3271F40E94B70040EEAF
S113068051E060E080E00E94EB0088EE93E00E947D
S11306901A0900E06DCF123351F020F4113309F43C
S11306A066CF66CF133329F0143329F061CF06E007
S11306B05FCF07E05DCF0E94E20500E059CF0E94C2
S11306C0ED0304E055CF0E94B70046ED51E060E031
S11306D080E00E94EB004CEE51E060E081E00E947B
S11306E0EB0080ED97E00E941A0904E041CF0E94DC
S11306F0DB0404E03DCFCF92DF92EF92FF920F93A1
S11307001F93CF93DF93CDB7DEB7BC01EDB6FEB632
S1130710FC0101900020E9F73197AF01481B590B08
S11307206A0183E0C80ED11CEDB7FEB7EC19FD09D0
S11307300FB6F894FEBF0FBEEDBF0DB71EB70F5F27
S11307401F4F83E4818383E5F801818342838DB75E
S11307509EB704960E946C09B801C6010E94660601
S11307600FB6F894FEBE0FBEEDBEDF91CF911F9180
S11307700F91FF90EF90DF90CF900895CF93DF9388
S113078000D000D01F92CDB7DEB7BE016F5F7F4FA0
S113079083E090E00E940E081C820E94B700AE0124
S11307A04F5F5F4F60E080E00E94EB0080ED97E0D8
S11307B00E941A098981833529F48A81833521F4B9
S11307C08B8103C085E401C085E40F900F900F90E6
S11307D00F900F90DF91CF9108950F931F93CF93B4
S11307E0DF93CDB7DEB7C25BD4400FB6F894DEBF5B
S11307F00FBECDBFFE01319680EB94E0DF019C017A
S11308001D9221503040E1F70E94B7004FEF51E0B4
S113081060E080E00E94EB004FE052E060E081E0A5
S11308200E94EB0000E010E00E94D307892B99F0AE
S11308300E94B70042E152E060E080E00E94EB00D9
S11308404FE152E060E081E00E94EB0080ED97E030
S11308500E941A09A4C00E94960890ED980F9A303D
S113086020F50F3A34E0130704F5E1E0F0E0EC0F73
S1130870FD1FE00FF11F8083CF54DB4F8883C15BE2
S1130880D440CE54DB4F1882C25BD44062E0600F88
S1130890AE014F545B4F81E00E94EB000F5F1F4F8E
S11308A088EC90E00E941A09BFCF833209F062C03D
S11308B0101611060CF05EC0E1E0F0E0EC0FFD1F35
S11308C0E00FF11F10820E94D307892B99F00E9438
S11308D0B70042E152E060E080E00E94EB004FE1AB
S11308E052E060E081E00E94EB0080ED97E00E941E
S11308F01A0955C0CE0101960E947B030E94D307BA
S1130900892B99F00E94B70042E152E060E080E058
S11309100E94EB004FE152E060E081E00E94EB00B6
S113092080ED97E00E941A093AC00E94BE03182F76
S11309300E94B7001F3469F44EEC51E060E080E09F
S11309400E94EB004DE252E060E081E00E94EB0087
S11309500CC048E352E060E080E00E94EB004EE30C
S113096052E060E081E00E94EB0088EB9BE00E9493
S11309701A0915C08A3209F057CF0E94B7004BE418
S113098052E060E080E00E94EB0044E552E060E069
S113099081E00E94EB0080ED97E00E941A09CE549A
S11309A0DB4F0FB6F894DEBF0FBECDBFDF91CF9102
S11309B01F910F910895EF92FF920F931F93CF937E
S11309C0DF93CDB7DEB7A9970FB6F894DEBF0FBE9D
S11309D0CDBF83E4898386E58A830E94D307892B6C
S11309E099F00E94B70042E152E060E080E00E948A
S11309F0EB004FE152E060E081E00E94EB0080ED0B
S1130A0097E00E941A09D1C0BE016F5F7F4F82E058
S1130A1090E00E9466060E94D307892B99F00E94F9
S1130A20B70042E152E060E080E00E94EB004FE159
S1130A3052E060E081E00E94EB0080ED97E00E94CC
S1130A401A09B3C0BE016D5F7F4F83E090E00E943E
S1130A500E081E828B81833509F095C08C81863502
S1130A6009F091C00D81FE017A9680E1DF011D92AB
S1130A708A95E9F7003108F00FE00E94D307892B2B
S1130A8099F00E94B70042E152E060E080E00E94E9
S1130A90EB004FE152E060E081E00E94EB0080ED6A
S1130AA097E00E941A0981C010E07E01BAE1EB0EC2
S1130AB0F11CB701C8010E940E08F701E00FF11FF5
S1130AC01082F70101900020E9F73197EE19FF0930
S1130AD0E230F10544F17E0186E0E80EF11C82E586
S1130AE094E29F838E83D70112961C928F01025049
S1130AF01109A801BE01665E7F4FC7010E945C090F
S1130B00F70101900020E9F731978EE290E091839C
S1130B1080836AE170E06C0F7D1F600F711FC70155
S1130B200E9451091CC0319789F486E0EEE5F2E099
S1130B30DE01169601900D928A95E1F7BE01665E7C
S1130B407F4FCE0106960E94510909C087E0E4E672
S1130B50F2E0DE01169601900D928A95E1F70E946B
S1130B60B7004BE652E060E080E00E94EB00AE018B
S1130B704A5F5F4F60E081E00E94EB0088EB9BE0FE
S1130B800E941A0912C00E94B70048E752E060E0D0
S1130B9080E00E94EB0046E852E060E081E00E94C1
S1130BA0EB0088EB9BE00E941A09A9960FB6F89413
S1130BB0DEBF0FBECDBFDF91CF911F910F91FF908C
S1130BC0EF900895CF93DF9300D000D01F92CDB75C
S1130BD0DEB783E4898386E48A830E94D307892B62
S1130BE099F00E94B7004DE852E060E080E00E9476
S1130BF0EB0048E952E060E081E00E94EB0080ED08
S1130C0097E00E941A094BC0BE016F5F7F4F82E0DC
S1130C1090E00E9466060E94D307892B99F00E94F7
S1130C20B7004DE852E060E080E00E94EB0048E944
S1130C3052E060E081E00E94EB0080ED97E00E94CA
S1130C401A092DC0BE016D5F7F4F82E090E00E94C3
S1130C500E081D820E94B7008B81833581F48C813C
S1130C60863469F444EA52E060E080E00E94EB00DC
S1130C704BEA52E060E081E00E94EB000CC047EBDD
S1130C8052E060E080E00E94EB0049EC52E060E05A
S1130C9081E00E94EB0080ED97E00E941A090F901A
S1130CA00F900F900F900F90DF91CF9108951092B5
S1130CB0C50083E38093C4001092C00088E9809348
S1130CC0C10086E08093C20078940895EF92FF9269
S1130CD00F931F93CF93DF938C017B01C0E0D0E08F
S1130CE00FC08091C00085FFFCCFF701EC0FFD1F02
S1130CF080818093C60084E190E00E941A092196C5
S1130D00C017D10774F38091C00086FFFCCFE0ECDC
S1130D10F0E0808180648083DF91CF911F910F91F7
S1130D20FF90EF9008951F920F920FB60F92112427
S1130D302F933F934F935F936F937F938F939F93DF
S1130D40AF93BF93EF93FF93CF93DF9300D0CDB7CF
S1130D50DEB78091C60093E49983E091D8029FEFB7
S1130D609E0F953000F591E09E0F9093D802F0E02D
S1130D70E752FD4F8083963009F000C18091DD0277
S1130D80895091E08B3008F490E09093DF0288E47E
S1130D908A83BE016F5F7F4F82E090E00E94660607
S1130DA01092D802EBC09091D602992309F4BCC0EA
S1130DB09091D702933509F06EC0843569F481E0CF
S1130DC08093DF0284E58A83BE016F5F7F4F82E0F8
S1130DD090E00E946606A3C08C3459F41092DF029E
S1130DE08A83BE016F5F7F4F82E090E00E946606B7
S1130DF096C0883451F4E9EDF2E083E5808388E419
S1130E00818382E08093D8028AC02091E2023091EB
S1130E10E3022F5F3F4F2F773078332334F4215090
S1130E20310920683F6F2F5F3F4F4091E00250919E
S1130E30E1022417350759F0E091E202F091E30250
S1130E40EC51FD4F90833093E3022093E202209112
S1130E50E2023091E3022F5F3F4F2F773078332344
S1130E6034F42150310920683F6F2F5F3F4F409188
S1130E70E0025091E1022417350709F450C0E091D3
S1130E80E202F091E302EC51FD4F80833093E302E0
S1130E902093E20244C02091E2023091E3022F5FEA
S1130EA03F4F2F773078332334F4215031092068B1
S1130EB03F6F2F5F3F4F4091E0025091E1022417B2
S1130EC0350759F0E091E202F091E302EC51FD4F55
S1130ED090833093E3022093E2022091E202309166
S1130EE0E3022F5F3F4F2F773078332334F42150C0
S1130EF0310920683F6F2F5F3F4F4091E0025091CE
S1130F00E1022417350759F0E091E202F091E3027F
S1130F10EC51FD4F80833093E3022093E202109260
S1130F20D6021092D7022AC0833531F48093D702B7
S1130F3081E08093D60222C02091E2023091E30244
S1130F402F5F3F4F2F773078332334F4215031090A
S1130F5020683F6F2F5F3F4F4091E0025091E102C4
S1130F602417350759F0E091E202F091E302EC51C5
S1130F70FD4F80833093E3022093E2020F900F90A1
S1130F80DF91CF91FF91EF91BF91AF919F918F919D
S1130F907F916F915F914F913F912F910F900FBE71
S1130FA00F901F9018958091DF0290E00895409172
S1130FB0E2025091E3022091E0023091E10281E0EB
S1130FC04217530709F080E090E00895CF93DF9330
S1130FD0EC010E94D707892BE1F4E091E002F09143
S1130FE0E102EC51FD4F808188838091E002909171
S1130FF0E10201968F779078992324F40197806811
S11310009F6F01969093E1028093E00281E090E06B
S113101002C080E090E0DF91CF910895AF92BF923B
S1131020CF92DF92EF92FF920F931F93CF93DF93B0
S11310301F92CDB7DEB76C015B01E12CF12C00E00F
S113104010E019C0CE0101960E94E607892B51F0E9
S1131050F501E00FF11F898180830F5F1F4FE12CA1
S1131060F12C09C083EC99E00197F1F700C000006E
S11310709FEFE91AF90A0C151D0524F484E6E81615
S1131080F10404F3F501E00FF11F10820F90DF91DA
S1131090CF911F910F91FF90EF90DF90CF90BF9071
S11310A0AF90089584B1836084B98AB1806C8AB9A1
S11310B08AB1837C8AB98BB18C638BB90895CF9341
S11310C0DF9300D0CDB7DEB71A82198205C08981BB
S11310D09A8101969A83898389819A81883E934073
S11310E0B0F30F900F90DF91CF9108951F93CF939A
S11310F0DF93182FC0E0D0E012C00E945F0829B12E
S113110081E090E0012E02C0880F991F0A94E2F753
S11311108223D81302C0CF5F01C0C0E0D82FC730EC
S113112061F78D2FDF91CF911F910895CF9385B1F2
S1131130836085B98BB1806C8BB985B18D7F85B99E
S113114085E00E947608882311F0C0E001C0C1E365
S113115084E00E947608811101C0C2E383E00E940A
S11311607608811101C0C3E382E00E9476088111F0
S113117001C0C1E485B1826085B985B18E7F85B92E
S113118085E00E947608811101C0C4E384E00E94D6
S11311907608811101C0C5E383E00E9476088111BD
S11311A001C0C6E382E00E947608811101C0C2E456
S11311B085B1816085B98BB18F778BB985E00E9449
S11311C07608811101C0C7E384E00E94760881118A
S11311D001C0C8E383E00E947608811101C0C9E31D
S11311E082E00E947608811101C0C3E48BB180685B
S11311F08BB98BB18F7B8BB985E00E947608811106
S113120001C0CAE284E00E947608811101C0C0E3F3
S113121083E00E947608811101C0C3E282E00E944B
S11312207608811101C0C4E48BB180648BB98C2F22
S1131230CF910895AC0114BC85E085BD10926E0079
S113124081EF86BD20E030E008C0A99BFECF91EF7E
S113125096BD92E095BB2F5F3F4F24173507ACF343
S113126015BC0895AC0114BC81E085BD10926E00DC
S113127085EF86BD20E030E009C0A99BFECF95EF45
S113128096BD95B3926095BB2F5F3F4F24173507EA
S1131290A4F315BC0895EE0FFF1F0590F491E02D03
S11312A00994FB01DC010D900020E9F711970190EE
S11312B00D920020E1F70895FB01DC010D90002060
S11312C0E9F711974150504028F0019000200D9209
S11312D0C9F708951C920895FB01DC014150504068
S11312E048F001900D920020C9F701C01D924150B1
S11312F05040E0F70895FB0151915523A9F0BF0137
S1131300DC014D9145174111E1F759F4CD010190EC
S1131310002049F04D9140154111C9F3FB014111E1
S1111320EFCF81E090E001970895F894FFCF9D
S113132E42414E52495546524753004F204D454C6B
S113133E484F522042414E434F0044494749544579
S113134E2023205041524100494E534552495220C8
S113135E43415254414F0044696769746520636F79
S113136E6469676F3A005F5F5F5F5F5F0044696740
S113137E6974652073656E68613A004167756172C0
S113138E64652E2E2E004E616F206175746F726926
S113139E7A61646F0020202020464F524120204461
S11313AE4500202020204F5045524143414F0042DA
S11313BE454D2056494E444F284129210050524F45
S11313CE43455353414E444F2E2E2E00434F4E54FD
S11313DE4120494E56414C494441210054454E54F6
S11313EE45204E4F56414D454E544500312D5361C7
S11313FE71756500322D506167616D656E746F0095
S113140E564F4C54414E444F2E2E2E00456D2064A3
S113141E6573656E766F6C76696D656E746F005666
S113142E616C6F7220646F2073617175653A00523E
S113143E24004F502043414E43454C4144410053F8
S113144E495354454D4120424C4F512E0052656133
S113145E6C697A61646F210053616C646F00696E0C
S113146E737566696369656E7465004F7065726144
S113147E63616F0063616E63656C61646100522425
S113148E302E30005224302E30300053616C646F95
S113149E20617475616C3A004572726F20616F2021
S11314AE6F627465720073616C646F2100534553EF
S11314BE53414F204E414F0046494E414C495A41EB
S11314CE4441210053657373616F0046696E616C0C
S11314DE697A61646121004572726F20616F2066C2
S11314EE696E616C697A61720073657373616F21E1
S10514FE0000E8
S9030000FC
