S010000050726F6A65746F312E7372656300
S11300000C943E000C945B000C945B000C945B001D
S11300100C945B000C945B000C945B000C945B00F0
S11300200C945B000C945B000C945B000C945E02DB
S11300300C945B000C945B000C945B000C945B00D0
S11300400C945B000C945B000C94BD0B0C945B0053
S11300500C945B000C945B000C945B000C945B00B0
S11300600C945B000C945B008A039F03AC03B903FC
S1130070EC039604BA04C504D004DB0411241FBEA7
S1130080CFEFD8E0DEBFCDBF13E0A0E0B1E0ECE9F4
S1130090FEE102C005900D92AA38B107D9F724E019
S11300A0AAE8B3E001C01D92A932B207E1F70E94A9
S11300B033030C944C0F0C9400000E94A90048E0F8
S11300C051E061E080E00E94DD0048E151E065E03C
S11300D081E00E94DD000895CF93C82F88B1807F0E
S11300E09C2F92959F70892B88B988B18F7D88B990
S11300F088B1806188B988B18F7E88B984E690E040
S11301000E94790E88B1807FCF70C82BC8B988B19E
S1130110806188B988B18F7E88B982E090E00E94BE
S1130120610ECF9108958FEF87B98AE090E00E9425
S1130130610E82E00E946C0088E20E946C008CE0F8
S11301400E946C0086E00E946C0081E00E946C00BA
S1130150089581E00E946C0080E80E946C0008957C
S1130160CF93DF93EC0123C098B1907F82958F7079
S1130170892B88B988B1806288B988B1806188B9CF
S113018088B18F7E88B988EC90E00E94790E98B18E
S11301908991907F8F70892B88B988B1806188B9E3
S11301A088B18F7E88B982E090E00E94610E8881D8
S11301B08111DACFDF91CF910895CF93DF93EA01D4
S11301C0811108C0603130F4862F8F7080680E94DE
S11301D06C0009C0813039F4603128F4862F8F70A7
S11301E0806C0E946C00CE010E94B00080E80E94E6
S11301F06C00DF91CF910895EF92FF920F931F93BC
S1130200CF93DF9300D0CDB7DEB77C010E94A90065
S11302104EE151E060E080E00E94DD004DE251E0FB
S113022060E081E00E94DD0000E010E01DC00E945B
S11302307B0B81111EC00E94BD0D90ED980F9A306A
S113024098F4F701E00FF11F808389831A82AE01CD
S11302504F5F5F4F602F81E00E94DD000F5F1F4FF3
S113026088EC90E00E94610E0630110504F3F7015A
S113027016820F900F90DF91CF911F910F91FF90F5
S1130280EF900895EF92FF920F931F93CF93DF9314
S113029000D0CDB7DEB77C010E94A90044E351E051
S11302A060E080E00E94DD004DE251E060E081E02A
S11302B00E94DD0000E010E01EC00E947B0B811153
S11302C01FC00E94BD0D90ED980F9A30A0F4F70165
S11302D0E00FF11F80838AE289831A82AE014F5FA7
S11302E05F4F602F81E00E94DD000F5F1F4F88EC9D
S11302F090E00E94610E06301105FCF2F7011682AF
S11303000F900F90DF91CF911F910F91FF90EF907D
S11303100895EF92FF920F931F93CF93DF93CDB77E
S1130320DEB7AE970FB6F894DEBF0FBECDBFDC01CB
S11303300D900020E9F71197A81BB90B169709F047
S11303406BC0DB010D900020E9F71197A61BB70BDA
S1130350169709F064C07B018C0146E050E08AE8FE
S113036093E00E940E0F1092900383E4898385E446
S11303708A8386E0F801DE01139601900D928A9536
S1130380E1F786E0F701DE01199601900D928A9556
S1130390E1F7BE016F5F7F4F8EE090E00E94900B0B
S11303A0BE01615F7F4F80E2DB011D928A95E9F710
S11303B08FE190E00E942E0D0E94A90042E451E0DA
S11303C063E080E00E94DD0088EE93E00E94610E0D
S11303D00E94A9008F858335A9F48889853491F416
S11303E06DE471E0CE010F960E941D0F892BD1F0B0
S11303F087E0EAE8F3E0DF011D928A95E9F780E0FF
S113040090E012C087E0EAE8F3E0DF011D928A95EC
S1130410E9F780E090E008C080E090E005C080E06B
S113042090E002C081E090E0AE960FB6F894DEBF93
S11304300FBECDBFDF91CF911F910F91FF90EF9031
S113044008958AE893E0089584B1806184B985B100
S11304508F7E85B9109280008BE0809381008AEFB3
S113046090E090938900809388000895EFE6F0E08F
S113047080818D7F808385B18F7E85B910929203B0
S11304801092930310929403109295031092960382
S11304900895CF93DF9300D0CDB7DEB783E489838B
S11304A08FE48A83BE016F5F7F4F82E090E00E94F9
S11304B0900B0F900F90DF91CF9108951F920F92A0
S11304C00FB60F9211242F933F934F935F936F9323
S11304D07F938F939F93AF93BF93EF93FF938091F9
S11304E0930390919403A0919503B0919603019680
S11304F0A11DB11D8093930390939403A09395033E
S1130500B09396038091930390919403A0919503E3
S1130510B091960380359644A105B105A0F1809170
S1130520930390919403A0919503B0919603803323
S11305309547A105B10538F581E080939203609158
S113054093037091940380919503909196032AEFFD
S113055030E040E050E00E94920E672B682B692B3C
S113056091F49091910381E0911180E08093910343
S113057080919103882321F085B1806185B903C0FE
S113058085B18F7E85B98091930390919403A09156
S11305909503B091960380339547A105B105A0F06A
S11305A00E9449020E94190B109293031092940323
S11305B010929503109296031092920385B18F7E48
S11305C085B981E00E947E0BFF91EF91BF91AF91BD
S11305D09F918F917F916F915F914F913F912F9157
S11305E00F900FBE0F901F901895109293031092C6
S11305F0940310929503109296031092920385B17E
S11306008F7E85B90895EFE6F0E080818260808373
S11306100E94F50208950E94A9004CE551E064E0AF
S113062080E00E94DD0045E651E064E081E00E9444
S1130630DD0012C080919703882351F066EA73E0CD
S113064082E090E00E94900B109297030E94F502C2
S113065088EC90E00E94610E0E947B0B8111EACF2E
S11306600E94A9000895CF93DF93CDB7DEB76697B4
S11306700FB6F894DEBF0FBECDBF0E94790D0E9465
S113068093000E94810B0E942402789488E0E0E0A9
S1130690F1E0DE011F9601900D928A95E1F700E0EA
S11306A017C001E015C002E013C003E011C006E06A
S11306B00FC000E00DC007E00BC008E009C004E073
S11306C007C004E005C004E003C004E001C004E086
S11306D080919703882351F066EA73E082E090E00A
S11306E00E94900B109297030E94F5020E947B0BCC
S11306F0882331F00E9436020E940B0300E0E8CF09
S1130700802F90E08A30910518F7FC01EC5CFF4FD4
S11307100C94B40E0E9436020E94A9000E945D004F
S113072004C00E947B0B811104C00E94BD0D88236C
S1130730C1F30E947B0B882309F4B3CFC9CF0E9475
S11307400303CE0101960E94FC000E947B0B8823C8
S113075009F4A9CF00E0BCCF0E940303CE010896A0
S11307600E9442010E947B0B882309F49ECF00E083
S1130770AFCF0E940303BE01685F7F4FCE01019695
S11307800E948901892BA1F00E94A9004EE651E044
S113079060E080E00E94DD004CE751E060E081E031
S11307A00E94DD0080ED97E00E94610E04E090CF8E
S11307B00E94A9004BE851E060E080E00E94DD0067
S11307C04BE951E060E081E00E94DD0080ED97E0BC
S11307D00E94610E00E07CCF0E9403030E94A900E6
S11307E04BEA51E060E080E00E94DD0043EB51E021
S11307F060E081E00E94DD00E12CF12C0E947B0B83
S1130800811166CF0E94BD0D182F8823B9F30E9471
S1130810F5028CE291E00E94610E1234C1F582E08F
S1130820E816F1045CF767019FEFC91AD90A0E9420
S1130830A900F601EE0FFF1F81E090E08C0F9D1FD1
S1130840E80FF91F4685578560E080E00E94DD00CF
S113085092E0E90EF11C84E0E816F10484F4EE0C55
S1130860FF1CE1E0F0E0EC0FFD1FEE0DFF1D4685DF
S1130870578560E081E00E94DD007601BFCF4FEB39
S113088051E060E081E00E94DD007601B7CF1134D1
S113089049F51E141F040CF0B1CF670191E0C91A89
S11308A0D1080E94A900F601EE0FFF1F81E090E03D
S11308B08C0F9D1FE80FF91F4685578560E080E087
S11308C00E94DD00EE0CFF1CE1E0F0E0EC0FFD1FE8
S11308D0EE0DFF1D4685578560E081E00E94DD0036
S11308E076018CCF1A3271F40E94A90041EC51E0D8
S11308F060E080E00E94DD0088EE93E00E94610EDB
S113090000E0E6CE123351F020F4113309F4CFCED7
S1130910DFCE133329F0143329F0DACE05E0D8CE34
S113092009E0D6CE0E94190B00E0D2CE0E94030348
S11309300E94A9004DEC51E060E080E00E94DD00DF
S11309404BED51E060E081E00E94DD000E947B0BF2
S11309508111AFCE0E94BD0D813309F4ACCE823338
S113096009F4ABCE8A3209F4AACE84E690E00E9460
S1130970610EECCF0E9403030E9449060E947B0B88
S1130980882309F49ECE00E0A3CE0E9403030E94B4
S11309906A090E947B0B882309F495CE00E098CE67
S11309A00E9403030E949A080E947B0B882309F487
S11309B08CCE00E08DCE0E9403030E9478070E9433
S11309C07B0B882309F483CE00E082CECF92DF92A2
S11309D0EF92FF921F93CF93DF93CDB7DEB72797A4
S11309E00FB6F894DEBF0FBECDBF6C01FE01319689
S11309F087E0DF011D928A95E9F70E94A9004DEF77
S1130A0051E060E080E00E94DD004DE251E060E0F2
S1130A1081E00E94DD00E12CF12C0E947B0B182F59
S1130A208823A1F00E94A9004FE052E060E080E03A
S1130A300E94DD004CE152E060E081E00E94DD00B4
S1130A4080ED97E00E94610E10E071C00E94BD0D20
S1130A5090ED980F9A30C8F4B6E0EB16F104ACF4BC
S1130A60E1E0F0E0EC0FFD1FEE0DFF1D80834AE294
S1130A7052E06E2D81E00E94DD008FEFE81AF80A43
S1130A8088EC90E00E94610EC8CF8332C9F5E1E0A2
S1130A90F0E0EC0FFD1FEE0DFF1D1082B601CE013C
S1130AA001960E94F50E892B09F440C00E94A9000A
S1130AB04CE252E060E080E00E94DD004DE352E051
S1130AC060E081E00E94DD0080ED97E00E94610E0D
S1130AD00E94A9004DEF51E060E080E00E94DD003B
S1130AE04DE251E060E081E00E94DD00FE013196BC
S1130AF087E0DF011D928A95E9F7E12CF12C8DCF77
S1130B008A3209F08ACF0E94A9004DE452E060E0E5
S1130B1080E00E94DD0046E552E060E081E00E9452
S1130B20DD0080ED97E00E94610E01C011E0812F8D
S1130B3027960FB6F894DEBF0FBECDBFDF91CF91DD
S1130B401F91FF90EF90DF90CF9008950E94A9002D
S1130B5040E652E060E080E00E94DD0044E752E0BD
S1130B6060E081E00E94DD000E947B0B882399F005
S1130B700E94A9004FE052E060E080E00E94DD00A6
S1130B804CE152E060E081E00E94DD0080ED97E0FE
S1130B900E94610E08950E94BD0D813399F40E9454
S1130BA0A90040E852E060E080E00E94DD004FE8E8
S1130BB052E060E081E00E94DD0080ED97E00E9459
S1130BC0610E0895823381F60895CF92DF92EF92F9
S1130BD0FF920F931F93CF93DF93CDB7DEB7BC0182
S1130BE0EDB6FEB6FC0101900020E9F73197AF01A4
S1130BF0481B590B6A0183E0C80ED11CEDB7FEB740
S1130C00EC19FD090FB6F894FEBF0FBEEDBF0DB78A
S1130C101EB70F5F1F4F83E4818383E5F80181834F
S1130C2042838DB79EB704960E94E10EB801C601B7
S1130C300E94900B0FB6F894FEBE0FBEEDBEDF917E
S1130C40CF911F910F91FF90EF90DF90CF90089577
S1130C50CF93DF9300D000D01F92CDB7DEB7BE0193
S1130C606F5F7F4F83E090E00E942E0D8981833572
S1130C7029F48A81833521F48B8103C085E401C082
S1130C8085E40F900F900F900F900F90DF91CF910C
S1130C9008950F931F93CF93DF93CDB7DEB72997B2
S1130CA00FB6F894DEBF0FBECDBFFE01319687E0CC
S1130CB0DF011D928A95E9F70E94A9004FE952E0ED
S1130CC060E080E00E94DD004FEA52E060E081E0F5
S1130CD00E94DD0000E010E00E947B0B882399F065
S1130CE00E94A9004FE052E060E080E00E94DD0035
S1130CF04CE152E060E081E00E94DD0080ED97E08D
S1130D000E94610EEAC00E94BD0D90ED980F9A30CA
S1130D10D8F406301105C4F4E1E0F0E0EC0FFD1F57
S1130D20E00FF11F80838887198662E0600FAE01AF
S1130D30485F5F4F81E00E94DD000F5F1F4F88EC2A
S1130D4090E00E94610EC8CF833209F0B1C0101642
S1130D5011060CF0ADC0E1E0F0E0EC0FFD1FE00F78
S1130D60F11F10820E947B0B882399F00E94A90036
S1130D704FE052E060E080E00E94DD004CE152E090
S1130D8060E081E00E94DD0080ED97E00E94610E4A
S1130D90A4C0CE0101960E94BA0E613C744D8140FC
S1130DA0910554F10E94A90042EB52E060E080E01A
S1130DB00E94DD0040EC52E060E081E00E94DD0032
S1130DC080ED97E00E94610E0E94A9004FE952E075
S1130DD060E080E00E94DD004FEA52E060E081E0E4
S1130DE00E94DD00FE01319687E0DF011D928A95A5
S1130DF0E9F700E010E070CF0E9421020E94E604AF
S1130E00882309F46AC0CE0101960E94E5050E9478
S1130E107B0B882399F00E94A9004FE052E060E028
S1130E2080E00E94DD004CE152E060E081E00E943D
S1130E30DD0080ED97E00E94610E4FC00E942806FD
S1130E40182F0E94A9001F3499F44DEA51E060E084
S1130E5080E00E94DD004BEC52E060E081E00E9403
S1130E60DD0080ED97E00E94610E0E94A6051BC084
S1130E70193469F440EF51E060E080E00E94DD0045
S1130E8046ED52E060E081E00E94DD000CC043EEDC
S1130E9052E060E080E00E94DD004BEE52E060E052
S1130EA081E00E94DD0088EB9BE00E94610E15C08A
S1130EB08A3209F011CF0E94A9004DE452E060E0AB
S1130EC080E00E94DD0046E552E060E081E00E949F
S1130ED0DD0080ED97E00E94610E29960FB6F8942C
S1130EE0DEBF0FBECDBFDF91CF911F910F9108954B
S1130EF0EF92FF920F931F93CF93DF93CDB7DEB79B
S1130F00A9970FB6F894DEBF0FBECDBF0E94210291
S1130F100E94E604811113C00E94A9004DE452E02E
S1130F2060E080E00E94DD0046E552E060E081E0A0
S1130F300E94DD0080ED97E00E94610EEEC083E424
S1130F40898386E58A830E947B0B882399F00E941B
S1130F50A9004FE052E060E080E00E94DD004CE137
S1130F6052E060E081E00E94DD0080ED97E00E94A5
S1130F70610ED3C0BE016F5F7F4F82E090E00E949C
S1130F80900B0E947B0B882399F00E94A9004FE0EC
S1130F9052E060E080E00E94DD004CE152E060E05D
S1130FA081E00E94DD0080ED97E00E94610EB5C0F3
S1130FB0BE016D5F7F4F83E090E00E942E0D1E8284
S1130FC08B81833509F097C08C81863509F093C0F5
S1130FD00D81FE017A9680E1DF011D928A95E9F781
S1130FE0003108F00FE00E947B0B882399F00E94E7
S1130FF0A9004FE052E060E080E00E94DD004CE197
S113100052E060E081E00E94DD0080ED97E00E9404
S1131010610E83C010E07E01BAE1EB0EF11CB70152
S1131020C8010E942E0DF701E00FF11F1082F70195
S113103001900020E9F73197EE19FF09E230F1053C
S113104044F17E0186E0E80EF11C82E594E29F8380
S11310508E83D70112961C928F0102501109A801A8
S1131060BE01665E7F4FC7010E94FE0EF70101902C
S11310700020E9F731978EE290E0918380836AE162
S113108070E06C0F7D1F600F711FC7010E94EA0E94
S11310901CC0319789F486E0E4EFF2E0DE01169695
S11310A001900D928A95E1F7BE01665E7F4FCE01F5
S11310B006960E94EA0E09C087E0EAEFF2E0DE013C
S11310C0169601900D928A95E1F70E94A90041E0DD
S11310D053E060E080E00E94DD00AE014A5F5F4FB4
S11310E060E081E00E94DD0088EB9BE00E94610EDD
S11310F00E94A60512C00E94A9004EE053E060E0E1
S113110080E00E94DD004CE153E060E081E00E9459
S1131110DD0088EB9BE00E94610EA9960FB6F8945F
S1131120DEBF0FBECDBFDF91CF911F910F91FF9016
S1131130EF9008950E94A90043E253E060E080E04C
S11311400E94DD004FE852E060E081E00E94DD0093
S113115080ED97E00E94610E0E947B0B882391F042
S11311600E94A9004FE052E060E080E00E94DD00B0
S11311704CE152E060E081E00E94DD0080ED97E008
S11311800E94610E08952F923F924F925F926F9248
S11311907F928F929F92AF92BF92CF92DF92EF9203
S11311A0FF920F931F93CF93DF93CDB7DEB7FC016C
S11311B04B013A012DB63EB6DC010D900020E9F753
S11311C011978D01081B190BDB010D900020E9F725
S11311D011977D01E61AF70ADA010D900020E9F76C
S11311E011976D01C41AD50A98012E0D3F1D2C0DBF
S11311F03D1D290183E0480E511CADB7BEB7A419AB
S1131200B5090FB6F894BEBF0FBEADBF8DB79EB77C
S113121001965C0183E411968C9380E5D5011196C7
S11312208C93119712962C938DB79EB70496A801B0
S1131230BF010E94E10E0D5F1F4FA701B401C5015C
S1131240800F911F0E94E10EC701800F911FA6011C
S1131250B3018A0D9B1D0E94E10EB501C2010E94DB
S1131260900B0FB6F8943EBE0FBE2DBEDF91CF910A
S11312701F910F91FF90EF90DF90CF90BF90AF90B0
S11312809F908F907F906F905F904F903F902F90A2
S11312900895CF93DF9300D000D01F92CDB7DEB76F
S11312A0BE016F5F7F4F83E090E00E942E0D898125
S11312B0833529F48A81803521F48B8103C085E448
S11312C001C085E40F900F900F900F900F90DF9165
S11312D0CF9108950F931F93CF93DF93CDB7DEB7CC
S11312E062970FB6F894DEBF0FBECDBF19821A8283
S11312F01B821C82FE01359685E0DF011D928A95D2
S1131300E9F7359687E0DF011D928A95E9F70E9497
S1131310A9004EE253E060E080E00E94DD0040E37B
S113132051E060E081E00E94DD0000E010E049C08F
S11313300E947B0B882399F00E94A9004FE052E0A1
S113134060E080E00E94DD004CE152E060E081E07A
S11313500E94DD0080ED97E00E94610E5FC10E9453
S1131360BD0D90ED980F9A30B8F4E1E0F0E0EC0F89
S1131370FD1FE00FF11F8083898B1A8AAE014F5E37
S11313805F4F602F81E00E94DD000F5F1F4F88ECEC
S113139090E00E94610E15C08A3299F40E94A9005F
S11313A04DE452E060E080E00E94DD0046E552E05A
S11313B060E081E00E94DD0080ED97E00E94610E14
S11313C02DC1033011050CF4B3CF1C820E94A90077
S11313D04EE353E060E080E00E94DD004FE251E024
S11313E060E081E00E94DD0000E010E049C00E945E
S11313F07B0B882399F00E94A9004FE052E060E043
S113140080E00E94DD004CE152E060E081E00E9457
S1131410DD0080ED97E00E94610E00C10E94BD0DC9
S113142090ED980F9A30B8F4E5E0F0E0EC0FFD1F72
S1131430E00FF11F8083898B1A8AAE014F5E5F4FE4
S1131440602F81E00E94DD000F5F1F4F88EC90E069
S11314500E94610E15C08A3299F40E94A9004DE4DD
S113146052E060E080E00E94DD0046E552E060E08A
S113147081E00E94DD0080ED97E00E94610ECEC005
S1131480043011050CF4B3CF19860E94A90041E57C
S113149053E060E080E00E94DD004FEA52E060E04B
S11314A081E00E94DD0000E010E00E947B0B8823B5
S11314B099F00E94A9004FE052E060E080E00E94B1
S11314C0DD004CE152E060E081E00E94DD0080ED4F
S11314D097E00E94610EA2C00E94BD0D90ED980F8E
S11314E09A30D8F406301105C4F4EAE0F0E0EC0FC9
S11314F0FD1FE00FF11F8083898B1A8A62E0600F61
S1131500AE014F5E5F4F81E00E94DD000F5F1F4F11
S113151088EC90E00E94610EC8CF833209F069C064
S1131520EAE0F0E0EC0FFD1FE00FF11F10820E94D3
S113153021020E94E604882309F470C0AE01465FCC
S11315405F4FBE016B5F7F4FCE0101960E94C308BF
S11315500E947B0B882399F00E94A9004FE052E07F
S113156060E080E00E94DD004CE152E060E081E058
S11315700E94DD0080ED97E00E94610E4FC00E9442
S11315804909182F0E94A9001F3499F445EB51E032
S113159060E080E00E94DD004BEC52E060E081E01E
S11315A00E94DD0080ED97E00E94610E0E94A60576
S11315B01BC0193469F440EF51E060E080E00E9400
S11315C0DD0046ED52E060E081E00E94DD000CC0E9
S11315D043EE52E060E080E00E94DD004BEE52E01A
S11315E060E081E00E94DD0088EB9BE00E94610ED8
S11315F015C08A3209F059CF0E94A9004DE452E087
S113160060E080E00E94DD0046E552E060E081E0B9
S11316100E94DD0080ED97E00E94610E62960FB695
S1131620F894DEBF0FBECDBFDF91CF911F910F9114
S11316300895CF93DF9300D000D01F92CDB7DEB7CB
S113164083E4898386E48A830E947B0B882399F050
S11316500E94A90040E653E060E080E00E94DD00C3
S11316604BE653E060E081E00E94DD0080ED97E00E
S11316700E94610E38C0BE016F5F7F4F82E090E030
S11316800E94900B0E947B0B882399F00E94A90072
S113169040E653E060E080E00E94DD004BE653E06A
S11316A060E081E00E94DD0080ED97E00E94610E21
S11316B01AC0BE016D5F7F4F82E090E00E942E0D44
S11316C01D820E94A90047E753E060E080E00E9489
S11316D0DD004EE753E060E081E00E94DD0080ED34
S11316E097E00E94610E0F900F900F900F900F9053
S11316F0DF91CF9108958091A10308958093A10370
S113170008951092C50083E38093C4001092C00032
S113171088E98093C10086E08093C200789408959C
S1131720EF92FF920F931F93CF93DF938C017B0172
S1131730C0E0D0E00FC08091C00085FFFCCFF7016E
S1131740EC0FFD1F80818093C60084E190E00E942D
S1131750610E2196C017D10774F38091C00086FFF3
S1131760FCCFE0ECF0E0808180648083DF91CF9156
S11317701F910F91FF90EF9008951F920F920FB653
S11317800F9211242F933F934F935F936F937F9303
S11317908F939F93AF93BF93EF93FF938091C60072
S11317A0E0919A039FEF9E0F953008F591E09E0F0C
S11317B090939A03F0E0E556FC4F8083963009F04D
S11317C005C190919F03985081E09C3008F480E01B
S11317D00E947E0BE6EAF3E083E4808388E481835D
S11317E0128281E08093970310929A03EFC0909144
S11317F09803992309F4C0C090919903933509F093
S113180072C0843571F481E00E947E0BE6EAF3E055
S113181083E4808384E58183128281E0809397034B
S1131820A6C08C3471F480E00E947E0BE6EAF3E0FB
S113183083E480838CE48183128281E08093970324
S113184096C0883451F4EBE9F3E083E5808388E4BF
S1131850818382E080939A038AC02091A40330910B
S1131860A5032F5F3F4F2F773078332334F4215073
S1131870310920683F6F2F5F3F4F4091A203509181
S1131880A3032417350759F0E091A403F091A503AD
S1131890E755FC4F90833093A5032093A403209134
S11318A0A4033091A5032F5F3F4F2F773078332364
S11318B034F42150310920683F6F2F5F3F4F40912E
S11318C0A2035091A3032417350709F450C0E091F3
S11318D0A403F091A503E755FC4F80833093A5033F
S11318E02093A40344C02091A4033091A5032F5F47
S11318F03F4F2F773078332334F421503109206857
S11319003F6F2F5F3F4F4091A2035091A3032417D1
S1131910350759F0E091A403F091A503E755FC4F76
S113192090833093A5032093A4032091A4033091C2
S1131930A5032F5F3F4F2F773078332334F42150A2
S1131940310920683F6F2F5F3F4F4091A2035091B0
S1131950A3032417350759F0E091A403F091A503DC
S1131960E755FC4F80833093A5032093A403109282
S11319709803109299032AC0833531F48093990314
S113198081E08093980322C02091A4033091A503A1
S11319902F5F3F4F2F773078332334F421503109B0
S11319A020683F6F2F5F3F4F4091A2035091A303E4
S11319B02417350759F0E091A403F091A503E755E6
S11319C0FC4F80833093A5032093A403FF91EF91F0
S11319D0BF91AF919F918F917F916F915F914F9143
S11319E03F912F910F900FBE0F901F90189540912B
S11319F0A4035091A5032091A2033091A30381E095
S1131A004217530709F080E090E00895CF93DF93E5
S1131A10EC010E94F70C892BE1F4E091A203F09110
S1131A20A303E755FC4F808188838091A2039091A2
S1131A30A30301968F779078992324F40197806803
S1131A409F6F01969093A3038093A20381E090E09B
S1131A5002C080E090E0DF91CF910895AF92BF92F1
S1131A60CF92DF92EF92FF920F931F93CF93DF9366
S1131A701F92CDB7DEB76C015B01E12CF12C00E0C5
S1131A8010E020C080919703882329F08AE090E039
S1131A900E94610E17C0CE0101960E94060D892B8B
S1131AA051F0F501E00FF11F898180830F5F1F4F13
S1131AB0E12CF12C07C08AE090E00E94610E8FEFC8
S1131AC0E81AF80A0C151D0524F484E6E816F10456
S1131AD0CCF2F501E00FF11F10820F90DF91CF914E
S1131AE01F910F91FF90EF90DF90CF90BF90AF9038
S1131AF0089584B1836084B98AB1806C8AB98AB14B
S1131B00837C8AB98BB18C638BB90895CF93DF93AF
S1131B1000D0CDB7DEB71A82198205C089819A81B7
S1131B2001969A83898389819A81883E9340B0F390
S1131B300F900F90DF91CF9108951F93CF93DF9370
S1131B40182FC0E0D0E012C00E94860D29B181E0B8
S1131B5090E0012E02C0880F991F0A94E2F78223B5
S1131B60D81302C0CF5F01C0C0E0D82FC73061F7DF
S1131B708D2FDF91CF911F910895CF9385B183600D
S1131B8085B98BB1806C8BB985B18D7F85B985E0C2
S1131B900E949D0D811104C00E94F502C1E301C0A1
S1131BA0C0E084E00E949D0D811103C00E94F502F3
S1131BB0C2E383E00E949D0D811103C00E94F502DF
S1131BC0C3E382E00E949D0D811103C00E94F502CF
S1131BD0C1E485B1826085B985B18E7F85B985E020
S1131BE00E949D0D811103C00E94F502C4E384E0AC
S1131BF00E949D0D811103C00E94F502C5E383E09C
S1131C000E949D0D811103C00E94F502C6E382E08B
S1131C100E949D0D811103C00E94F502C2E485B1AA
S1131C20816085B98BB18F778BB985E00E949D0D5A
S1131C30811103C00E94F502C7E384E00E949D0D58
S1131C40811103C00E94F502C8E383E00E949D0D48
S1131C50811103C00E94F502C9E382E00E949D0D38
S1131C60811103C00E94F502C3E48BB180688BB973
S1131C708BB18F7B8BB985E00E949D0D811103C0D0
S1131C800E94F502CAE284E00E949D0D811103C006
S1131C900E94F502C0E383E00E949D0D811103C000
S1131CA00E94F502C3E282E00E949D0D811103C0EF
S1131CB00E94F502C4E48BB180648BB98C2FCF9160
S1131CC00895AC0114BC85E085BD10926E0081EFCF
S1131CD086BD20E030E008C0A99BFECF91EF96BD01
S1131CE092E095BB2F5F3F4F24173507ACF315BC2B
S1131CF00895AC0114BC81E085BD10926E0085EF9F
S1131D0086BD20E030E009C0A99BFECF95EF96BDCB
S1131D1095B3926095BB2F5F3F4F24173507A4F30B
S1131D2015BC0895A1E21A2EAA1BBB1BFD010DC010
S1131D30AA1FBB1FEE1FFF1FA217B307E407F50777
S1131D4020F0A21BB30BE40BF50B661F771F881F53
S1131D50991F1A9469F760957095809590959B01E9
S1131D60AC01BD01CF010895EE0FFF1F0590F49162
S1131D70E02D09941F93FC0199278827BC01E8945E
S1131D8011911032E9F3193010F01E30C8F31B32F0
S1131D9051F01D3249F4689406C00E94370F610F58
S1131DA0711D811D911D119110531A30B0F33EF431
S1131DB090958095709561957F4F8F4F9F4F1F91A0
S1131DC00895FB01DC0102C001900D924150504086
S1131DD0D8F70895FB01DC010D900020E9F7119775
S1131DE001900D920020E1F70895FB01DC018D9133
S1131DF0019080190110D9F3990B0895FB01DC01BE
S1131E000D900020E9F711974150504028F00190BF
S1131E1000200D92C9F708951C920895FB01DC017E
S1131E204150504048F001900D920020C9F701C084
S1131E301D9241505040E0F70895FB015191552304
S1131E40A9F0BF01DC014D9145174111E1F759F4A7
S1131E50CD010190002049F04D9140154111C9F385
S1131E60FB014111EFCF81E090E001970895592FD4
S1131E70482F372F262F660F771F881F991F660F4D
S1131E80771F881F991F620F731F841F951F660F8A
S10F1E90771F881F991F0895F894FFCF56
S1131E9CAB01B301EE01F6014449474954452051C5
S1131EAC55414C51554552005445434C41004469ED
S1131EBC6769746520636F6469676F3A005F5F5F7D
S1131ECC5F5F5F004469676974652073656E686160
S1131EDC3A00416775617264652E2E2E004E616F57
S1131EEC206175746F72697A61646F00464F524158
S1131EFC20204445004F5045524143414F00424538
S1131F0C4D2056494E444F284129210050524F43ED
S1131F1C455353414E444F2E2E2E00434F4E5441A5
S1131F2C20494E56414C494441210054454E544598
S1131F3C204E4F56414D454E544500312D53617141
S1131F4C756500322D506167616D656E746F00208C
S1131F5C00564F4C54414E444F2E2E2E00312D4DD5
S1131F6C616E75616C6D656E746500322D436F64C2
S1131F7C69676F2064652062617272617300332D2E
S1131F8C53616C646F00342D5361697200436F6E3E
S1131F9C6669726D6520612073656E68613A004FE5
S1131FAC502043414E43454C414441005349535402
S1131FBC454D4120424C4F512E002A0053656E680A
S1131FCC6120696E636F7272657461210054656E71
S1131FDC7465206E6F76616D656E7465004F706507
S1131FEC726163616F0063616E63656C616461004F
S1131FFC446573656A6120636F6D70726F76616E90
S113200C74653F00312D53696D20322D4E616F0084
S113201C436F6D70726F76616E746520656D0064CC
S113202C6573656E766F6C76696D656E746F00564C
S113203C616C6F7220646F2073617175653A005224
S113204C24004C696D697465206D6178696D6F004D
S113205C522420313230302C3030005265616C699E
S113206C7A61646F2100696E737566696369656E64
S113207C7465004572726F206E61006F70657261D9
S113208C63616F005224302E30005224302E3030D5
S113209C0053616C646F20617475616C3A00457215
S11320AC726F20616F206F627465720073616C646F
S11320BC6F2100426172636F646520656D0042613B
S11320CC6E636F202833206469672E293A00436FAE
S11320DC6E76656E696F202834206469672E293A00
S11320EC0056616C6F7220646F207061672E3A0029
S11320FC53455353414F204E414F0046494E414C9A
S113210C495A414441210053657373616F00466918
S10D211C6E616C697A616461210050
S9030000FC
