:100000000C943C000C9459000C9459000C94590029
:100010000C9459000C9459000C9459000C945900FC
:100020000C9459000C9459000C9459000C945900EC
:100030000C9459000C9459000C9459000C945900DC
:100040000C9459000C9459000C94DA050C94590046
:100050000C9459000C9459000C9459000C945900BC
:100060000C9459000C945900D902EB02F402FD02E1
:100070002E0371037503890311241FBECFEFD8E04F
:10008000DEBFCDBF12E0A0E0B1E0E8E9F1E102C0DF
:1000900005900D92AE3AB107D9F723E0AEEAB2E08F
:1000A00001C01D92AC33B207E1F70E94B1020C947B
:1000B000CA080C94000020E04CE260E071E080E0AF
:1000C0000E94F9004EE051E060E081E00E94DA0019
:1000D0000895CF93C82F88B1807F9C2F92959F70F1
:1000E000892B88B988B18F7D88B988B1806188B93A
:1000F00088B18F7E88B984E690E00E94600888B15C
:10010000807FCF70C82BC8B988B1806188B988B1A9
:100110008F7E88B982E090E00E944808CF910895D0
:100120008FEF87B98AE090E00E94480882E00E9441
:10013000690088E20E9469008CE00E94690086E004
:100140000E94690081E00E946900089581E00E9498
:10015000690080E80E9469000895CF93DF93EC0165
:1001600023C098B1907F82958F70892B88B988B110
:10017000806288B988B1806188B988B18F7E88B97A
:1001800088EC90E00E94600898B18991907F8F7010
:10019000892B88B988B1806188B988B18F7E88B988
:1001A00082E090E00E94480888818111DACFDF91D7
:1001B000CF910895CF93DF93EA01811108C0603198
:1001C00030F4862F8F7080680E94690009C08130EA
:1001D00039F4603128F4862F8F70806C0E9469009A
:1001E000CE010E94AD0080E80E946900DF91CF91AE
:1001F00008956F927F928F929F92AF92BF92CF920B
:10020000DF92EF92FF920F931F93CF93DF93CDB7BF
:10021000DEB761970FB6F894DEBF0FBECDBF782E64
:100220004A01622ECDB6DEB6ADB6BEB6FB01019078
:100230000020E9F73197E61BF70B0E2FE13128F488
:10024000AB0160E00E94DA0042C0FF2771968DB7D3
:100250009EB78E1B9F0B0FB6F8949EBF0FBE8DBF2F
:1002600001967C010E948A08D7010D900020E9F7D1
:10027000119781E1EEE1F1E001900D928A95E1F7AD
:1002800010E01BC040E150E0B701610F711DCE01CD
:1002900001960E94A108198AAE014F5F5F4F60E08E
:1002A000872D0E94DA00C4010E9448080E94C407FA
:1002B000892B11F0662059F01F5F011718F76110A4
:1002C000DFCF0FB6F894BEBE0FBEADBE05C00FB6F1
:1002D000F894BEBE0FBEADBE0FB6F894DEBE0FBE24
:1002E000CDBE61960FB6F894DEBF0FBECDBFDF91D5
:1002F000CF911F910F91FF90EF90DF90CF90BF9023
:10030000AF909F908F907F906F900895EF92FF92A3
:100310000F931F93CF93DF9300D0CDB7DEB77C014F
:100320000E94A6004FE251E060E080E00E94DA0007
:100330004EE351E060E081E00E94DA0000E010E06E
:100340001DC00E940107892BF1F40E94C40790EDA3
:10035000980F9A3098F4F701E00FF11F808389839A
:100360001A82AE014F5F5F4F602F81E00E94DA007A
:100370000F5F1F4F88EC90E00E944808063011057F
:1003800004F3F70116820F900F90DF91CF911F9128
:100390000F91FF90EF900895EF92FF920F931F93AC
:1003A000CF93DF9300D0CDB7DEB77C010E94A600CB
:1003B00045E451E060E080E00E94DA004EE351E065
:1003C00060E081E00E94DA0000E010E01EC00E94C0
:1003D0000107892BF9F40E94C40790ED980F9A3019
:1003E000A0F4F701E00FF11F80838AE289831A826B
:1003F000AE014F5F5F4F602F81E00E94DA000F5F18
:100400001F4F88EC90E00E94480806301105FCF26E
:10041000F70116820F900F90DF91CF911F910F91EE
:10042000FF90EF9008950F931F93CF93DF93CDB775
:10043000DEB7AE970FB6F894DEBF0FBECDBFDC01BE
:100440000D900020E9F71197A81BB90B169709F03A
:1004500055C0DB010D900020E9F71197A61BB70BE3
:10046000169709F04EC0FC0183E4898385E48A83F2
:1004700086E0DE01139601900D928A95E1F786E001
:10048000FB01DE01199601900D928A95E1F7BE01FC
:100490006F5F7F4F8EE090E00E94B0058E01015F9C
:1004A0001F4F80E2F80111928A95E9F7B8018FE1B8
:1004B00090E00E943C070E94A60043E551E060E006
:1004C00080E00E94DA00A80160E081E00E94DA008A
:1004D00080ED97E00E9448080E94A6008F85833532
:1004E00099F48889853499F462E671E0C8010E9424
:1004F000B008892B79F080E090E00EC080E090E0B9
:100500000BC080E090E008C080E090E005C080E093
:1005100090E002C081E090E0AE960FB6F894DEBFA6
:100520000FBECDBFDF91CF911F910F9108950E9413
:10053000A60041E751E060E080E00E94DA004EE76B
:1005400051E060E081E00E94DA0004C088EC90E0B5
:100550000E9448080E940107892BC1F70E94A6004B
:100560000895CF93DF93CDB7DEB72E970FB6F894EB
:10057000DEBF0FBECDBF0E9480070E9490000E9488
:10058000A10500E007C001E005C002E003C003E0F0
:1005900001C005E00E940107892B21F00E9497020B
:1005A00000E0F8CF802F90E0FC01EC5CFF4F0C9452
:1005B00079080E94A6000E945B0004C00E94010707
:1005C000892B21F40E94C4078823C1F30E940107EC
:1005D000892BC9F2DFCFCE0101960E9486010E94CD
:1005E0000107892B91F2D6CFCE0108960E94CC014B
:1005F0000E940107892B59F2CDCFBE01685F7F4F62
:10060000CE0101960E941302892BA1F00E94A60040
:100610004BE851E060E080E00E94DA004AE951E0F6
:1006200060E081E00E94DA0080ED97E00E944808D7
:1006300004E0B0CF0E94A60049EA51E060E080E00B
:100640000E94DA0049EB51E060E081E00E94DA00AC
:1006500080ED97E00E94480800E09CCF0E94A60031
:1006600049EC51E060E080E00E94DA0041ED51E0A9
:1006700060E081E00E94DA0004C00E940107892B3B
:1006800029F40E94C407182F8823B9F38CE291E063
:100690000E944808123409F47DCF1A3271F40E9486
:1006A000A6004DED51E060E080E00E94DA0088EEA7
:1006B00093E00E94480800E06DCF123351F020F41F
:1006C000113309F466CF66CF133329F0143329F0C0
:1006D00061CF06E05FCF07E05DCF0E945A0500E0E2
:1006E00059CF0E94FF0304E055CF0E94A60043EDBE
:1006F00051E060E080E00E94DA0049EE51E060E005
:1007000081E00E94DA0080ED97E00E94480804E052
:1007100041CF0E94980404E03DCFCF92DF92EF9248
:10072000FF920F931F93CF93DF93CDB7DEB7BC013A
:10073000EDB6FEB6FC0101900020E9F73197AF015C
:10074000481B590B6A0183E0C80ED11CEDB7FEB7F8
:10075000EC19FD090FB6F894FEBF0FBEEDBF0DB743
:100760001EB70F5F1F4F83E4818383E5F801818308
:1007700042838DB79EB704960E94A108B801C601B6
:100780000E94B0050FB6F894FEBE0FBEEDBEDF911D
:10079000CF911F910F91FF90EF90DF90CF90089530
:1007A000CF93DF9300D000D01F92CDB7DEB7BE014C
:1007B0006F5F7F4F83E090E00E943C071C820E94A5
:1007C000A600AE014F5F5F4F60E080E00E94DA005C
:1007D00080ED97E00E9448088981833529F48A8159
:1007E000833521F48B8103C085E401C085E40F903B
:1007F0000F900F900F900F90DF91CF9108950F936E
:100800001F93CF93DF93CDB7DEB72B970FB6F89436
:10081000DEBF0FBECDBFFE01319689E0DF011D9224
:100820008A95E9F70E94A6004CEF51E060E080E075
:100830000E94DA004CE052E060E081E00E94DA00C1
:1008400000E010E00E94C40790ED980F9A30D8F4B1
:1008500008301105C4F4E1E0F0E0EC0FFD1FE00FFB
:10086000F11F80838A871B8662E0600FAE01465FBE
:100870005F4F81E00E94DA000F5F1F4F88EC90E02D
:100880000E944808DFCF833299F51016110684F5CF
:10089000E1E0F0E0EC0FFD1FE00FF11F1082CE0150
:1008A00001960E948D030E94D003182F0E94A6007B
:1008B0001F3469F44BEC51E060E080E00E94DA0004
:1008C0004FE052E060E081E00E94DA000CC04AE1B3
:1008D00052E060E080E00E94DA0040E252E060E036
:1008E00081E00E94DA0088EB9BE00E94480815C076
:1008F0008A3209F0A7CF0E94A6004DE252E060E0E4
:1009000080E00E94DA0046E352E060E081E00E946D
:10091000DA0080ED97E00E9448082B960FB6F89415
:10092000DEBF0FBECDBFDF91CF911F910F91089514
:10093000EF92FF920F931F93CF93DF93CDB7DEB764
:10094000A9970FB6F894DEBF0FBECDBF83E48983AD
:1009500086E58A83BE016F5F7F4F82E090E00E9450
:10096000B005BE016D5F7F4F83E090E00E943C07C1
:100970001E828B81833509F07EC08C81863509F01B
:100980007AC00D81FE017A9680E1DF011D928A9581
:10099000E9F7003108F00FE010E07E01BAE1EB0E5C
:1009A000F11CB701C8010E943C07F701E00FF11FDD
:1009B0001082F70101900020E9F73197EE19FF0945
:1009C000E230F10544F17E0186E0E80EF11C82E59B
:1009D00094E29F838E83D70112961C928F0102505E
:1009E0001109A801BE01665E7F4FC7010E949108F0
:1009F000F70101900020E9F731978EE290E09183B2
:100A000080836AE170E06C0F7D1F600F711FC7016A
:100A10000E947F081CC0319789F486E0E0E4F2E090
:100A2000DE01169601900D928A95E1F7BE01665E91
:100A30007F4FCE0106960E947F0809C087E0E6E45A
:100A4000F2E0DE01169601900D928A95E1F70E9480
:100A5000A6004DE452E060E080E00E94DA00AE01C2
:100A60004A5F5F4F60E081E00E94DA0088EB9BE024
:100A70000E94480812C00E94A6004AE552E060E0C9
:100A800080E00E94DA004BE652E060E081E00E94E4
:100A9000DA0088EB9BE00E944808A9960FB6F8940C
:100AA000DEBF0FBECDBFDF91CF911F910F91FF90A1
:100AB000EF900895CF93DF9300D000D01F92CDB771
:100AC000DEB783E4898386E48A83BE016F5F7F4F4C
:100AD00082E090E00E94B005BE016D5F7F4F82E032
:100AE00090E00E943C071D820E94A6008B81833506
:100AF00081F48C81863469F448E752E060E080E05C
:100B00000E94DA004FE752E060E081E00E94DA00E4
:100B10000CC04BE852E060E080E00E94DA004DE952
:100B200052E060E081E00E94DA0080ED97E00E94F0
:100B300048080F900F900F900F900F90DF91CF917A
:100B400008951092C50083E38093C4001092C00002
:100B500088E98093C10086E08093C200789408956C
:100B6000AC0120E030E00CC09091C00095FFFCCFBC
:100B7000FB01E20FF31F90819093C6002F5F3F4F60
:100B8000241735078CF38091C00086FFFCCFE0EC82
:100B9000F0E08081806480830895FC010190002052
:100BA000E9F73197BC019F01281B390BC9010E944D
:100BB000B00508951F920F920FB60F9211242F9334
:100BC0003F934F935F936F937F938F939F93AF93D5
:100BD000BF93EF93FF938091C600E091B0029FEF27
:100BE0009E0F9530D8F491E09E0F9093B002F0E004
:100BF000EF54FD4F8083963009F0F2C08091B5022A
:100C0000885091E08C3008F490E09093B70285EA28
:100C100092E00E94CD051092B002E2C09091AE0227
:100C2000992309F4B3C09091AF02933509F065C0E0
:100C3000843541F481E08093B70288EA92E00E9413
:100C4000CD059FC08C3439F41092B7028BEA92E044
:100C50000E94CD0596C0883451F4E1EBF2E083E5C3
:100C6000808388E4818382E08093B0028AC02091EF
:100C7000BA023091BB022F5F3F4F2F77307833237A
:100C800034F42150310920683F6F2F5F3F4F40916E
:100C9000B8025091B9022417350759F0E091BA0211
:100CA000F091BB02E454FD4F90833093BB0220933C
:100CB000BA022091BA023091BB022F5F3F4F2F77CB
:100CC0003078332334F42150310920683F6F2F5F8F
:100CD0003F4F4091B8025091B9022417350709F4EB
:100CE00050C0E091BA02F091BB02E454FD4F808302
:100CF0003093BB022093BA0244C02091BA023091D3
:100D0000BB022F5F3F4F2F773078332334F42150CD
:100D1000310920683F6F2F5F3F4F4091B8025091DB
:100D2000B9022417350759F0E091BA02F091BB02DD
:100D3000E454FD4F90833093BB022093BA0220917C
:100D4000BA023091BB022F5F3F4F2F7730783323A9
:100D500034F42150310920683F6F2F5F3F4F40919D
:100D6000B8025091B9022417350759F0E091BA0240
:100D7000F091BB02E454FD4F80833093BB0220937B
:100D8000BA021092AE021092AF022AC0833531F43B
:100D90008093AF0281E08093AE0222C02091BA021C
:100DA0003091BB022F5F3F4F2F773078332334F4DD
:100DB0002150310920683F6F2F5F3F4F4091B802AB
:100DC0005091B9022417350759F0E091BA02F09119
:100DD000BB02E454FD4F80833093BB022093BA02E0
:100DE000FF91EF91BF91AF919F918F917F916F9103
:100DF0005F914F913F912F910F900FBE0F901F90D9
:100E000018958091B70290E008954091BA025091F0
:100E1000BB022091B8023091B90281E0421753071A
:100E200009F080E090E00895CF93DF93EC010E94F9
:100E30000507892BE1F4E091B802F091B902E4547E
:100E4000FD4F808188838091B8029091B90201960C
:100E50008F779078992324F4019780689F6F01968B
:100E60009093B9028093B80281E090E002C080E0E4
:100E700090E0DF91CF910895AF92BF92CF92DF9231
:100E8000EF92FF920F931F93CF93DF931F92CDB7F3
:100E9000DEB76C015B01E12CF12C00E010E019C021
:100EA000CE0101960E941407892B51F0F501E00F45
:100EB000F11F898180830F5F1F4FE12CF12C09C046
:100EC0008FE39CE90197F1F700C000009FEFE91A5A
:100ED000F90A0C151D0524F484E6E816F10404F360
:100EE000F501E00FF11F10820F90DF91CF911F915C
:100EF0000F91FF90EF90DF90CF90BF90AF9008954B
:100F000084B1836084B98AB1806C8AB98AB1837CE8
:100F10008AB98BB18C638BB90895CF93DF9300D0DE
:100F2000CDB7DEB71A82198205C089819A810196F0
:100F30009A83898389819A81883E9340B0F30F9088
:100F40000F90DF91CF9108951F93CF93DF93182FC8
:100F5000C0E0D0E012C00E948D0729B181E090E08E
:100F6000012E02C0880F991F0A94E2F78223D8133A
:100F700002C0CF5F01C0C0E0D82FC73061F78D2F0E
:100F8000DF91CF911F910895CF9385B1836085B98B
:100F90008BB1806C8BB985B18D7F85B985E00E945E
:100FA000A407882311F0C0E001C0C1E384E00E94DF
:100FB000A407811101C0C2E383E00E94A40781114C
:100FC00001C0C3E382E00E94A407811101C0C1E413
:100FD00085B1826085B985B18E7F85B985E00E9433
:100FE000A407811101C0C4E384E00E94A407811119
:100FF00001C0C5E383E00E94A407811101C0C6E3DC
:1010000082E00E94A407811101C0C2E485B1816021
:1010100085B98BB18F778BB985E00E94A4078111C8
:1010200001C0C7E384E00E94A407811101C0C8E3A6
:1010300083E00E94A407811101C0C9E382E00E94FD
:10104000A407811101C0C3E48BB180688BB98BB157
:101050008F7B8BB985E00E94A407811101C0CAE291
:1010600084E00E94A407811101C0C0E383E00E94D4
:10107000A407811101C0C3E282E00E94A40781118C
:1010800001C0C4E48BB180648BB98C2FCF910895DB
:10109000AC0114BC85E085BD10926E0081EF86BD69
:1010A00020E030E008C0A99BFECF91EF96BD92E012
:1010B00095BB2F5F3F4F24173507ACF315BC089540
:1010C000AC0114BC81E085BD10926E0085EF86BD39
:1010D00020E030E009C0A99BFECF95EF96BD95B307
:1010E000926095BB2F5F3F4F24173507A4F315BCC3
:1010F0000895EE0FFF1F0590F491E02D0994FB0178
:10110000DC010D900020E9F7119701900D9200206D
:10111000E1F70895FB01DC0101900D920020E1F759
:101120000895FB01DC010D900020E9F71197415073
:10113000504028F0019000200D92C9F708951C92AC
:101140000895FB01DC014150504048F001900D92A0
:101150000020C9F701C01D9241505040E0F70895AA
:10116000FB0151915523A9F0BF01DC014D914517B9
:101170004111E1F759F4CD010190002049F04D9162
:1011800040154111C9F3FB014111EFCF81E090E01F
:0811900001970895F894FFCFC8
:101198002042616E636F20554652475320004469D0
:1011A800676974652063617274616F3A200020205A
:1011B8002020202020202020202020202020004423
:1011C800696769746520636F6469676F3A005F5F78
:1011D8005F5F5F5F004469676974652073656E6867
:1011E800613A0052657370205365727669646F7254
:1011F8003A004E616F206175746F72697A61646F2D
:101208000020202020464F52412020444500202025
:1012180020204F5045524143414F00436F64696756
:101228006F2076616C69646F210050726F6365731B
:1012380073616E646F2E2E2E00436F6E7461206989
:101248006E76616C696461210054656E7465206E08
:101258006F76616D656E746500312D5361717565CA
:1012680000322D506167616D656E746F00566F6C4A
:1012780074616E646F2E2E2E00456D206465736553
:101288006E766F6C76696D656E746F0056616C6F03
:101298007220646F2073617175653A0052240052A0
:1012A80065616C697A61646F210053616C646F00D9
:1012B800696E737566696369656E7465004F7065FC
:1012C800726163616F0063616E63656C6164610084
:1012D8005224302E30005224302E30300053616CAE
:1012E800646F20617475616C3A004572726F206E8C
:1012F8006120726573706F73746100646F20736529
:10130800727669646F72210053657373616F00466A
:10131800696E616C697A61646121004572726F203F
:10132800616F2066696E616C697A617200736573BA
:0E13380073616F2100434800435400434C0092
:00000001FF
