S010000050726F6A65746F312E7372656300
S11300000C943D000C945A000C945A000C945A0021
S11300100C945A000C945A000C945A000C945A00F4
S11300200C945A000C945A000C945A000C945A00E4
S11300300C945A000C945A000C945A000C945A00D4
S11300400C945A000C945A000C9439060C945A00DF
S11300500C945A000C945A000C945A000C945A00B4
S11300600C945A000C945A00EB02FD0206030F0391
S11300704003BE03C203C603DA0311241FBECFEF3D
S1130080D8E0DEBFCDBF12E0A0E0B1E0E0E2F2E1F3
S113009002C005900D92A23EB107D9F723E0A2EE6B
S11300A0B2E001C01D92A037B207E1F70E94B3028B
S11300B00C940E090C94000020E04CE268E071E01E
S11300C080E00E94FA0046E151E060E081E00E9495
S11300D0DB000895CF93C82F88B1807F9C2F929521
S11300E09F70892B88B988B18F7D88B988B1806168
S11300F088B988B18F7E88B984E690E00E94BF08F1
S113010088B1807FCF70C82BC8B988B1806188B9A5
S113011088B18F7E88B982E090E00E94A708CF91D1
S113012008958FEF87B98AE090E00E94A70882E0E3
S11301300E946A0088E20E946A008CE00E946A00C1
S113014086E00E946A0081E00E946A00089581E0CE
S11301500E946A0080E80E946A000895CF93DF93AA
S1130160EC0123C098B1907F82958F70892B88B958
S113017088B1806288B988B1806188B988B18F7E7E
S113018088B988EC90E00E94BF0898B18991907F6B
S11301908F70892B88B988B1806188B988B18F7EC6
S11301A088B982E090E00E94A70888818111DACFA3
S11301B0DF91CF910895CF93DF93EA01811108C0B5
S11301C0603130F4862F8F7080680E946A0009C005
S11301D0813039F4603128F4862F8F70806C0E944E
S11301E06A00CE010E94AE0080E80E946A00DF919E
S11301F0CF9108956F927F928F929F92AF92BF9208
S1130200CF92DF92EF92FF920F931F93CF93DF93DE
S1130210CDB7DEB761970FB6F894DEBF0FBECDBF82
S1130220782E4A01622ECDB6DEB6ADB6BEB6FB015F
S113023001900020E9F73197E61BF70B0E2FE1310F
S113024028F4AB0160E00E94DB0042C0FF277196F6
S11302508DB79EB78E1B9F0B0FB6F8949EBF0FBE33
S11302608DBF01967C010E94DE08D7010D9000200D
S1130270E9F7119781E1E6E2F1E001900D928A95A8
S1130280E1F710E01BC040E150E0B701610F711DC0
S1130290CE0101960E94E508198AAE014F5F5F4FB7
S11302A060E0872D0E94DB00C4010E94A7080E9421
S11302B02308892B11F0662059F01F5F011718F7E6
S11302C06110DFCF0FB6F894BEBE0FBEADBE05C041
S11302D00FB6F894BEBE0FBEADBE0FB6F894DEBE28
S11302E00FBECDBE61960FB6F894DEBF0FBECDBF74
S11302F0DF91CF911F910F91FF90EF90DF90CF90FE
S1130300BF90AF909F908F907F906F900895EF92E1
S1130310FF920F931F93CF93DF9300D0CDB7DEB737
S11303207C010E94A70047E351E060E080E00E9466
S1130330DB0046E451E060E081E00E94DB0000E085
S113034010E01DC00E946007892BF1F40E9423086D
S113035090ED980F9A3098F4F701E00FF11F808325
S113036089831A82AE014F5F5F4F602F81E00E9444
S1130370DB000F5F1F4F88EC90E00E94A708063057
S1130380110504F3F70116820F900F90DF91CF91BE
S11303901F910F91FF90EF900895EF92FF920F93AA
S11303A01F93CF93DF9300D0CDB7DEB77C010E94BB
S11303B0A7004DE451E060E080E00E94DB0046E4E9
S11303C051E060E081E00E94DB0000E010E01EC02C
S11303D00E946007892BF9F40E94230890ED980F7E
S11303E09A30A0F4F701E00FF11F80838AE2898339
S11303F01A82AE014F5F5F4F602F81E00E94DB00E5
S11304000F5F1F4F88EC90E00E94A708063011058B
S1130410FCF2F70116820F900F90DF91CF911F919C
S11304200F91FF90EF9008950F931F93CF93DF9355
S1130430CDB7DEB7AE970FB6F894DEBF0FBECDBF13
S1130440DC010D900020E9F71197A81BB90B169752
S113045009F056C0DB010D900020E9F71197A61BA7
S1130460B70B169709F04FC0FC0183E4898385E438
S11304708A8386E0DE01139601900D928A95E1F756
S113048086E0FB01DE01199601900D928A95E1F751
S1130490BE016F5F7F4F8EE090E00E940F068E01D9
S11304A0015F1F4F80E2F80111928A95E9F7B801C4
S11304B08FE190E00E949B071BA20E94A7004BE5DE
S11304C051E060E080E00E94DB00A80160E081E090
S11304D00E94DB0080ED97E00E94A7080E94A7001D
S11304E08F85833599F48889853499F46AE671E0B7
S11304F0C8010E94F408892B79F080E090E00EC0D6
S113050080E090E00BC080E090E008C080E090E0E4
S113051005C080E090E002C081E090E0AE960FB6A6
S1130520F894DEBF0FBECDBFDF91CF911F910F9125
S113053008950E94A7004EE651E060E080E00E942A
S1130540DB004BE751E060E081E00E94DB0004C087
S113055088EC90E00E94A7080E946007892BC1F7ED
S11305600E94A7000895CF93DF93CDB7DEB76697B7
S11305700FB6F894DEBF0FBECDBF0E94DF070E9406
S113058091000E94000688E0E0E0F1E0DE011F96A1
S113059001900D928A95E1F700E0E12CF12C09C05D
S11305A001E007C002E005C003E003C0760101C01A
S11305B005E00E946007892B21F00E94990200E067
S11305C0F8CF802F90E08930910598F7FC01EC5C1E
S11305D0FF4F0C94D8080E94A7000E945C0004C03E
S11305E00E946007892B21F40E9423088823C1F309
S11305F00E946007892BA1F2DCCFCE0101960E94F4
S113060087010E946007892B69F2D3CFCE01089637
S11306100E94CD010E946007892B31F2CACFBE012E
S1130620685F7F4FCE0101960E941402892BA1F0CE
S11306300E94A70048E851E060E080E00E94DB00EF
S113064047E951E060E081E00E94DB0080ED97E043
S11306500E94A70804E0ADCF0E94A70046EA51E03B
S113066060E080E00E94DB0046EB51E060E081E066
S11306700E94DB0080ED97E00E94A70800E099CF7C
S11306800E94A700F701EE0FFF1F81E090E08C0F9E
S11306909D1FE80FF91F4685578560E080E00E94A2
S11306A0DB0067019FEFC91AD90A84E0C816D10498
S11306B084F4F601EE0FFF1F81E090E08C0F9D1F84
S11306C0E80FF91F4685578560E081E00E94DB0052
S11306D00BC045E351E060E081E00E94DB0004C010
S11306E00E946007892B29F40E942308182F88236D
S11306F0B9F38CE291E00E94A708123429F492E045
S1130700E916F1040CF452CF113439F41E141F0409
S113071024F481E0E81AF1084CCF1A3271F40E94F3
S1130720A70046EC51E060E080E00E94DB0088EE28
S113073093E00E94A70800E03CCFF701EE0FFF1FF3
S113074081E090E08C0F9D1FE80FF91F0684F78568
S1130750E02D808118132DCF123351F020F4113382
S113076009F426CF26CF133329F0143329F021CFEF
S113077006E01FCF07E01DCF08E01BCF0E94500406
S113078004E017CF0E942C0504E013CF0E94A700B9
S11307904AEF51E060E080E00E94DB0042ED51E06E
S11307A060E081E00E94DB0080ED97E00E94A708F2
S11307B004E0FFCE0E94B30504E0FBCECF92DF92AB
S11307C0EF92FF920F931F93CF93DF93CDB7DEB7D2
S11307D0BC01EDB6FEB6FC0101900020E9F73197AB
S11307E0AF01481B590B6A0183E0C80ED11CEDB759
S11307F0FEB7EC19FD090FB6F894FEBF0FBEEDBFAE
S11308000DB71EB70F5F1F4F83E4818383E5F801A3
S1130810818342838DB79EB704960E94E508B80190
S1130820C6010E940F060FB6F894FEBE0FBEEDBEC1
S1130830DF91CF911F910F91FF90EF90DF90CF90B8
S11308400895CF93DF9300D000D01F92CDB7DEB7C9
S1130850BE016F5F7F4F84E090E00E949B071D8282
S11308600E94A700AE014F5F5F4F60E080E00E94EE
S1130870DB0080ED97E00E94A7088981833529F485
S11308808A81833521F48B8103C085E401C085E42A
S11308900F900F900F900F900F90DF91CF910895CC
S11308A00F931F93CF93DF93CDB7DEB72B970FB67C
S11308B0F894DEBF0FBECDBFFE01319689E0DF01A3
S11308C01D928A95E9F70E94A7004CE052E060E08F
S11308D080E00E94DB004CE152E060E081E00E9495
S11308E0DB0000E010E00E94230890ED980F9A309E
S11308F0D8F408301105C4F4E1E0F0E0EC0FFD1F7A
S1130900E00FF11F80838A871B8662E0600FAE01CF
S1130910465F5F4F81E00E94DB000F5F1F4F88EC52
S113092090E00E94A708DFCF833299F510161106D4
S113093084F5E1E0F0E0EC0FFD1FE00FF11F108201
S1130940CE0101960E94DE030E942104182F0E940A
S1130950A7001F3469F44FE152E060E080E00E9498
S1130960DB0040E352E060E081E00E94DB000CC069
S113097042E452E060E080E00E94DB0045E552E0A2
S113098060E081E00E94DB0088EB9BE00E94A70806
S113099015C08A3209F0A7CF0E94A70047E652E0AB
S11309A060E080E00E94DB004DEA52E060E081E01C
S11309B00E94DB0080ED97E00E94A7082B960FB6FB
S11309C0F894DEBF0FBECDBFDF91CF911F910F9181
S11309D00895CF92DF92EF92FF920F931F93CF93DC
S11309E0DF93CDB7DEB7BC01EDB6FEB6FC010190D6
S11309F00020E9F73197AF01481B590B6A0183E0E6
S1130A00C80ED11CEDB7FEB7EC19FD090FB6F8946A
S1130A10FEBF0FBEEDBF0DB71EB70F5F1F4F83E4C0
S1130A20818384E4F801818342838DB79EB7049661
S1130A300E94E508B801C6010E940F060FB6F8949B
S1130A40FEBE0FBEEDBEDF91CF911F910F91FF90BF
S1130A50EF90DF90CF9008950F931F93CF93DF9380
S1130A60CDB7DEB72B970FB6F894DEBF0FBECDBF60
S1130A70FE01319689E0DF011D928A95E9F70E9413
S1130A80A70040E752E060E080E00E94DB004CE118
S1130A9052E060E081E00E94DB0000E010E00E9490
S1130AA0230890ED980F9A30D8F408301105C4F457
S1130AB0E1E0F0E0EC0FFD1FE00FF11F80838A8777
S1130AC01B8662E0600FAE01465F5F4F81E00E94CB
S1130AD0DB000F5F1F4F88EC90E00E94A708DFCF78
S1130AE0833239F51016110624F5E1E0F0E0EC0F3D
S1130AF0FD1FE00FF11F1082CE0101960E94E90450
S1130B000E942104182F0E94A7001F3439F443E8DF
S1130B1052E060E080E00E94DB0006C043E952E05E
S1130B2060E080E00E94DB0088EB9BE00E94A70865
S1130B300FC08A3209F0B3CF0E94A70044EA52E002
S1130B4060E080E00E94DB0080ED97E00E94A7084F
S1130B502B960FB6F894DEBF0FBECDBFDF91CF91B9
S1130B601F910F910895CF93DF93CDB7DEB72D97E3
S1130B700FB6F894DEBF0FBECDBF83E489838CE447
S1130B808A831B82BE016F5F7F4F83E090E00E94E7
S1130B900F06BE016C5F7F4F89E090E00E949B07C7
S1130BA01D860E94A7008C81833589F48D818C3445
S1130BB071F447EB52E060E080E00E94DB00AE019C
S1130BC04A5F5F4F60E081E00E94DB000CC044ECB0
S1130BD052E060E080E00E94DB0042ED52E060E021
S1130BE081E00E94DB0088EB9BE00E94A7082D9621
S1130BF00FB6F894DEBF0FBECDBFDF91CF9108953D
S1130C001092C50083E38093C4001092C00088E969
S1130C108093C10086E08093C20078940895AC016B
S1130C2020E030E00CC09091C00095FFFCCFFB01A8
S1130C30E20FF31F90819093C6002F5F3F4F24175C
S1130C4035078CF38091C00086FFFCCFE0ECF0E028
S1130C508081806480830895FC0101900020E9F77D
S1130C603197BC019F01281B390BC9010E940F0653
S1130C7008951F920F920FB60F9211242F933F9352
S1130C804F935F936F937F938F939F93AF93BF9390
S1130C90EF93FF938091C600E091E4029FEF9E0FD3
S1130CA09530D8F491E09E0F9093E402F0E0EB517C
S1130CB0FD4F8083963009F0F2C08091E90288509C
S1130CC091E08C3008F490E09093EB0288ED92E090
S1130CD00E942C061092E402E2C09091E202992351
S1130CE009F4B3C09091E302933509F065C08435EB
S1130CF041F481E08093EB028BED92E00E942C069C
S1130D009FC08C3439F41092EB028EED92E00E9475
S1130D102C0696C0883451F4E5EEF2E083E5808336
S1130D2088E4818382E08093E4028AC02091EE0209
S1130D303091EF022F5F3F4F2F773078332334F415
S1130D402150310920683F6F2F5F3F4F4091EC02E3
S1130D505091ED022417350759F0E091EE02F0911D
S1130D60EF02E051FD4F90833093EF022093EE02A7
S1130D702091EE023091EF022F5F3F4F2F773078B2
S1130D80332334F42150310920683F6F2F5F3F4FE4
S1130D904091EC025091ED022417350709F450C03C
S1130DA0E091EE02F091EF02E051FD4F8083309329
S1130DB0EF022093EE0244C02091EE023091EF0244
S1130DC02F5F3F4F2F773078332334F4215031098C
S1130DD020683F6F2F5F3F4F4091EC025091ED022E
S1130DE02417350759F0E091EE02F091EF02E0513B
S1130DF0FD4F90833093EF022093EE022091EE0298
S1130E003091EF022F5F3F4F2F773078332334F444
S1130E102150310920683F6F2F5F3F4F4091EC0212
S1130E205091ED022417350759F0E091EE02F0914C
S1130E30EF02E051FD4F80833093EF022093EE02E6
S1130E401092E2021092E3022AC0833531F48093B7
S1130E50E30281E08093E20222C02091EE0230910D
S1130E60EF022F5F3F4F2F773078332334F4215034
S1130E70310920683F6F2F5F3F4F4091EC02509142
S1130E80ED022417350759F0E091EE02F091EF02DC
S1130E90E051FD4F80833093EF022093EE02FF91E7
S1130EA0EF91BF91AF919F918F917F916F915F91DE
S1130EB04F913F912F910F900FBE0F901F90189557
S1130EC08091EB0290E008954091EE025091EF0280
S1130ED02091EC023091ED0281E04217530709F0B2
S1130EE080E090E00895CF93DF93EC010E946407C3
S1130EF0892BE1F4E091EC02F091ED02E051FD4F19
S1130F00808188838091EC029091ED0201968F7725
S1130F109078992324F4019780689F6F01969093A9
S1130F20ED028093EC0281E090E002C080E090E06A
S1130F30DF91CF910895AF92BF92CF92DF92EF925B
S1130F40FF920F931F93CF93DF931F92CDB7DEB71A
S1130F506C015B01E12CF12C00E010E019C0CE0122
S1130F6001960E947307892B51F0F501E00FF11FE0
S1130F70898180830F5F1F4FE12CF12C09C08FE31F
S1130F809CE90197F1F700C000009FEFE91AF90A04
S1130F900C151D0524F484E6E816F10404F3F501A8
S1130FA0E00FF11F10820F90DF91CF911F910F91ED
S1130FB0FF90EF90DF90CF90BF90AF90089584B1F1
S1130FC0836084B98AB1806C8AB98AB1837C8AB916
S1130FD08BB18C638BB90895CF93DF9300D0CDB7D9
S1130FE0DEB71A82198205C089819A8101969A8393
S1130FF0898389819A81883E9340B0F30F900F9042
S1131000DF91CF9108951F93CF93DF93182FC0E002
S1131010D0E012C00E94EC0729B181E090E0012EDB
S113102002C0880F991F0A94E2F78223D81302C0E2
S1131030CF5F01C0C0E0D82FC73061F78D2FDF919B
S1131040CF911F910895CF9385B1836085B98BB1FA
S1131050806C8BB985B18D7F85B985E00E940308CA
S1131060882311F0C0E001C0C1E384E00E940308BA
S1131070811101C0C2E383E00E940308811101C011
S1131080C3E382E00E940308811101C0C1E485B179
S1131090826085B985B18E7F85B985E00E94030899
S11310A0811101C0C4E384E00E940308811101C0DE
S11310B0C5E383E00E940308811101C0C6E382E016
S11310C00E940308811101C0C2E485B1816085B921
S11310D08BB18F778BB985E00E940308811101C021
S11310E0C7E384E00E940308811101C0C8E383E0E0
S11310F00E940308811101C0C9E382E00E94030831
S1131100811101C0C3E48BB180688BB98BB18F7B33
S11311108BB985E00E940308811101C0CAE284E012
S11311200E940308811101C0C0E383E00E94030808
S1131130811101C0C3E282E00E940308811101C051
S1131140C4E48BB180648BB98C2FCF910895AC012A
S113115014BC85E085BD10926E0081EF86BD20E051
S113116030E008C0A99BFECF91EF96BD92E095BBFD
S11311702F5F3F4F24173507ACF315BC0895AC011E
S113118014BC81E085BD10926E0085EF86BD20E021
S113119030E009C0A99BFECF95EF96BD95B3926050
S11311A095BB2F5F3F4F24173507A4F315BC089553
S11311B0EE0FFF1F0590F491E02D0994FB01DC0173
S11311C001900D920020E1F70895FB01DC014150EC
S11311D0504048F001900D920020C9F701C01D92C3
S11311E041505040E0F70895FB0151915523A9F077
S11311F0BF01DC014D9145174111E1F759F4CD01CF
S11312000190002049F04D9140154111C9F3FB01B3
S11312104111EFCF81E090E001970895F894FFCF5A
S1131220E501ED01F80104022042616E636F20556F
S113123046524753200044696769746520636172AC
S113124074616F3A200020202020202020202020BC
S11312502020202020200044696769746520636F82
S11312606469676F3A005F5F5F5F5F5F004469674F
S11312706974652073656E68613A00526573702005
S11312805365727669646F723A004E616F00202074
S11312902020464F52412020444500202020204F4A
S11312A05045524143414F00436F6469676F207654
S11312B0616C69646F210050726F63657373616E52
S11312C0646F2E2E2E00436F6E746120696E7661FA
S11312D06C696461210054656E7465206E6F76617B
S11312E06D656E746500566F6C74616E646F2E2E3E
S11312F02E00456D20646573656E766F6C76696D3E
S1131300656E746F00312D536171756500322D4423
S113131065706F7369746F00332D506167616D651B
S11313206E746F00342D53616C646F0056616C6F82
S11313307220646F2073617175653A005224005302
S113134061717565207265616C697A61646F2100F1
S1131350526574697265206F2064696E686569728C
S11313606F0053616C646F20696E7375666963699D
S1131370656E74650054656E7465206F7574726F64
S11313802076616C6F72004F7065726163616F00EB
S113139056616C6F7220646F206465706F7369743A
S11313A06F3A004465706F7369746F206665697481
S11313B06F21004572726F206E6F206465706F73C9
S11313C069746F004F7065726163616F2063616E51
S11313D063656C6164610053616C646F2061747552
S11313E0616C3A004572726F20616F206F627465A0
S11313F0720073616C646F00434800435400434CB3
S10514000000E6
S9030000FC
