:100000000C943C000C9459000C9459000C94590029
:100010000C9459000C9459000C9459000C945900FC
:100020000C9459000C9459000C9459000C945900EC
:100030000C9459000C9459000C9459000C945900DC
:100040000C9459000C9459000C94AD050C94590073
:100050000C9459000C9459000C9459000C945900BC
:100060000C9459000C945900E602F80201030A03AB
:100070003B03AC03B003C40311241FBECFEFD8E091
:10008000DEBFCDBF12E0A0E0B1E0E8E0F1E102C0E8
:1000900005900D92A83AB107D9F723E0A8EAB2E09B
:1000A00001C01D92A633B207E1F70E94B1020C9481
:1000B00082080C94000020E04CE268E071E080E0EF
:1000C0000E94F90046E151E060E081E00E94DA0020
:1000D0000895CF93C82F88B1807F9C2F92959F70F1
:1000E000892B88B988B18F7D88B988B1806188B93A
:1000F00088B18F7E88B984E690E00E94330888B189
:10010000807FCF70C82BC8B988B1806188B988B1A9
:100110008F7E88B982E090E00E941B08CF910895FD
:100120008FEF87B98AE090E00E941B0882E00E946E
:10013000690088E20E9469008CE00E94690086E004
:100140000E94690081E00E946900089581E00E9498
:10015000690080E80E9469000895CF93DF93EC0165
:1001600023C098B1907F82958F70892B88B988B110
:10017000806288B988B1806188B988B18F7E88B97A
:1001800088EC90E00E94330898B18991907F8F703D
:10019000892B88B988B1806188B988B18F7E88B988
:1001A00082E090E00E941B0888818111DACFDF9104
:1001B000CF910895CF93DF93EA01811108C0603198
:1001C00030F4862F8F7080680E94690009C08130EA
:1001D00039F4603128F4862F8F70806C0E9469009A
:1001E000CE010E94AD0080E80E946900DF91CF91AE
:1001F00008956F927F928F929F92AF92BF92CF920B
:10020000DF92EF92FF920F931F93CF93DF93CDB7BF
:10021000DEB761970FB6F894DEBF0FBECDBF782E64
:100220004A01622ECDB6DEB6ADB6BEB6FB01019078
:100230000020E9F73197E61BF70B0E2FE13128F488
:10024000AB0160E00E94DA0042C0FF2771968DB7D3
:100250009EB78E1B9F0B0FB6F8949EBF0FBE8DBF2F
:1002600001967C010E945208D7010D900020E9F709
:10027000119781E1E6E2F1E001900D928A95E1F7B4
:1002800010E01BC040E150E0B701610F711DCE01CD
:1002900001960E945908198AAE014F5F5F4F60E0D6
:1002A000872D0E94DA00C4010E941B080E94970754
:1002B000892B11F0662059F01F5F011718F76110A4
:1002C000DFCF0FB6F894BEBE0FBEADBE05C00FB6F1
:1002D000F894BEBE0FBEADBE0FB6F894DEBE0FBE24
:1002E000CDBE61960FB6F894DEBF0FBECDBFDF91D5
:1002F000CF911F910F91FF90EF90DF90CF90BF9023
:10030000AF909F908F907F906F900895EF92FF92A3
:100310000F931F93CF93DF9300D0CDB7DEB77C014F
:100320000E94A60047E351E060E080E00E94DA000E
:1003300046E451E060E081E00E94DA0000E010E075
:100340001DC00E94D406892BF1F40E94970790EDFE
:10035000980F9A3098F4F701E00FF11F808389839A
:100360001A82AE014F5F5F4F602F81E00E94DA007A
:100370000F5F1F4F88EC90E00E941B0806301105AC
:1003800004F3F70116820F900F90DF91CF911F9128
:100390000F91FF90EF900895EF92FF920F931F93AC
:1003A000CF93DF9300D0CDB7DEB77C010E94A600CB
:1003B0004DE451E060E080E00E94DA0046E451E064
:1003C00060E081E00E94DA0000E010E01EC00E94C0
:1003D000D406892BF9F40E94970790ED980F9A3074
:1003E000A0F4F701E00FF11F80838AE289831A826B
:1003F000AE014F5F5F4F602F81E00E94DA000F5F18
:100400001F4F88EC90E00E941B0806301105FCF29B
:10041000F70116820F900F90DF91CF911F910F91EE
:10042000FF90EF9008950F931F93CF93DF93CDB775
:10043000DEB7AE970FB6F894DEBF0FBECDBFDC01BE
:100440000D900020E9F71197A81BB90B169709F03A
:1004500055C0DB010D900020E9F71197A61BB70BE3
:10046000169709F04EC0FC0183E4898385E48A83F2
:1004700086E0DE01139601900D928A95E1F786E001
:10048000FB01DE01199601900D928A95E1F7BE01FC
:100490006F5F7F4F8EE090E00E9483058E01015FC9
:1004A0001F4F80E2F80111928A95E9F7B8018FE1B8
:1004B00090E00E940F070E94A6004BE551E060E02B
:1004C00080E00E94DA00A80160E081E00E94DA008A
:1004D00080ED97E00E941B080E94A6008F8583355F
:1004E00099F48889853499F46AE671E0C8010E941C
:1004F0006808892B79F080E090E00EC080E090E001
:100500000BC080E090E008C080E090E005C080E093
:1005100090E002C081E090E0AE960FB6F894DEBFA6
:100520000FBECDBFDF91CF911F910F9108950E9413
:10053000A60049E751E060E080E00E94DA0046E86A
:1005400051E060E081E00E94DA0004C088EC90E0B5
:100550000E941B080E94D406892BC1F70E94A600A6
:100560000895CF93DF93CDB7DEB766970FB6F894B3
:10057000DEBF0FBECDBF0E9453070E9490000E94B5
:10058000740588E0E0E0F1E0DE011F9601900D9235
:100590008A95E1F700E0E12CF12C09C001E007C0E9
:1005A00002E005C003E003C0760101C005E00E943F
:1005B000D406892B21F00E94970200E0F8CF802F0B
:1005C00090E0FC01EC5CFF4F0C944C080E94A600EC
:1005D0000E945B0004C00E94D406892B21F40E9473
:1005E00097078823C1F30E94D406892BB9F2DFCF85
:1005F000CE0101960E9486010E94D406892B81F2C9
:10060000D6CFCE0108960E94CC010E94D406892B39
:1006100049F2CDCFBE01685F7F4FCE0101960E94A7
:100620001302892BA1F00E94A60043E951E060E08B
:1006300080E00E94DA0042EA51E060E081E00E943E
:10064000DA0080ED97E00E941B0804E0B0CF0E9422
:10065000A60041EB51E060E080E00E94DA0041EC4E
:1006600051E060E081E00E94DA0080ED97E00E94B6
:100670001B0800E09CCF0E94A600F701EE0FFF1FB1
:1006800081E090E08C0F9D1FE80FF91F468557858C
:1006900060E080E00E94DA0067019FEFC91AD90A82
:1006A00084E0C816D10484F4F601EE0FFF1F81E048
:1006B00090E08C0F9D1FE80FF91F4685578560E07D
:1006C00081E00E94DA000BC045E351E060E081E088
:1006D0000E94DA0004C00E94D406892B29F40E94EB
:1006E0009707182F8823B9F38CE291E00E941B082A
:1006F000123429F492E0E916F1040CF455CF1134C8
:1007000039F41E141F0424F481E0E81AF1084FCFD5
:100710001A3271F40E94A60041ED51E060E080E0E1
:100720000E94DA0088EE93E00E941B0800E03FCFB1
:10073000123351F020F4113309F438CF38CF13338A
:1007400029F0143329F033CF06E031CF07E02FCF63
:100750000E94200500E02BCF0E943A0404E027CF3E
:100760000E94A6004AEF51E060E080E00E94DA00BB
:100770004DED51E060E081E00E94DA0080ED97E00D
:100780000E941B0804E013CF0E94D30404E00FCFA3
:10079000CF92DF92EF92FF920F931F93CF93DF934D
:1007A000CDB7DEB7BC01EDB6FEB6FC01019000206E
:1007B000E9F73197AF01481B590B6A0183E0C80E76
:1007C000D11CEDB7FEB7EC19FD090FB6F894FEBFCA
:1007D0000FBEEDBF0DB71EB70F5F1F4F83E48183C0
:1007E00083E5F801818342838DB79EB704960E940A
:1007F0005908B801C6010E9483050FB6F894FEBEE1
:100800000FBEEDBEDF91CF911F910F91FF90EF9042
:10081000DF90CF900895CF93DF9300D000D01F9248
:10082000CDB7DEB7BE016F5F7F4F83E090E00E94DF
:100830000F071C820E94A600AE014F5F5F4F60E071
:1008400080E00E94DA0080ED97E00E941B08898119
:10085000833529F48A81833521F48B8103C085E4B3
:1008600001C085E40F900F900F900F900F90DF91D3
:10087000CF9108950F931F93CF93DF93CDB7DEB73A
:100880002B970FB6F894DEBF0FBECDBFFE01319699
:1008900089E0DF011D928A95E9F70E94A60043E1F5
:1008A00052E060E080E00E94DA0043E252E060E063
:1008B00081E00E94DA0000E010E00E94970790EDCE
:1008C000980F9A30D8F408301105C4F4E1E0F0E054
:1008D000EC0FFD1FE00FF11F80838A871B8662E00B
:1008E000600FAE01465F5F4F81E00E94DA000F5F4C
:1008F0001F4F88EC90E00E941B08DFCF833299F5F0
:100900001016110684F5E1E0F0E0EC0FFD1FE00F9A
:10091000F11F1082CE0101960E94C8030E940B04B1
:10092000182F0E94A6001F3469F442EF51E060E0E6
:1009300080E00E94DA0046E252E060E081E00E943E
:10094000DA000CC046E052E060E080E00E94DA008D
:1009500041E352E060E081E00E94DA0088EB9BE036
:100960000E941B0815C08A3209F0A7CF0E94A6007A
:100970004EE352E060E080E00E94DA0047E452E09B
:1009800060E081E00E94DA0080ED97E00E941B08A1
:100990002B960FB6F894DEBF0FBECDBFDF91CF917F
:1009A0001F910F910895CF93DF93CDB7DEB72D97A9
:1009B0000FB6F894DEBF0FBECDBF83E489838CE40D
:1009C0008A831B82BE016F5F7F4F83E090E00E94AD
:1009D0008305BE016C5F7F4F88E090E00E940F07A7
:1009E0001C860E94A6008C81833589F48D818C340D
:1009F00071F441E552E060E080E00E94DA00AE016F
:100A00004A5F5F4F60E081E00E94DA000CC04EE573
:100A100052E060E080E00E94DA004CE652E060E0E4
:100A200081E00E94DA0088EB9BE00E941B082D9673
:100A30000FB6F894DEBF0FBECDBFDF91CF91089502
:100A4000CF93DF9300D000D01F92CDB7DEB783E401
:100A5000898386E48A83BE016F5F7F4F82E090E0E6
:100A60000E948305BE016D5F7F4F82E090E00E948F
:100A70000F071D820E94A600AE014D5F5F4F60E030
:100A800081E00E94DA0080ED97E00E941B080E943E
:100A9000A6008B81833581F48C81863469F442E72A
:100AA00052E060E080E00E94DA0049E752E060E056
:100AB00081E00E94DA000CC045E852E060E080E08E
:100AC0000E94DA0047E952E060E081E00E94DA002B
:100AD00080ED97E00E941B080F900F900F900F90F1
:100AE0000F90DF91CF9108951092C50083E380931A
:100AF000C4001092C00088E98093C10086E0809312
:100B0000C20078940895AC0120E030E00CC09091D0
:100B1000C00095FFFCCFFB01E20FF31F9081909383
:100B2000C6002F5F3F4F241735078CF38091C0001C
:100B300086FFFCCFE0ECF0E0808180648083089544
:100B4000FC0101900020E9F73197BC019F01281BAF
:100B5000390BC9010E94830508951F920F920FB6A9
:100B60000F9211242F933F934F935F936F937F9333
:100B70008F939F93AF93BF93EF93FF938091C600A2
:100B8000E091AA029FEF9E0F9530D8F491E09E0F5E
:100B90009093AA02F0E0E555FD4F8083963009F06E
:100BA000F2C08091AF02885091E08C3008F490E060
:100BB0009093B1028FE992E00E94A0051092AA02E0
:100BC000E2C09091A802992309F4B3C09091A902C0
:100BD000933509F065C0843541F481E08093B1021A
:100BE00082EA92E00E94A0059FC08C3439F41092F2
:100BF000B10285EA92E00E94A00596C0883451F4C3
:100C0000EBEAF2E083E5808388E4818382E08093ED
:100C1000AA028AC02091B4023091B5022F5F3F4FE3
:100C20002F773078332334F42150310920683F6F17
:100C30002F5F3F4F4091B2025091B3022417350706
:100C400059F0E091B402F091B502EA54FD4F90835F
:100C50003093B5022093B4022091B4023091B502D2
:100C60002F5F3F4F2F773078332334F421503109F1
:100C700020683F6F2F5F3F4F4091B2025091B30207
:100C80002417350709F450C0E091B402F091B50281
:100C9000EA54FD4F80833093B5022093B40244C0E0
:100CA0002091B4023091B5022F5F3F4F2F773078FB
:100CB000332334F42150310920683F6F2F5F3F4FB9
:100CC0004091B2025091B3022417350759F0E091D8
:100CD000B402F091B502EA54FD4F90833093B5020F
:100CE0002093B4022091B4023091B5022F5F3F4FA0
:100CF0002F773078332334F42150310920683F6F47
:100D00002F5F3F4F4091B2025091B3022417350735
:100D100059F0E091B402F091B502EA54FD4F80839E
:100D20003093B5022093B4021092A8021092A90247
:100D30002AC0833531F48093A90281E08093A80210
:100D400022C02091B4023091B5022F5F3F4F2F7720
:100D50003078332334F42150310920683F6F2F5FFE
:100D60003F4F4091B2025091B3022417350759F01A
:100D7000E091B402F091B502EA54FD4F80833093C4
:100D8000B5022093B402FF91EF91BF91AF919F9173
:100D90008F917F916F915F914F913F912F910F9024
:100DA0000FBE0F901F9018958091B10290E00895AA
:100DB0004091B4025091B5022091B2023091B30239
:100DC00081E04217530709F080E090E00895CF9347
:100DD000DF93EC010E94D806892BE1F4E091B20286
:100DE000F091B302EA54FD4F808188838091B20272
:100DF0009091B30201968F779078992324F401970C
:100E000080689F6F01969093B3028093B20281E055
:100E100090E002C080E090E0DF91CF910895AF9222
:100E2000BF92CF92DF92EF92FF920F931F93CF93D7
:100E3000DF931F92CDB7DEB76C015B01E12CF12C83
:100E400000E010E019C0CE0101960E94E706892B50
:100E500051F0F501E00FF11F898180830F5F1F4F73
:100E6000E12CF12C09C08FE39CE90197F1F700C058
:100E700000009FEFE91AF90A0C151D0524F484E619
:100E8000E816F10404F3F501E00FF11F10820F9052
:100E9000DF91CF911F910F91FF90EF90DF90CF9056
:100EA000BF90AF90089584B1836084B98AB1806C9B
:100EB0008AB98AB1837C8AB98BB18C638BB9089566
:100EC000CF93DF9300D0CDB7DEB71A82198205C069
:100ED00089819A8101969A83898389819A81883E42
:100EE0009340B0F30F900F90DF91CF9108951F932F
:100EF000CF93DF93182FC0E0D0E012C00E946007AC
:100F000029B181E090E0012E02C0880F991F0A9458
:100F1000E2F78223D81302C0CF5F01C0C0E0D82F10
:100F2000C73061F78D2FDF91CF911F910895CF9337
:100F300085B1836085B98BB1806C8BB985B18D7FAC
:100F400085B985E00E947707882311F0C0E001C0D1
:100F5000C1E384E00E947707811101C0C2E383E00E
:100F60000E947707811101C0C3E382E00E947707E6
:100F7000811101C0C1E485B1826085B985B18E7FE0
:100F800085B985E00E947707811101C0C4E384E040
:100F90000E947707811101C0C5E383E00E947707B3
:100FA000811101C0C6E382E00E947707811101C070
:100FB000C2E485B1816085B98BB18F778BB985E04B
:100FC0000E947707811101C0C7E384E00E94770780
:100FD000811101C0C8E383E00E947707811101C03D
:100FE000C9E382E00E947707811101C0C3E48BB19D
:100FF00080688BB98BB18F7B8BB985E00E947707B6
:10100000811101C0CAE284E00E947707811101C00A
:10101000C0E383E00E947707811101C0C3E282E050
:101020000E947707811101C0C4E48BB180648BB941
:101030008C2FCF910895AC0114BC85E085BD109232
:101040006E0081EF86BD20E030E008C0A99BFECF96
:1010500091EF96BD92E095BB2F5F3F4F2417350768
:10106000ACF315BC0895AC0114BC81E085BD1092B1
:101070006E0085EF86BD20E030E009C0A99BFECF61
:1010800095EF96BD95B3926095BB2F5F3F4F2417A8
:101090003507A4F315BC0895EE0FFF1F0590F491DA
:1010A000E02D0994FB01DC0101900D920020E1F795
:1010B0000895FB01DC014150504048F001900D9231
:1010C0000020C9F701C01D9241505040E0F708953B
:1010D000FB0151915523A9F0BF01DC014D9145174A
:1010E0004111E1F759F4CD010190002049F04D91F3
:1010F00040154111C9F3FB014111EFCF81E090E0B0
:0811000001970895F894FFCF58
:10110800F001F80104020C022042616E636F205561
:1011180046524753200044696769746520636172C9
:1011280074616F3A200020202020202020202020D9
:101138002020202020200044696769746520636F9F
:101148006469676F3A005F5F5F5F5F5F004469676C
:101158006974652073656E68613A00526573702022
:101168005365727669646F723A004E616F206175DB
:10117800746F72697A61646F0020202020464F5294
:10118800412020444500202020204F504552414313
:10119800414F00436F6469676F2076616C69646FC3
:1011A800210050726F63657373616E646F2E2E2E0B
:1011B80000436F6E746120696E76616C69646121A9
:1011C8000054656E7465206E6F76616D656E74652A
:1011D80000566F6C74616E646F2E2E2E00456D2064
:1011E800646573656E766F6C76696D656E746F0095
:1011F800312D536171756500322D506167616D65E0
:101208006E746F00332D53616C646F00342D53611D
:1012180069720056616C6F7220646F20736171751A
:10122800653A005224005265616C697A61646F21E5
:1012380000696E737566696369656E7465004F70E1
:1012480065726163616F0063616E63656C6164619F
:101258000053616C646F20617475616C3A0045726B
:10126800726F20616F206F627465720073616C64C5
:101278006F0053657373616F0046696E616C697ABC
:1012880061646121004572726F20616F2066696E2A
:10129800616C697A61720073657373616F210043D1
:0812A8004800435400434C00D0
:00000001FF
