S010000050726F6A65746F312E7372656300
S11300000C9434000C9451000C9451000C94510045
S11300100C9451000C9451000C9451000C94510018
S11300200C9451000C9451000C9451000C94510008
S11300300C9451000C9451000C9451000C945100F8
S11300400C9451000C9451000C947D050C945100B7
S11300500C9451000C9451000C9451000C945100D8
S11300600C9451000C94510011241FBECFEFD8E022
S1130070DEBFCDBF12E0A0E0B1E0E4E6FFE002C0E5
S113008005900D92AA3AB107D9F723E0AAEAB2E0A3
S113009001C01D92A033B207E1F70E94EB020C9459
S11300A0B0070C94000020E04CE268E071E080E0CE
S11300B00E94F10046E151E060E081E00E94D2003C
S11300C00895CF93C82F88B1807F9C2F92959F70FD
S11300D0892B88B988B18F7D88B988B1806188B946
S11300E088B18F7E88B984E690E00E945E0788B16B
S11300F0807FCF70C82BC8B988B1806188B988B1B6
S11301008F7E88B982E090E00E944607CF910895DF
S11301108FEF87B98AE090E00E94460782E00E9450
S1130120610088E20E9461008CE00E94610086E028
S11301300E94610081E00E946100089581E00E94B4
S1130140610080E80E9461000895CF93DF93EC0181
S113015023C098B1907F82958F70892B88B988B11C
S1130160806288B988B1806188B988B18F7E88B986
S113017088EC90E00E945E0798B18991907F8F701F
S1130180892B88B988B1806188B988B18F7E88B994
S113019082E090E00E94460788818111DACFDF91E6
S11301A0CF910895CF93DF93EA01811108C06031A4
S11301B030F4862F8F7080680E94610009C08130FE
S11301C039F4603128F4862F8F70806C0E946100AE
S11301D0CE010E94A50080E80E946100DF91CF91CA
S11301E008956F927F928F929F92AF92BF92CF9217
S11301F0DF92EF92FF920F931F93CF93DF93CDB7CC
S1130200DEB761970FB6F894DEBF0FBECDBF782E70
S11302104A01622ECDB6DEB6ADB6BEB6FB01019084
S11302200020E9F73197E61BF70B0E2FE13128F494
S1130230AB0160E00E94D20042C0FF2771968DB7E7
S11302409EB78E1B9F0B0FB6F8949EBF0FBE8DBF3B
S113025001967C010E948007D7010D900020E9F7E8
S1130260119781E1E6E2F1E001900D928A95E1F7C0
S113027010E01BC040E150E0B701610F711DCE01D9
S113028001960E948707198AAE014F5F5F4F60E0B5
S1130290872D0E94D200C4010E9446070E94C20614
S11302A0892B11F0662059F01F5F011718F76110B0
S11302B0DFCF0FB6F894BEBE0FBEADBE05C00FB6FD
S11302C0F894BEBE0FBEADBE0FB6F894DEBE0FBE30
S11302D0CDBE61960FB6F894DEBF0FBECDBFDF91E1
S11302E0CF911F910F91FF90EF90DF90CF90BF902F
S11302F0AF909F908F907F906F900895CF93DF93EE
S113030000D01F92CDB7DEB7BE016F5F7F4F82E092
S113031090E00E943106029709F044C01B8267E313
S113032071E0CE0101960E947707892BC9F481E020
S113033090E09093AB028093AA028AE391E00E943A
S113034070050E949E004DE351E060E080E00E9451
S1130350D2004AE451E060E081E00E94D20022C071
S113036067E571E0CE0101960E947707892BD1F4ED
S11303701092AB021092AA028AE591E00E947005E5
S11303800E949E004DE551E060E080E00E94D200B2
S113039048E651E060E081E00E94D2008CED95E0F7
S11303A00E9446070F900F900F90DF91CF91089510
S11303B0EF92FF920F931F93CF93DF9300D0CDB7AB
S11303C0DEB77C010E949E0045E751E060E080E0DA
S11303D00E94D20044E851E060E081E00E94D20033
S11303E000E010E021C00E947E018091AA02909159
S11303F0AB02892BF1F40E94C20690ED980F9A305B
S113040098F4F701E00FF11F808389831A82AE010B
S11304104F5F5F4F602F81E00E94D2000F5F1F4F3C
S113042088EC90E00E94460706301105E4F2F701DB
S113043016820F900F90DF91CF911F910F91FF9033
S1130440EF900895EF92FF920F931F93CF93DF9352
S113045000D0CDB7DEB77C010E949E004BE851E08E
S113046060E080E00E94D20044E851E060E081E076
S11304700E94D20000E010E022C00E947E01809120
S1130480AA029091AB02892BF9F40E94C20690ED66
S1130490980F9A30A0F4F701E00FF11F80838AE2ED
S11304A089831A82AE014F5F5F4F602F81E00E9403
S11304B0D2000F5F1F4F88EC90E00E944607063081
S11304C01105DCF2F70116820F900F90DF91CF91A6
S11304D01F910F91FF90EF900895CF93DF93CDB7C5
S11304E0DEB7A1970FB6F894DEBF0FBECDBFDC0117
S11304F00D900020E9F71197A81BB90B169709F086
S113050053C0DB010D900020E9F71197A61BB70B30
S1130510169709F04CC0FC0183E4898385E48A833F
S113052086E0DE01139601900D928A95E1F786E04C
S1130530FB01DE01199601900D928A95E1F7BE0147
S11305406F5F7F4F8EE090E00E945305BE01615FB4
S11305507F4F82E190E00E94ED0519A20E949E0067
S113056049E951E060E080E00E94D200AE01415FC1
S11305705F4F60E081E00E94D20080ED97E00E942E
S113058046070E949E008F858335A1F488898534AF
S1130590A1F468EA71E0CE010F960E949607892BB8
S11305A079F080E090E00EC080E090E00BC080E045
S11305B090E008C080E090E005C080E090E002C0D8
S11305C081E090E0A1960FB6F894DEBF0FBECDBFD8
S11305D0DF91CF910895CF93DF93CDB7DEB76697C0
S11305E00FB6F894DEBF0FBECDBF0E947E060E94F8
S11305F088000E94440588E0E0E0F1E0DE011F96F7
S113060001900D928A95E1F70E947E018091AA02E1
S11306109091AB02892B29F084EF91E00E94460768
S1130620F3CF0E949E000E94530008C00E947E01E6
S11306308091AA029091AB02892B21F40E94C206F8
S11306408823A1F38091AA029091AB02892BE1F651
S1130650CE0101960E94D8018091AA029091AB022A
S1130660892B91F6CE0108960E9422028091AA025B
S11306709091AB02892B41F6BE01685F7F4FCE019A
S113068001960E946D02892B09F4E6C00E949E0027
S113069047EB51E060E080E00E94D20046EC51E07C
S11306A060E081E00E94D20080ED97E00E9446075E
S11306B0CC24C394D12CE12CF12CC9C00E947E011E
S11306C08091AA029091AB02892B09F09DCF0E94E0
S11306D09E00F701EE0FFF1F81E090E08C0F9D1F3D
S11306E0E80FF91F4685578560E080E00E94D2003C
S11306F057019FEFA91AB90A84E0A816B10484F43B
S1130700F501EE0FFF1F81E090E08C0F9D1FE80FB5
S1130710F91F4685578560E081E00E94D2000FC032
S113072045E351E060E081E00E94D20008C00E94ED
S11307307E018091AA029091AB02892B29F40E9438
S1130740C206182F882399F38091AA029091AB02D4
S1130750892B09F059CF8CE291E00E9446071234AC
S113076029F492E0E916F1040CF470C0113439F460
S11307701E141F0424F481E0E81AF10868C01A3238
S113078079F40E949E0045ED51E060E080E00E9413
S1130790D20088EE93E00E944607C12CD12C57C0AA
S11307A0F701EE0FFF1F81E090E08C0F9D1FE80F13
S11307B0F91F0684F785E02D8081181348C0123391
S11307C061F018F4113331F042C01333C9F014331B
S11307D051F13DC00E94A0043AC00E949E004EE127
S11307E052E060E080E00E94D20041EE51E060E01F
S11307F081E00E94D20080ED97E00E94460727C066
S11308000E949E0049E252E060E080E00E94D20033
S113081041EE51E060E081E00E94D20080ED97E07B
S11308200E94460714C00E949E0045E352E060E027
S113083080E00E94D20041EE51E060E081E00E943D
S1130840D20080ED97E00E94460701C07501C114F3
S1130850D10409F033CFD8CE0E949E0044EF51E07A
S113086060E080E00E94D20044E052E060E081E079
S11308700E94D20080ED97E00E944607C5CECF9239
S1130880DF92EF92FF920F931F93CF93DF93CDB735
S1130890DEB7BC01EDB6FEB6FC0101900020E9F71D
S11308A03197AF01481B590B6A0183E0C80ED11C74
S11308B0EDB7FEB7EC19FD090FB6F894FEBF0FBEF5
S11308C0EDBF0DB71EB70F5F1F4F83E4818383E530
S11308D0F801818342838DB79EB704960E948707EF
S11308E0B801C6010E9453050FB6F894FEBE0FBEB0
S11308F0EDBEDF91CF911F910F91FF90EF90DF90AC
S1130900CF900895CF93DF9300D01F92CDB7DEB779
S1130910BE016F5F7F4F83E090E00E94ED05898107
S1130920833529F48A81833521F48B8103C085E4DE
S113093001C085E40F900F900F90DF91CF9108953F
S11309400F931F93CF93DF93CDB7DEB72A970FB6DC
S1130950F894DEBF0FBECDBFFE01319689E0DF0102
S11309601D928A95E9F70E949E004BE352E060E0F5
S113097080E00E94D2004BE452E060E081E00E94FB
S1130980D20000E010E00E94C2068A8790ED980F22
S11309909A30D8F408301105C4F4E1E0F0E0EC0F2B
S11309A0FD1FE00FF11F808362E0600FAE01465F20
S11309B05F4F81E00E94D2000F5F1F4F8FE493ECE2
S11309C00197F1F700C00000DECF8332C1F51016A5
S11309D01106ACF5E1E0F0E0EC0FFD1FE00FF11FB4
S11309E01082CE0101960E943F040E948204182FB7
S11309F00E949E001F3469F44EE452E060E080E0FF
S1130A000E94D2004FE552E060E081E00E94D200F3
S1130A100CC041E752E060E080E00E94D20044E86C
S1130A2052E060E081E00E94D2009FEBA7E2B9E0CF
S1130A309150A040B040E1F700C000001AC08A32D3
S1130A4009F0A1CF0E949E0046E952E060E080E0F8
S1130A500E94D2004FE952E060E081E00E94D2009F
S1130A602FE78AE196E0215080409040E1F700C0F2
S1130A7000002A960FB6F894DEBF0FBECDBFDF91FB
S1130A80CF911F910F9108951092C50083E3809335
S1130A90C4001092C00088E98093C10086E080936E
S1130AA0C20078940895AC0120E030E00CC090912D
S1130AB0C00095FFFCCFFB01E20FF31F90819093E0
S1130AC0C6002F5F3F4F241735078CF38091C00079
S1130AD086FFFCCFE0ECF0E08081806480830895A1
S1130AE0FC0101900020E9F73197BC019F01281B0C
S1130AF0390BC9010E94530508951F920F920FB636
S1130B000F9211242F933F934F938F939F93EF93BF
S1130B10FF934091C6008091AE029091AF0201967E
S1130B208F779078992324F4019780689F6F0196BA
S1130B302091AC023091AD028217930759F0E091F5
S1130B40AE02F091AF02E055FD4F40839093AF02A7
S1130B508093AE02FF91EF919F918F914F913F91BE
S1130B602F910F900FBE0F901F9018954091AE02D9
S1130B705091AF022091AC023091AD0281E0421756
S1130B80530709F080E090E00895CF93DF93EC01E0
S1130B900E94B605892BE1F4E091AC02F091AD021C
S1130BA0E055FD4F808188838091AC029091AD0225
S1130BB001968F779078992324F4019780689F6F2A
S1130BC001969093AD028093AC0281E090E002C064
S1130BD080E090E0DF91CF910895AF92BF92CF92E1
S1130BE0DF92EF92FF920F931F93CF93DF931F92A5
S1130BF0CDB7DEB76C015B01E12CF12C00E010E015
S1130C0019C0CE0101960E94C505892B51F0F5014A
S1130C10E00FF11F898180830F5F1F4FE12CF12CBE
S1130C2009C08FE39CE90197F1F700C000009FEF32
S1130C30E91AF90A0C151D0524F484E6E816F104F2
S1130C4004F3F501E00FF11F10820F90DF91CF91B3
S1130C501F910F91FF90EF90DF90CF90BF90AF90D6
S1130C600895AF92BF92CF92DF92EF92FF920F93CB
S1130C701F93CF93DF931F92CDB7DEB76C015B0157
S1130C80E12CF12C00E010E019C0CE0101960E9485
S1130C90C505892B51F0D501A00FB11F89818C9313
S1130CA00F5F1F4FE12CF12C09C08FE39CE90197E2
S1130CB0F1F700C000009FEFE91AF90A0C151D05B1
S1130CC024F482E3E816F10404F30C151D052CF456
S1130CD0F501E00FF11F108204C0F501EC0DFD1DBC
S1130CE01082C8010F90DF91CF911F910F91FF9057
S1130CF0EF90DF90CF90BF90AF90089584B1836060
S1130D0084B98AB1806C8AB98AB1837C8AB98BB17F
S1130D108C638BB90895CF93DF9300D0CDB7DEB742
S1130D201A82198205C089819A8101969A838983DE
S1130D3089819A81883E9340B0F30F900F90DF91A0
S1130D40CF9108951F93CF93DF93182FC0E0D0E085
S1130D5012C00E948B0629B181E090E0012E02C0EE
S1130D60880F991F0A94E2F78223D81302C0CF5F39
S1130D7001C0C0E0D82FC73061F78D2FDF91CF912C
S1130D801F910895CF9385B1836085B98BB1806C31
S1130D908BB985B18D7F85B985E00E94A206882331
S1130DA011F0C0E001C0C1E384E00E94A2068111F9
S1130DB001C0C2E383E00E94A206811101C0C3E323
S1130DC082E00E94A206811101C0C1E485B1826063
S1130DD085B985B18E7F85B985E00E94A20681110F
S1130DE001C0C4E384E00E94A206811101C0C5E3EE
S1130DF083E00E94A206811101C0C6E382E00E9442
S1130E00A206811101C0C2E485B1816085B98BB1AC
S1130E108F778BB985E00E94A206811101C0C7E3D8
S1130E2084E00E94A206811101C0C8E383E00E940D
S1130E30A206811101C0C9E382E00E94A2068111C9
S1130E4001C0C3E48BB180688BB98BB18F7B8BB944
S1130E5085E00E94A206811101C0CAE284E00E94DA
S1130E60A206811101C0C0E383E00E94A2068111A1
S1130E7001C0C3E282E00E94A206811101C0C4E461
S1130E808BB180648BB98C2FCF910895AC0114BCC5
S1130E9085E085BD10926E0081EF86BD20E030E0D4
S1130EA008C0A99BFECF91EF96BD92E095BB2F5F42
S1130EB03F4F24173507ACF315BC0895AC0114BC9F
S1130EC081E085BD10926E0085EF86BD20E030E0A4
S1130ED009C0A99BFECF95EF96BD95B3926095BBD3
S1130EE02F5F3F4F24173507A4F315BC0895FB016A
S1130EF0DC018D91019080190110D9F3990B0895AB
S1130F00FB01DC0101900D920020E1F70895FB0143
S1130F10DC014150504048F001900D920020C9F787
S1130F2001C01D9241505040E0F70895FB015191DA
S1130F305523A9F0BF01DC014D9145174111E1F79B
S1130F4059F4CD010190002049F04D914015411113
S1130F50C9F3FB014111EFCF81E090E001970895BF
S1070F60F894FFCF2F
S1130F6414021C02270233022042616E636F20556F
S1130F74465247532000446967697465206361726B
S1130F8474616F3A2000202020202020202020207B
S1130F9420202020202000535400435400202020EB
S1130FA420464F52412020444500202020204F5009
S1130FB445524143414F00534C00434C00202020F0
S1130FC420204341495841002020204C49424552A5
S1130FD441444F210044696769746520636F6469FF
S1130FE4676F3A005F5F5F5F5F5F004469676974BE
S1130FF4652073656E68613A0052657370205365A9
S1131004727669646F723A004E616F206175746F11
S113101472697A61646F00436F6469676F207661F3
S11310246C69646F210050726F63657373616E64DD
S11310346F2E2E2E00566F6C74616E646F2E2E2EDE
S113104400456D20646573656E766F6C76696D65B5
S11310546E746F00436F6E746120696E76616C699F
S11310646461210054656E7465206E6F76616D65EC
S11310746E746500312D536171756500322D4465BC
S1131084706F7369746F00332D506167616D656EA1
S1131094746F00342D53616C646F0056616C6F720D
S11310A420646F2073617175653A005224005361A2
S11310B4717565207265616C697A61646F2100528F
S11310C46574697265206F2064696E686569726FFE
S11310D40053616C646F20696E7375666963696536
S11310E46E74650054656E7465206F7574726F2038
S11310F476616C6F72004F7065726163616F006337
S10D1104616E63656C6164610000B4
S9030000FC
