S010000050726F6A65746F312E7372656300
S11300000C9434000C9451000C9451000C94510045
S11300100C9451000C9451000C9451000C94510018
S11300200C9451000C9451000C9451000C94510008
S11300300C9451000C9451000C9451000C945100F8
S11300400C9451000C9451000C9451000C945100E8
S11300500C9451000C9451000C9451000C945100D8
S11300600C9451000C94510011241FBECFEFD8E022
S1130070DEBFCDBF12E0A0E0B1E0EAE5FDE002C0E2
S113008005900D92A437B107D9F722E0A4E7B2E0B6
S113009001C01D92A637B207E1F70E949F020C949B
S11300A0AB060C94000020E04CE268E071E080E0D4
S11300B00E94F10046E151E060E081E00E94D2003C
S11300C00895CF93C82F88B1807F9C2F92959F70FD
S11300D0892B88B988B18F7D88B988B1806188B946
S11300E088B18F7E88B984E690E00E94620688B168
S11300F0807FCF70C82BC8B988B1806188B988B1B6
S11301008F7E88B982E090E00E944A06CF910895DC
S11301108FEF87B98AE090E00E944A0682E00E944D
S1130120610088E20E9461008CE00E94610086E028
S11301300E94610081E00E946100089581E00E94B4
S1130140610080E80E9461000895CF93DF93EC0181
S113015023C098B1907F82958F70892B88B988B11C
S1130160806288B988B1806188B988B18F7E88B986
S113017088EC90E00E94620698B18991907F8F701C
S1130180892B88B988B1806188B988B18F7E88B994
S113019082E090E00E944A0688818111DACFDF91E3
S11301A0CF910895CF93DF93EA01811108C06031A4
S11301B030F4862F8F7080680E94610009C08130FE
S11301C039F4603128F4862F8F70806C0E946100AE
S11301D0CE010E94A50080E80E946100DF91CF91CA
S11301E008956F927F928F929F92AF92BF92CF9217
S11301F0DF92EF92FF920F931F93CF93DF93CDB7CC
S1130200DEB761970FB6F894DEBF0FBECDBF782E70
S11302104A01622ECDB6DEB6ADB6BEB6FB01019084
S11302200020E9F73197E61BF70B0E2FE13128F494
S1130230AB0160E00E94D20042C0FF2771968DB7E7
S11302409EB78E1B9F0B0FB6F8949EBF0FBE8DBF3B
S113025001967C010E947B06D7010D900020E9F7EE
S1130260119781E1E6E2F1E001900D928A95E1F7C0
S113027010E01BC040E150E0B701610F711DCE01D9
S113028001960E948206198AAE014F5F5F4F60E0BB
S1130290872D0E94D200C4010E944A060E94C6050E
S11302A0892B11F0662059F01F5F011718F76110B0
S11302B0DFCF0FB6F894BEBE0FBEADBE05C00FB6FD
S11302C0F894BEBE0FBEADBE0FB6F894DEBE0FBE30
S11302D0CDBE61960FB6F894DEBF0FBECDBFDF91E1
S11302E0CF911F910F91FF90EF90DF90CF90BF902F
S11302F0AF909F908F907F906F900895EF92FF92B0
S11303000F931F93CF93DF9300D0CDB7DEB77C015B
S11303100E949E0047E351E060E080E00E94D2002A
S113032046E451E060E081E00E94D20000E010E089
S113033019C00E94C60590ED980F9A3098F4F70101
S1130340E00FF11F808389831A82AE014F5F5F4FF4
S1130350602F81E00E94D2000F5F1F4F88EC90E075
S11303600E944A060630110524F3F70116820F9005
S11303700F90DF91CF911F910F91FF90EF9008950F
S1130380EF92FF920F931F93CF93DF9300D0CDB7DB
S1130390DEB77C010E949E004DE451E060E080E005
S11303A00E94D20046E451E060E081E00E94D20065
S11303B000E010E01AC00E94C60590ED980F9A3034
S11303C0A0F4F701E00FF11F80838AE289831A8287
S11303D0AE014F5F5F4F602F81E00E94D2000F5F3C
S11303E01F4F88EC90E00E944A06063011051CF36A
S11303F0F70116820F900F90DF91CF911F910F910B
S1130400FF90EF900895CF93DF93CDB7DEB7AE970B
S11304100FB6F894DEBF0FBECDBFDC010D900020F7
S1130420E9F71197A81BB90B1697F1F5DB010D90AD
S11304300020E9F71197A61BB70B1697C1F5FC012D
S113044083E4898385E48A8386E0DE011396019040
S11304500D928A95E1F786E0FB01DE011996019081
S11304600D928A95E1F7BE016F5F7F4F8EE090E0B9
S11304700E942905BE01615F7F4F82E190E00E94E6
S113048046058F858335B1F488898534B1F46BE5ED
S113049071E0CE010F960E94910621E0892B09F0AC
S11304A020E0822F90E00BC080E090E008C080E064
S11304B090E005C080E090E002C080E090E0AE965D
S11304C00FB6F894DEBF0FBECDBFDF91CF91089574
S11304D0CF93DF9300D01F92CDB7DEB7BE016F5F1D
S11304E07F4F82E090E00E945E05029711F58981BA
S11304F0833581F49A81943569F481E090E0909396
S11305007502809374026AE671E082E090E00E94D2
S113051029050FC0833569F48A818C3451F4109213
S11305207502109274026DE671E082E090E00E9420
S113053029050F900F900F90DF91CF910895CF93DD
S1130540DF93CDB7DEB766970FB6F894DEBF0FBE64
S1130550CDBF0E9482050E9488000E941B0588E08E
S1130560E0E0F1E0DE011F9601900D928A95E1F73B
S1130570EE24EA94FE2C0E94680280917402909109
S11305807502892BD1F081E0E816F10489F00E940C
S11305909E0040E751E060E080E00E94D20045E325
S11305A051E060E081E00E94D200EE24E394F12C5B
S11305B088EC90E00E944A06DECFE114F10421F0B9
S11305C00E949E00E12CF12C0E94530008C00E945E
S11305D068028091740290917502892B21F40E9423
S11305E0C6058823A1F38091740290917502892B2A
S11305F011F6CE0101960E947E010E94680280914C
S1130600740290917502892B09F0B5CFCE0108963A
S11306100E94C0010E946802809174029091750248
S1130620892B09F0A8CFBE01685F7F4FCE010196E8
S11306300E940302892B09F4E6C00E949E0041E84F
S113064051E060E080E00E94D20040E951E060E0C7
S113065081E00E94D20080ED97E00E944A0688243F
S11306608394912CC12CD12CC9C00E946802809122
S1130670740290917502892B09F07DCF0E949E002F
S1130680F601EE0FFF1F81E090E08C0F9D1FE80F35
S1130690F91F4685578560E080E00E94D20056012C
S11306A09FEFA91AB90A84E0A816B10484F4F501ED
S11306B0EE0FFF1F81E090E08C0F9D1FE80FF91FE4
S11306C04685578560E081E00E94D2000FC045E373
S11306D051E060E081E00E94D20008C00E946802FC
S11306E08091740290917502892B29F40E94C605A9
S11306F0182F882399F38091740290917502892BA5
S113070009F039CF8CE291E00E944A06123429F4B0
S113071092E0C916D1040CF470C0113439F41C14DD
S11307201D0424F481E0C81AD10868C01A3279F48F
S11307300E949E004FE951E060E080E00E94D200F8
S113074088EE93E00E944A06812C912C57C0F60152
S1130750EE0FFF1F81E090E08C0F9D1FE80FF91F43
S11307600684F785E02D8081181348C0113349F0C1
S113077018F41A3279F142C0123331F01333B9F05C
S11307803DC00E9477043AC00E949E0048EE51E0AA
S113079060E080E00E94D2004BEA51E060E081E03A
S11307A00E94D20080ED97E00E944A0627C00E9472
S11307B09E0043EF51E060E080E00E94D2004BEAEB
S11307C051E060E081E00E94D20080ED97E00E9459
S11307D04A0614C00E949E004FEF51E060E080E0A2
S11307E00E94D2004BEA51E060E081E00E94D20016
S11307F080ED97E00E944A0601C0650181149104CE
S113080009F033CFB8CE0E949E004EEB51E060E079
S113081080E00E94D2004EEC51E060E081E00E9452
S1130820D20080ED97E00E944A06A5CECF92DF92D7
S1130830EF92FF920F931F93CF93DF93CDB7DEB761
S1130840BC01EDB6FEB6FC0101900020E9F731973A
S1130850AF01481B590B6A0183E0C80ED11CEDB7E8
S1130860FEB7EC19FD090FB6F894FEBF0FBEEDBF3D
S11308700DB71EB70F5F1F4F83E4818383E5F80133
S1130880818342838DB79EB704960E948206B80185
S1130890C6010E9429050FB6F894FEBE0FBEEDBE38
S11308A0DF91CF911F910F91FF90EF90DF90CF9048
S11308B00895CF93DF9300D01F92CDB7DEB7BE016A
S11308C06F5F7F4F83E090E00E9446058981833506
S11308D029F48A81833521F48B8103C085E401C026
S11308E085E40F900F900F90DF91CF9108950F93AF
S11308F01F93CF93DF93CDB7DEB72A970FB6F89443
S1130900DEBF0FBECDBFFE01319689E0DF011D922F
S11309108A95E9F70E949E0045E052E060E080E09D
S11309200E94D20045E152E060E081E00E94D200E2
S113093000E010E00E94C6058A8790ED980F9A3077
S1130940D8F408301105C4F4E1E0F0E0EC0FFD1F29
S1130950E00FF11F808362E0600FAE01465F5F4FDE
S113096081E00E94D2000F5F1F4F8FE493EC019748
S1130970F1F700C00000DECF8332C1F51016110676
S1130980ACF5E1E0F0E0EC0FFD1FE00FF11F108289
S1130990CE0101960E9416040E945904182F0E9449
S11309A09E001F3469F448E152E060E080E00E9458
S11309B0D20049E252E060E081E00E94D2000CC023
S11309C04BE352E060E080E00E94D2004EE452E04B
S11309D060E081E00E94D2009FEBA7E2B9E0915071
S11309E0A040B040E1F700C000001AC08A3209F00C
S11309F0A1CF0E949E0040E652E060E080E00E94A9
S1130A00D20049E652E060E081E00E94D2002FE784
S1130A108AE196E0215080409040E1F700C0000058
S1130A202A960FB6F894DEBF0FBECDBFDF91CF91EB
S1130A301F910F9108951092C50083E38093C40021
S1130A401092C00088E18093C10086E08093C200C8
S1130A500895AC0120E030E00CC09091C00095FFF7
S1130A60FCCFFB01E20FF31F90819093C6002F5F30
S1130A703F4F241735078CF38091C00086FFFCCFCD
S1130A80E0ECF0E08081806480830895AC0120E094
S1130A9030E00CC09091C0009923E4F7FB01E20F11
S1130AA0F31F9091C60090832F5F3F4F24173507A3
S1130AB08CF3FB01E40FF51F10820895DC0120E0A4
S1130AC030E040E050E00EC09091C00099236CF4F7
S1130AD0FB01E20FF31F9091C60090834F5F5F4FBD
S1130AE02F5F3F4F2A173B077CF34A175B072CF411
S1130AF0DB01A40FB51F1C9203C0A60FB71F1C92E5
S1130B00CA01089584B1836084B98AB1806C8AB9BA
S1130B108AB1837C8AB98BB18C638BB90895CF93E6
S1130B20DF9300D0CDB7DEB71A82198205C0898160
S1130B309A8101969A83898389819A81883E934018
S1130B40B0F30F900F90DF91CF9108951F93CF933F
S1130B50DF93182FC0E0D0E012C00E948F0529B1A6
S1130B6081E090E0012E02C0880F991F0A94E2F7F9
S1130B708223D81302C0CF5F01C0C0E0D82FC73092
S1130B8061F78D2FDF91CF911F910895CF9385B198
S1130B90836085B98BB1806C8BB985B18D7F85B944
S1130BA085E00E94A605882311F0C0E001C0C1E3DE
S1130BB084E00E94A605811101C0C2E383E00E9483
S1130BC0A605811101C0C3E382E00E94A60581113C
S1130BD001C0C1E485B1826085B985B18E7F85B9D4
S1130BE085E00E94A605811101C0C4E384E00E944F
S1130BF0A605811101C0C5E383E00E94A605811109
S1130C0001C0C6E382E00E94A605811101C0C2E4CE
S1130C1085B1816085B98BB18F778BB985E00E94EE
S1130C20A605811101C0C7E384E00E94A6058111D5
S1130C3001C0C8E383E00E94A605811101C0C9E395
S1130C4082E00E94A605811101C0C3E48BB18068D3
S1130C508BB98BB18F7B8BB985E00E94A60581117E
S1130C6001C0CAE284E00E94A605811101C0C0E36C
S1130C7083E00E94A605811101C0C3E282E00E94C4
S1130C80A605811101C0C4E48BB180648BB98C2F9B
S1130C90CF910895AC0114BC85E085BD10926E001F
S1130CA081EF86BD20E030E008C0A99BFECF91EF24
S1130CB096BD92E095BB2F5F3F4F24173507ACF3E9
S1130CC015BC0895AC0114BC81E085BD10926E0082
S1130CD085EF86BD20E030E009C0A99BFECF95EFEB
S1130CE096BD95B3926095BB2F5F3F4F2417350790
S1130CF0A4F315BC0895FB01DC0101900D920020C2
S1130D00E1F70895FB01DC014150504048F00190A7
S1130D100D920020C9F701C01D9241505040E0F7E8
S1130D200895FB0151915523A9F0BF01DC014D91B8
S1130D3045174111E1F759F4CD010190002049F024
S1130D404D9140154111C9F3FB014111EFCF81E0F1
S10D0D5090E001970895F894FFCF96
S1130D5ADE01E601F101FD012042616E636F205557
S1130D6A4652475320004469676974652063617277
S1130D7A74616F3A20002020202020202020202087
S1130D8A2020202020200044696769746520636F4D
S1130D9A6469676F3A005F5F5F5F5F5F004469671A
S1130DAA6974652073656E68613A004E616F20410B
S1130DBA75746F72697A61646F00435400434C001E
S1130DCA464F5241204445204F5045524143414FDA
S1130DDA00436F6469676F2076616C69646F2100F0
S1130DEA50726F63657373616E646F2E2E2E005694
S1130DFA6F6C74616E646F2E2E2E00456D206465CF
S1130E0A73656E766F6C76696D656E746F00436F89
S1130E1A6E746120696E76616C696461210054653F
S1130E2A6E7465206E6F76616D656E746500312D22
S1130E3A536171756500322D4465706F7369746FFF
S1130E4A00332D506167616D656E746F002A2D53EE
S1130E5A616C646F0056616C6F7220646F207361F9
S1130E6A7175653A00522400536171756520726583
S1130E7A616C697A61646F210052657469726520D4
S1130E8A6F2064696E686569726F0053616C646F80
S1130E9A20696E737566696369656E746500546565
S1130EAA6E7465206F7574726F2076616C6F720050
S1130EBA4F7065726163616F0063616E63656C6133
S1070ECA646100005B
S9030000FC
