S010000050726F6A65746F312E7372656300
S11300000C943C000C9459000C9459000C94590025
S11300100C9459000C9459000C9459000C945900F8
S11300200C9459000C9459000C9459000C943C0203
S11300300C9459000C9459000C9459000C945900D8
S11300400C9459000C9459000C94A3070C94590077
S11300500C9459000C9459000C9459000C945900B8
S11300600C9459000C9459002E0342034D03580379
S11300708B034F0455046B0411241FBECFEFD8E04B
S1130080DEBFCDBF12E0A0E0B1E0E2EDF5E102C0D9
S113009005900D92AE3FB107D9F723E0AEEFB2E081
S11300A001C01D92A239B207E1F70E94F8020C9434
S11300B0E70A0C94000048E051E063E080E00E940D
S11300C0EB0043E151E061E081E00E94EB0088EB4A
S11300D09BE00E944A0A0E94B70042E251E062E0BB
S11300E080E00E94EB0040E351E061E081E00E9487
S11300F0EB000895CF93C82F88B1807F9C2F9295F1
S11301009F70892B88B988B18F7D88B988B1806147
S113011088B988B18F7E88B984E690E00E94620A2B
S113012088B1807FCF70C82BC8B988B1806188B985
S113013088B18F7E88B982E090E00E944A0ACF910C
S113014008958FEF87B98AE090E00E944A0A82E01E
S11301500E947A0088E20E947A008CE00E947A0071
S113016086E00E947A0081E00E947A00089581E08E
S11301700E947A0080E80E947A000895CF93DF936A
S1130180EC0123C098B1907F82958F70892B88B938
S113019088B1806288B988B1806188B988B18F7E5E
S11301A088B988EC90E00E94620A98B18991907FA6
S11301B08F70892B88B988B1806188B988B18F7EA6
S11301C088B982E090E00E944A0A88818111DACFDE
S11301D0DF91CF910895CF93DF93EA01811108C095
S11301E0603130F4862F8F7080680E947A0009C0D5
S11301F0813039F4603128F4862F8F70806C0E942E
S11302007A00CE010E94BE0080E80E947A00DF914D
S1130210CF910895EF92FF920F931F93CF93DF93A3
S113022000D0CDB7DEB77C010E94B7004FE351E0A8
S113023060E080E00E94EB004EE451E060E081E089
S11302400E94EB0000E010E01DC00E94E308892B2F
S1130250F1F40E94A60990ED980F9A3098F4F701F2
S1130260E00FF11F808389831A82AE014F5F5F4FD5
S1130270602F81E00E94EB000F5F1F4F88EC90E03D
S11302800E944A0A0630110504F3F70116820F9002
S11302900F90DF91CF911F910F91FF90EF900895F0
S11302A0EF92FF920F931F93CF93DF9300D0CDB7BC
S11302B0DEB77C010E94B70045E551E060E080E0D4
S11302C00E94EB004EE451E060E081E00E94EB000C
S11302D000E010E01EC00E94E308892BF9F40E949C
S11302E0A60990ED980F9A30A0F4F701E00FF11FE2
S11302F080838AE289831A82AE014F5F5F4F602F49
S113030081E00E94EB000F5F1F4F88EC90E00E9499
S11303104A0A06301105FCF2F70116820F900F907D
S1130320DF91CF911F910F91FF90EF900895CF939C
S1130330DF93CDB7DEB7AE970FB6F894DEBF0FBE2E
S1130340CDBFDC010D900020E9F71197A81BB90B74
S1130350169709F050C0DB010D900020E9F71197C2
S1130360A61BB70B169709F049C0FC0183E48983E7
S113037085E48A8386E0DE01139601900D928A95C6
S1130380E1F786E0FB01DE01199601900D928A9552
S1130390E1F7BE016F5F7F4F8EE090E00E94760729
S11303A0BE01615F7F4F80E2FB0111928A95E9F7FC
S11303B08FE190E00E941E090E94B70043E651E0DD
S11303C064E080E00E94EB0080ED97E00E944A0A1E
S11303D00E94B7008F858335A1F488898534A1F400
S11303E06EE671E0CE010F960E94CD0A892B79F05A
S11303F080E090E00EC080E090E00BC080E090E0F0
S113040008C080E090E005C080E090E002C081E098
S113041090E0AE960FB6F894DEBF0FBECDBFDF916D
S1130420CF91089584B1806184B985B18F7E85B9F7
S1130430109280008BE0809381008AEF90E090938B
S113044089008093880082E080936F000895CF93A1
S1130450DF9300D0CDB7DEB783E489838FE48A834A
S1130460BE016F5F7F4F82E090E00E9476070F909D
S11304700F90DF91CF9108951F920F920FB60F92B4
S113048011242F933F934F935F936F937F938F9395
S11304909F93AF93BF93EF93FF9380910003909149
S11304A00103A0910203B09103030196A11DB11DA4
S11304B08093000390930103A0930203B09303037A
S11304C08091000390910103A0910203B091030372
S11304D080359644A105B105A0F180910003909167
S11304E00103A0910203B091030380339547A10552
S11304F0B10538F581E08093FF02609100037091AB
S1130500010380910203909103032AEF30E040E05D
S113051050E00E947B0A672B682B692B91F4909121
S1130520FE0281E0911180E08093FE028091FE0240
S1130530882321F085B1806185B903C085B18F7EA0
S113054085B98091000390910103A0910203B091B9
S1130550030380339547A105B10588F00E94270263
S11305600E94F206109200031092010310920203FB
S1130570109203031092FF0285B18F7E85B9FF911B
S1130580EF91BF91AF919F918F917F916F915F9107
S11305904F913F912F910F900FBE0F901F90189580
S11305A010920003109201031092020310920303AD
S11305B01092FF0285B18F7E85B908950E94B7001D
S11305C04DE751E060E080E00E94EB004AE851E032
S11305D060E081E00E94EB0004C088EC90E00E949F
S11305E04A0A0E94E308892BC1F70E94B7000895C4
S11305F0CF93DF93CDB7DEB766970FB6F894DEBF1F
S11306000FBECDBF0E9462090E94A1000E9467072D
S11306100E941202789488E0E0E0F1E0DE011F9687
S113062001900D928A95E1F700E0E12CF12C07C0CE
S113063001E005C002E003C003E001C005E00E9440
S1130640E308892B21F00E94DE0200E0F8CF802F1E
S113065090E0FC01EC5CFF4F0C949D0A0E94D002D8
S11306600E94B7000E945B0004C00E94E308892B2B
S113067021F40E94A6098823C1F30E94E308892B70
S1130680B9F2DDCF0E94D002CE0101960E940A0188
S11306900E94E308892B71F2D2CF0E94D002CE01CE
S11306A008960E9450010E94E308892B29F2C7CFC3
S11306B00E94D002BE01685F7F4FCE0101960E9466
S11306C09701892BA1F00E94B70047E951E060E04F
S11306D080E00E94EB0045EA51E060E081E00E9486
S11306E0EB0080ED97E00E944A0A04E0A8CF0E9444
S11306F0B70044EB51E060E080E00E94EB0044EC82
S113070051E060E081E00E94EB0080ED97E00E9400
S11307104A0A00E094CF0E94D0020E94B700F70179
S1130720EE0FFF1F81E090E08C0F9D1FE80FF91F73
S11307304685578560E080E00E94EB00C701019682
S1130740843091057CF4880F991FE1E0F0E0EC0F10
S1130750FD1FE80FF91F4685578560E081E00E9480
S1130760EB0006C044ED51E060E081E00E94EB0044
S11307700E94E308892B09F062CF0E94A609182F72
S11307808823B1F38CE291E00E944A0A1234C1F545
S113079092E0E916F10464F767018FEFC81AD80AEA
S11307A00E94B700F601EE0FFF1F81E090E08C0F6E
S11307B09D1FE80FF91F4685578560E080E00E9481
S11307C0EB0092E0E90EF11C84E0E816F10484F4F5
S11307D0EE0CFF1CE1E0F0E0EC0FFD1FEE0DFF1D41
S11307E04685578560E081E00E94EB007601C0CF2A
S11307F044ED51E060E081E00E94EB007601B8CF67
S1130800113449F51E141F040CF0B2CF670191E0B6
S1130810C91AD1080E94B700F601EE0FFF1F81E04C
S113082090E08C0F9D1FE80FF91F4685578560E007
S113083080E00E94EB00EE0CFF1CE1E0F0E0EC0F26
S1130840FD1FEE0DFF1D4685578560E081E00E9487
S1130850EB0076018DCF1A3271F40E94B70046ED99
S113086051E060E080E00E94EB0088EE93E00E949B
S11308704A0A00E0E4CE123351F020F4113309F4B3
S1130880DDCEDDCE133329F0143329F0D8CE06E0C3
S1130890D6CE07E0D4CE0E94F20600E0D0CE0E946D
S11308A0D0020E94E30404E0CACE0E94D0020E9457
S11308B0B7004FEF51E060E080E00E94EB0042EEB1
S11308C051E060E081E00E94EB0080ED97E00E943F
S11308D04A0A04E0B4CE0E94D0020E94EB0504E070
S11308E0AECECF92DF92EF92FF920F931F93CF93EE
S11308F0DF93CDB7DEB7BC01EDB6FEB6FC010190C7
S11309000020E9F73197AF01481B590B6A0183E0D6
S1130910C80ED11CEDB7FEB7EC19FD090FB6F8945B
S1130920FEBF0FBEEDBF0DB71EB70F5F1F4F83E4B1
S1130930818383E5F801818342838DB79EB7049652
S11309400E94BE0AB801C6010E9476070FB6F89449
S1130950FEBE0FBEEDBEDF91CF911F910F91FF90B0
S1130960EF90DF90CF900895CF93DF9300D000D025
S11309701F92CDB7DEB7BE016F5F7F4F83E090E07B
S11309800E941E091C820E94B700AE014F5F5F4F98
S113099060E080E00E94EB0080ED97E00E944A0A4C
S11309A08981833529F48A81833521F48B8103C0BD
S11309B085E401C085E40F900F900F900F900F9085
S11309C0DF91CF9108950F931F93CF93DF93CDB70A
S11309D0DEB729970FB6F894DEBF0FBECDBFFE0178
S11309E0319687E0DF011D928A95E9F70E94B700EE
S11309F048E152E060E080E00E94EB0048E252E00F
S1130A0060E081E00E94EB0000E010E00E94E30857
S1130A10892B99F00E94B7004BE252E060E080E03D
S1130A200E94EB0048E352E060E081E00E94EB00AA
S1130A3088EC90E00E944A0AC3C00E94A60990ED87
S1130A40980F9A30D8F406301105C4F4E1E0F0E0D0
S1130A50EC0FFD1FE00FF11F80838887198662E089
S1130A60600FAE01485F5F4F81E00E94EB000F5FB3
S1130A701F4F88EC90E00E944A0AC8CF833209F0E5
S1130A808AC0101611060CF086C0E1E0F0E0EC0F0D
S1130A90FD1FE00FF11F10820E94E308892B99F0DB
S1130AA00E94B7004BE252E060E080E00E94EB005D
S1130AB048E352E060E081E00E94EB0088EC90E0C3
S1130AC00E944A0A7DC0063011052CF189818133C8
S1130AD011F58A818233F8F08B818033E0F08C81C8
S1130AE08033C8F08D818033B0F08E81803398F0EC
S1130AF00E94B70046E452E060E080E00E94EB0010
S1130B0044E552E060E081E00E94EB0080ED97E074
S1130B100E944A0A55C0CE0101960E9471040E94A7
S1130B20E308892B99F00E94B7004BE252E060E0A1
S1130B3080E00E94EB0048E352E060E081E00E9424
S1130B40EB0080ED97E00E944A0A3AC00E94B40488
S1130B50182F0E94B7001F3469F447EF51E060E09A
S1130B6080E00E94EB004FE552E060E081E00E94EB
S1130B70EB000CC04BE052E060E080E00E94EB0030
S1130B804AE652E060E081E00E94EB0088EB9BE0E3
S1130B900E944A0A15C08A3209F038CF0E94B70071
S1130BA047E752E060E080E00E94EB0040E852E05A
S1130BB060E081E00E94EB0080ED97E00E944A0A29
S1130BC029960FB6F894DEBF0FBECDBFDF91CF914B
S1130BD01F910F910895EF92FF920F931F93CF935C
S1130BE0DF93CDB7DEB7A9970FB6F894DEBF0FBE7B
S1130BF0CDBF83E4898386E58A830E94E308892B39
S1130C0099F00E94B7004BE252E060E080E00E945D
S1130C10EB0048E352E060E081E00E94EB0080EDED
S1130C2097E00E944A0AD1C0BE016F5F7F4F82E005
S1130C3090E00E9476070E94E308892B99F00E94B5
S1130C40B7004BE252E060E080E00E94EB0048E332
S1130C5052E060E081E00E94EB0080ED97E00E94AA
S1130C604A0AB3C0BE016D5F7F4F83E090E00E94EB
S1130C701E091E828B81833509F095C08C818635CF
S1130C8009F091C00D81FE017A9680E1DF011D9289
S1130C908A95E9F7003108F00FE00E94E308892BF8
S1130CA099F00E94B7004BE252E060E080E00E94BD
S1130CB0EB0048E352E060E081E00E94EB0080ED4D
S1130CC097E00E944A0A81C010E07E01BAE1EB0E6F
S1130CD0F11CB701C8010E941E09F701E00FF11FC2
S1130CE01082F70101900020E9F73197EE19FF090E
S1130CF0E230F10544F17E0186E0E80EF11C82E564
S1130D0094E29F838E83D70112961C928F01025026
S1130D101109A801BE01665E7F4FC7010E94AE0A99
S1130D20F70101900020E9F731978EE290E091837A
S1130D3080836AE170E06C0F7D1F600F711FC70133
S1130D400E94A30A1CC0319789F486E0EAE8F2E025
S1130D50DE01169601900D928A95E1F7BE01665E5A
S1130D607F4FCE0106960E94A30A09C087E0E0E9FE
S1130D70F2E0DE01169601900D928A95E1F70E9449
S1130D80B70047E952E060E080E00E94EB00AE016A
S1130D904A5F5F4F60E081E00E94EB0088EB9BE0DC
S1130DA00E944A0A12C00E94B70044EA52E060E07E
S1130DB080E00E94EB0042EB52E060E081E00E94A0
S1130DC0EB0088EB9BE00E944A0AA9960FB6F894C0
S1130DD0DEBF0FBECDBFDF91CF911F910F91FF906A
S1130DE0EF900895CF93DF9300D000D01F92CDB73A
S1130DF0DEB783E4898386E48A830E94E308892B2F
S1130E0099F00E94B70049EB52E060E080E00E9454
S1130E10EB0044EC52E060E081E00E94EB0080EDE6
S1130E2097E00E944A0A4BC0BE016F5F7F4F82E089
S1130E3090E00E9476070E94E308892B99F00E94B3
S1130E40B70049EB52E060E080E00E94EB0044EC24
S1130E5052E060E081E00E94EB0080ED97E00E94A8
S1130E604A0A2DC0BE016D5F7F4F82E090E00E9470
S1130E701E091D820E94B7008B81833581F48C8109
S1130E80863469F440ED52E060E080E00E94EB00BB
S1130E9047ED52E060E081E00E94EB000CC043EEBD
S1130EA052E060E080E00E94EB0045EF52E060E039
S1130EB081E00E94EB0080ED97E00E944A0A0F90C7
S1130EC00F900F900F900F90DF91CF910895109293
S1130ED0C50083E38093C4001092C00088E9809326
S1130EE0C10086E08093C20078940895EF92FF9247
S1130EF00F931F93CF93DF938C017B01C0E0D0E06D
S1130F000FC08091C00085FFFCCFF701EC0FFD1FDF
S1130F1080818093C60084E190E00E944A0A219671
S1130F20C017D10774F38091C00086FFFCCFE0ECBA
S1130F30F0E0808180648083DF91CF911F910F91D5
S1130F40FF90EF9008951F920F920FB60F92112405
S1130F502F933F934F935F936F937F938F939F93BD
S1130F60AF93BF93EF93FF93CF93DF9300D0CDB7AD
S1130F70DEB78091C60093E49983E09106039FEF66
S1130F809E0F953000F591E09E0F90930603F0E0DC
S1130F90E95FFC4F8083963009F000C180910B0318
S1130FA0895091E08B3008F490E090930D0388E42D
S1130FB08A83BE016F5F7F4F82E090E00E947607D4
S1130FC010920603EBC090910403992309F4BCC06A
S1130FD090910503933509F06EC0843569F481E07E
S1130FE080930D0384E58A83BE016F5F7F4F82E0A7
S1130FF090E00E947607A3C08C3459F410920D033C
S11310008A83BE016F5F7F4F82E090E00E94760783
S113101096C0883451F4E7E0F3E083E5808388E404
S1131020818382E0809306038AC02091100330916B
S113103011032F5F3F4F2F773078332334F421503F
S1131040310920683F6F2F5F3F4F40910E0350914D
S11310500F032417350759F0E0911003F0911103A1
S1131060EE5EFC4F90833093110320931003209184
S11310701003309111032F5F3F4F2F7730783323C4
S113108034F42150310920683F6F2F5F3F4F409166
S11310900E0350910F032417350709F450C0E09153
S11310A01003F0911103EE5EFC4F80833093110323
S11310B02093100344C020911003309111032F5F3B
S11310C03F4F2F773078332334F42150310920688F
S11310D03F6F2F5F3F4F40910E0350910F03241732
S11310E0350759F0E0911003F0911103EE5EFC4FC7
S11310F090833093110320931003209110033091B7
S113110011032F5F3F4F2F773078332334F421506E
S1131110310920683F6F2F5F3F4F40910E0350917C
S11311200F032417350759F0E0911003F0911103D0
S1131130EE5EFC4F808330931103209310031092D2
S11311400403109205032AC0833531F48093050308
S113115081E08093040322C0209110033091110395
S11311602F5F3F4F2F773078332334F421503109E8
S113117020683F6F2F5F3F4F40910E0350910F0344
S11311802417350759F0E0911003F0911103EE5E36
S1131190FC4F808330931103209310030F900F9022
S11311A0DF91CF91FF91EF91BF91AF919F918F917B
S11311B07F916F915F914F913F912F910F900FBE4F
S11311C00F901F90189580910D0390E00895409121
S11311D010035091110320910E0330910F0381E00D
S11311E04217530709F080E090E00895CF93DF930E
S11311F0EC010E94E708892BE1F4E0910E03F091E1
S11312000F03EE5EFC4F8081888380910E039091E2
S11312100F0301968F779078992324F401978068BF
S11312209F6F019690930F0380930E0381E090E0EB
S113123002C080E090E0DF91CF910895AF92BF9219
S1131240CF92DF92EF92FF920F931F93CF93DF938E
S11312501F92CDB7DEB76C015B01E12CF12C00E0ED
S113126010E019C0CE0101960E94F608892B51F0B6
S1131270F501E00FF11F898180830F5F1F4FE12C7F
S1131280F12C09C083EC99E00197F1F700C000004C
S11312909FEFE91AF90A0C151D0524F484E6E816F3
S11312A0F10404F3F501E00FF11F10820F90DF91B8
S11312B0CF911F910F91FF90EF90DF90CF90BF904F
S11312C0AF90089584B1836084B98AB1806C8AB97F
S11312D08AB1837C8AB98BB18C638BB90895CF931F
S11312E0DF9300D0CDB7DEB71A82198205C0898199
S11312F09A8101969A83898389819A81883E934051
S1131300B0F30F900F90DF91CF9108951F93CF9377
S1131310DF93182FC0E0D0E012C00E946F0929B1FA
S113132081E090E0012E02C0880F991F0A94E2F731
S11313308223D81302C0CF5F01C0C0E0D82FC730CA
S113134061F78D2FDF91CF911F910895CF9385B1D0
S1131350836085B98BB1806C8BB985B18D7F85B97C
S113136085E00E948609811104C00E94D002C1E375
S113137001C0C0E084E00E948609811103C00E947C
S1131380D002C2E383E00E948609811103C00E9457
S1131390D002C3E382E00E948609811103C00E9447
S11313A0D002C1E485B1826085B985B18E7F85B9EB
S11313B085E00E948609811103C00E94D002C4E323
S11313C084E00E948609811103C00E94D002C5E313
S11313D083E00E948609811103C00E94D002C6E303
S11313E082E00E948609811103C00E94D002C2E4F7
S11313F085B1816085B98BB18F778BB985E00E9407
S11314008609811103C00E94D002C7E384E00E94D0
S11314108609811103C00E94D002C8E383E00E94C0
S11314208609811103C00E94D002C9E382E00E94B0
S11314308609811103C00E94D002C3E48BB1806885
S11314408BB98BB18F7B8BB985E00E9486098111A2
S113145003C00E94D002CAE284E00E94860981117E
S113146003C00E94D002C0E383E00E948609811178
S113147003C00E94D002C3E282E00E948609811167
S113148003C00E94D002C4E48BB180648BB98C2F5A
S1131490CF910895AC0114BC85E085BD10926E0017
S11314A081EF86BD20E030E008C0A99BFECF91EF1C
S11314B096BD92E095BB2F5F3F4F24173507ACF3E1
S11314C015BC0895AC0114BC81E085BD10926E007A
S11314D085EF86BD20E030E009C0A99BFECF95EFE3
S11314E096BD95B3926095BB2F5F3F4F2417350788
S11314F0A4F315BC0895A1E21A2EAA1BBB1BFD017F
S11315000DC0AA1FBB1FEE1FFF1FA217B307E407DE
S1131510F50720F0A21BB30BE40BF50B661F771F36
S1131520881F991F1A9469F7609570958095909516
S11315309B01AC01BD01CF010895EE0FFF1F059083
S1131540F491E02D0994FB01DC010D900020E9F7F2
S1131550119701900D920020E1F70895FB01DC0141
S11315600D900020E9F711974150504028F0019068
S113157000200D92C9F708951C920895FB01DC0127
S11315804150504048F001900D920020C9F701C02D
S11315901D9241505040E0F70895FB0151915523AD
S11315A0A9F0BF01DC014D9145174111E1F759F450
S11315B0CD010190002049F04D9140154111C9F32E
S11315C0FB014111EFCF81E090E001970895F89479
S10515D0FFCF47
S11315D2F501FD010902110242414E52495546529A
S11315E24753004F204D454C484F522042414E43F1
S11315F24F00444947495445202320504152410059
S1131602494E53455249522043415254414F00449A
S1131612696769746520636F6469676F3A005F5F25
S11316225F5F5F5F004469676974652073656E6814
S1131632613A00416775617264652E2E2E004E6117
S11316426F206175746F72697A61646F0020202063
S113165220464F52412020444500202020204F5054
S113166245524143414F0042454D2056494E444F55
S1131672284129210050524F43455353414E444F70
S11316822E2E2E00434F4E544120494E56414C4972
S11316924441210054454E5445204E4F56414D4538
S11316A24E5445002000564F4C54414E444F2E2E6A
S11316B22E00456D20646573656E766F6C76696D78
S11316C2656E746F00312D536171756500322D5052
S11316D26167616D656E746F00332D53616C646F65
S11316E200342D536169720056616C6F7220646F0D
S11316F22073617175653A005224004F50204341B2
S11317024E43454C4144410053495354454D4120B5
S1131712424C4F512E004C696D697465206DE1781D
S1131722696D6F00522420313230302C3030005237
S113173265616C697A61646F2100696E73756669AB
S11317426369656E7465004F7065726163616F00F1
S113175263616E63656C616461005224302E3000F3
S11317625224302E30300053616C646F20617475E2
S1131772616C3A004572726F20616F206F6274650A
S1131782720073616C646F210053455353414F20BF
S11317924E414F0046494E414C495A414441210071
S11317A253657373616F0046696E616C697A616433
S11317B26121004572726F20616F2066696E616CEF
S11117C2697A61720073657373616F210000B0
S9030000FC
