:100000000C943C000C9459000C9459000C94590029
:100010000C9459000C9459000C9459000C945900FC
:100020000C9459000C9459000C9459000C945C02E7
:100030000C9459000C9459000C9459000C945900DC
:100040000C9459000C9459000C94550B0C945900C5
:100050000C9459000C9459000C9459000C945900BC
:100060000C9459000C9459007B038F039C03A90343
:10007000DC03860491049C0411241FBECFEFD8E05A
:10008000DEBFCDBF13E0A0E0B1E0ECECFDE102C0CB
:1000900005900D92AE35B107D9F723E0AEE5B3E098
:1000A00001C01D92AD3FB207E1F70E9431030C94ED
:1000B000E40E0C9400000E94A70048E051E061E0CB
:1000C00080E00E94DB0048E151E065E081E00E94B1
:1000D000DB000895CF93C82F88B1807F9C2F929525
:1000E0009F70892B88B988B18F7D88B988B180616C
:1000F00088B988B18F7E88B984E690E00E94110E9D
:1001000088B1807FCF70C82BC8B988B1806188B9A9
:1001100088B18F7E88B982E090E00E94F90DCF917E
:1001200008958FEF87B98AE090E00E94F90D82E090
:100130000E946A0088E20E946A008CE00E946A00C5
:1001400086E00E946A0081E00E946A00089581E0D2
:100150000E946A0080E80E946A000895CF93DF93AE
:10016000EC0123C098B1907F82958F70892B88B95C
:1001700088B1806288B988B1806188B988B18F7E82
:1001800088B988EC90E00E94110E98B18991907F17
:100190008F70892B88B988B1806188B988B18F7ECA
:1001A00088B982E090E00E94F90D88818111DACF50
:1001B000DF91CF910895CF93DF93EA01811108C0B9
:1001C000603130F4862F8F7080680E946A0009C009
:1001D000813039F4603128F4862F8F70806C0E9452
:1001E0006A00CE010E94AE0080E80E946A00DF91A2
:1001F000CF910895EF92FF920F931F93CF93DF93C8
:1002000000D0CDB7DEB77C010E94A7004EE151E0DF
:1002100060E080E00E94DB004DE251E060E081E0C0
:100220000E94DB0000E010E01DC00E94130B811152
:100230001EC00E94550D90ED980F9A3098F4F7016A
:10024000E00FF11F808389831A82AE014F5F5F4FF9
:10025000602F81E00E94DB000F5F1F4F88EC90E071
:100260000E94F90D0630110504F3F70116820F9074
:100270000F90DF91CF911F910F91FF90EF90089514
:10028000EF92FF920F931F93CF93DF9300D0CDB7E0
:10029000DEB77C010E94A70044E351E060E080E00B
:1002A0000E94DB004DE251E060E081E00E94DB0053
:1002B00000E010E01EC00E94130B81111FC00E94BD
:1002C000550D90ED980F9A30A0F4F701E00FF11F53
:1002D00080838AE289831A82AE014F5F5F4F602F6D
:1002E00081E00E94DB000F5F1F4F88EC90E00E94CE
:1002F000F90D06301105FCF2F70116820F900F90F0
:10030000DF91CF911F910F91FF90EF900895EF92A1
:10031000FF920F931F93CF93DF93CDB7DEB7AE97C6
:100320000FB6F894DEBF0FBECDBFDC010D900020EC
:10033000E9F71197A81BB90B169709F06BC0DB0101
:100340000D900020E9F71197A61BB70B169709F03F
:1003500064C07B018C0146E050E08EE593E00E9492
:10036000A60E1092640383E4898385E48A8386E081
:10037000F801DE01139601900D928A95E1F786E06F
:10038000F701DE01199601900D928A95E1F7BE0101
:100390006F5F7F4F8EE090E00E94280BBE01615F8F
:1003A0007F4F80E2DB011D928A95E9F78FE190E0B3
:1003B0000E94C60C0E94A70042E451E063E080E086
:1003C0000E94DB0088EE93E00E94F90D0E94A700D6
:1003D0008F858335A9F48889853491F46DE471E0C3
:1003E000CE010F960E94B50E892BD1F087E0EEE585
:1003F000F3E0DF011D928A95E9F780E090E012C0FA
:1004000087E0EEE5F3E0DF011D928A95E9F780E0F1
:1004100090E008C080E090E005C080E090E002C07D
:1004200081E090E0AE960FB6F894DEBF0FBECDBF70
:10043000DF91CF911F910F91FF90EF9008958EE57E
:1004400093E0089584B1806184B985B18F7E85B9C8
:10045000109280008BE0809381008AEF90E090936F
:100460008900809388000895EFE6F0E080818D7F19
:10047000808385B18F7E85B91092660310926703E1
:10048000109268031092690310926A030895CF9343
:10049000DF9300D0CDB7DEB783E489838FE48A830E
:1004A000BE016F5F7F4F82E090E00E94280B0F90AB
:1004B0000F90DF91CF9108951F920F920FB60F9278
:1004C00011242F933F934F935F936F937F938F9359
:1004D0009F93AF93BF93EF93FF93809167039091A6
:1004E0006803A0916903B0916A030196A11DB11D33
:1004F0008093670390936803A0936903B0936A03A2
:100500008091670390916803A0916903B0916A0399
:1005100080359644A105B105A0F1809167039091C3
:100520006803A0916903B0916A0380339547A105E0
:10053000B10538F581E0809366036091670370919F
:1005400068038091690390916A032AEF30E040E0EC
:1005500050E00E942A0E672B682B692B91F4909132
:10056000650381E0911180E08093650380916503CC
:10057000882321F085B1806185B903C085B18F7E64
:1005800085B98091670390916803A0916903B09148
:100590006A0380339547A105B105A0F00E94470288
:1005A0000E94B10A109267031092680310926903C7
:1005B00010926A031092660385B18F7E85B981E03F
:1005C0000E94160BFF91EF91BF91AF919F918F9178
:1005D0007F916F915F914F913F912F910F900FBE3F
:1005E0000F901F9018951092670310926803109255
:1005F000690310926A031092660385B18F7E85B9F4
:100600000895EFE6F0E08081826080830E94F3022B
:1006100008950E94A7004CE551E064E080E00E944C
:10062000DB0045E651E064E081E00E94DB0012C09F
:1006300080916B03882351F06AE773E082E090E0D9
:100640000E94280B10926B030E94F30288EC90E04A
:100650000E94F90D0E94130B8111EACF0E94A7009E
:100660000895CF93DF93CDB7DEB766970FB6F894B2
:10067000DEBF0FBECDBF0E94110D0E9491000E94EF
:10068000190B0E942202789488E0E0E0F1E0DE019C
:100690001F9601900D928A95E1F700E00DC001E0F0
:1006A0000BC002E009C003E007C005E005C004E09C
:1006B00003C004E001C004E080916B03882351F083
:1006C0006AE773E082E090E00E94280B10926B03CF
:1006D0000E94F3020E94130B882331F00E9434021F
:1006E0000E94090300E0E8CF802F90E0FC01EC5C61
:1006F000FF4F0C944C0E0E9434020E94A7000E94EF
:100700005B0004C00E94130B811104C00E94550DB0
:100710008823C1F30E94130B882309F2CDCF0E94D6
:100720000103CE0101960E94FA000E94130B882358
:1007300009F4B7CF00E0C0CF0E940103CE010896B4
:100740000E9440010E94130B882309F4ACCF00E003
:10075000B3CF0E940103BE01685F7F4FCE010196B7
:100760000E948701892BA1F00E94A7004EE651E06C
:1007700060E080E00E94DB004CE751E060E081E057
:100780000E94DB0080ED97E00E94F90D04E094CF19
:100790000E94A7004BE851E060E080E00E94DB008F
:1007A0004BE951E060E081E00E94DB0080ED97E0E2
:1007B0000E94F90D00E080CF0E9401030E94A70073
:1007C0004BEA51E060E080E00E94DB0043EB51E047
:1007D00060E081E00E94DB00E12CF12C0E94130B11
:1007E00081116ACF0E94550D182F8823B9F30E94FA
:1007F000F3028CE291E00E94F90D1234C1F582E01F
:10080000E816F1045CF767019FEFC91AD90A0E9444
:10081000A700F601EE0FFF1F81E090E08C0F9D1FF7
:10082000E80FF91F4685578560E080E00E94DB00F5
:1008300092E0E90EF11C84E0E816F10484F4EE0C79
:10084000FF1CE1E0F0E0EC0FFD1FEE0DFF1D468503
:10085000578560E081E00E94DB007601BFCF4FEB5F
:1008600051E060E081E00E94DB007601B7CF1134F7
:1008700049F51E141F040CF0B1CF670191E0C91AAD
:10088000D1080E94A700F601EE0FFF1F81E090E063
:100890008C0F9D1FE80FF91F4685578560E080E0AB
:1008A0000E94DB00EE0CFF1CE1E0F0E0EC0FFD1F0E
:1008B000EE0DFF1D4685578560E081E00E94DB005C
:1008C00076018CCF1A3271F40E94A70041EC51E0FE
:1008D00060E080E00E94DB0088EE93E00E94F90D6A
:1008E00000E0EACE123351F020F4113309F4DDCEEA
:1008F000E3CE133329F0143329F0DECE06E0DCCE4C
:1009000007E0DACE0E94B10A00E0D6CE0E940103D1
:100910000E940A060E94130B882309F4C8CE00E047
:10092000CBCE0E9401030E9402090E94130B882370
:1009300009F4BFCE00E0C0CE0E9401030E94390737
:100940000E94130B882309F4B6CE00E0B5CECF92F7
:10095000DF92EF92FF921F93CF93DF93CDB7DEB775
:1009600027970FB6F894DEBF0FBECDBF6C01FE0116
:10097000319687E0DF011D928A95E9F70E94A70072
:100980004CED51E060E080E00E94DB004DE251E080
:1009900060E081E00E94DB00E12CF12C0E94130B4F
:1009A000182F8823A1F00E94A7004EEE51E060E0CE
:1009B00080E00E94DB004BEF51E060E081E00E94AC
:1009C000DB0080ED97E00E94F90D10E071C00E94FD
:1009D000550D90ED980F9A30C8F4B6E0EB16F1047F
:1009E000ACF4E1E0F0E0EC0FFD1FEE0DFF1D8083A5
:1009F00049E052E06E2D81E00E94DB008FEFE81AA3
:100A0000F80A88EC90E00E94F90DC8CF8332C9F54E
:100A1000E1E0F0E0EC0FFD1FEE0DFF1D1082B601CE
:100A2000CE0101960E948D0E892B09F440C00E94D0
:100A3000A7004BE052E060E080E00E94DB004CE168
:100A400052E060E081E00E94DB0080ED97E00E94D0
:100A5000F90D0E94A7004CED51E060E080E00E949B
:100A6000DB004DE251E060E081E00E94DB00FE012E
:100A7000319687E0DF011D928A95E9F7E12CF12C90
:100A80008DCF8A3209F08ACF0E94A7004CE252E053
:100A900060E080E00E94DB0045E352E060E081E03E
:100AA0000E94DB0080ED97E00E94F90D01C011E08B
:100AB000812F27960FB6F894DEBF0FBECDBFDF9112
:100AC000CF911F91FF90EF90DF90CF9008950E94FB
:100AD000A7004FE352E060E080E00E94DB0043E5C6
:100AE00052E060E081E00E94DB000E94130B88234B
:100AF00099F00E94A7004EEE51E060E080E00E9475
:100B0000DB004BEF51E060E081E00E94DB0080ED14
:100B100097E00E94F90D08950E94550D813399F4D4
:100B20000E94A7004FE552E060E080E00E94DB00F9
:100B30004EE652E060E081E00E94DB0080ED97E04D
:100B40000E94F90D0895823381F60895CF92DF92C5
:100B5000EF92FF920F931F93CF93DF93CDB7DEB742
:100B6000BC01EDB6FEB6FC0101900020E9F731971B
:100B7000AF01481B590B6A0183E0C80ED11CEDB7C9
:100B8000FEB7EC19FD090FB6F894FEBF0FBEEDBF1E
:100B90000DB71EB70F5F1F4F83E4818383E5F80114
:100BA000818342838DB79EB704960E94790EB80167
:100BB000C6010E94280B0FB6F894FEBE0FBEEDBE14
:100BC000DF91CF911F910F91FF90EF90DF90CF9029
:100BD0000895CF93DF9300D000D01F92CDB7DEB73A
:100BE000BE016F5F7F4F83E090E00E94C60C898159
:100BF000833529F48A81833521F48B8103C085E410
:100C000001C085E40F900F900F900F900F90DF912F
:100C1000CF9108950F931F93CF93DF93CDB7DEB796
:100C200029970FB6F894DEBF0FBECDBFFE013196F7
:100C300087E0DF011D928A95E9F70E94A7004EE741
:100C400052E060E080E00E94DB004EE852E060E0AD
:100C500081E00E94DB0000E010E00E94130B88237B
:100C600099F00E94A7004EEE51E060E080E00E9403
:100C7000DB004BEF51E060E081E00E94DB0080EDA3
:100C800097E00E94F90DEAC00E94550D90ED980F73
:100C90009A30D8F406301105C4F4E1E0F0E0EC0F2E
:100CA000FD1FE00FF11F80838887198662E0600FC7
:100CB000AE01485F5F4F81E00E94DB000F5F1F4F76
:100CC00088EC90E00E94F90DC8CF833209F0B1C0E2
:100CD000101611060CF0ADC0E1E0F0E0EC0FFD1FC6
:100CE000E00FF11F10820E94130B882399F00E94DD
:100CF000A7004EEE51E060E080E00E94DB004BEF89
:100D000051E060E081E00E94DB0080ED97E00E940E
:100D1000F90DA4C0CE0101960E94520E613C744DA3
:100D20008140910554F10E94A70041E952E060E042
:100D300080E00E94DB004FE952E060E081E00E9429
:100D4000DB0080ED97E00E94F90D0E94A7004EE7BE
:100D500052E060E080E00E94DB004EE852E060E09C
:100D600081E00E94DB00FE01319687E0DF011D92E9
:100D70008A95E9F700E010E070CF0E941F020E9400
:100D8000A704882309F46AC0CE0101960E94A60533
:100D90000E94130B882399F00E94A7004EEE51E0A9
:100DA00060E080E00E94DB004BEF51E060E081E01A
:100DB0000E94DB0080ED97E00E94F90D4FC00E9479
:100DC000E905182F0E94A7001F3499F44DEA51E05D
:100DD00060E080E00E94DB004AEA52E060E081E0EF
:100DE0000E94DB0080ED97E00E94F90D0E946705EC
:100DF0001BC0193469F44FEC51E060E080E00E94C0
:100E0000DB0045EB52E060E081E00E94DB000CC0BB
:100E100042EC52E060E080E00E94DB004AEC52E0ED
:100E200060E081E00E94DB0088EB9BE00E94F90D0E
:100E300015C08A3209F011CF0E94A7004CE252E09F
:100E400060E080E00E94DB0045E352E060E081E08A
:100E50000E94DB0080ED97E00E94F90D29960FB605
:100E6000F894DEBF0FBECDBFDF91CF911F910F91E0
:100E70000895EF92FF920F931F93CF93DF93CDB717
:100E8000DEB7A9970FB6F894DEBF0FBECDBF0E94A4
:100E90001F020E94A704811113C00E94A7004CE208
:100EA00052E060E080E00E94DB0045E352E060E059
:100EB00081E00E94DB0080ED97E00E94F90DEEC01A
:100EC00083E4898386E58A830E94130B882399F043
:100ED0000E94A7004EEE51E060E080E00E94DB003F
:100EE0004BEF51E060E081E00E94DB0080ED97E095
:100EF0000E94F90DD3C0BE016F5F7F4F82E090E08A
:100F00000E94280B0E94130B882399F00E94A700CF
:100F10004EEE51E060E080E00E94DB004BEF51E0DC
:100F200060E081E00E94DB0080ED97E00E94F90D17
:100F3000B5C0BE016D5F7F4F83E090E00E94C60C9C
:100F40001E828B81833509F097C08C81863509F02C
:100F500093C00D81FE017A9680E1DF011D928A9592
:100F6000E9F7003108F00FE00E94130B882399F095
:100F70000E94A7004EEE51E060E080E00E94DB009E
:100F80004BEF51E060E081E00E94DB0080ED97E0F4
:100F90000E94F90D83C010E07E01BAE1EB0EF11C56
:100FA000B701C8010E94C60CF701E00FF11F1082C3
:100FB000F70101900020E9F73197EE19FF09E230BF
:100FC000F10544F17E0186E0E80EF11C82E594E231
:100FD0009F838E83D70112961C928F0102501109B4
:100FE000A801BE01665E7F4FC7010E94960EF70101
:100FF00001900020E9F731978EE290E091838083A1
:101000006AE170E06C0F7D1F600F711FC7010E94C5
:10101000820E1CC0319789F486E0E3EDF2E0DE0138
:10102000169601900D928A95E1F7BE01665E7F4F9C
:10103000CE0106960E94820E09C087E0E9EDF2E03B
:10104000DE01169601900D928A95E1F70E94A700A5
:1010500040EE52E060E080E00E94DB00AE014A5FBB
:101060005F4F60E081E00E94DB0088EB9BE00E9424
:10107000F90D0E94670512C00E94A7004DEE52E0D4
:1010800060E080E00E94DB004BEF52E060E081E036
:101090000E94DB0088EB9BE00E94F90DA9960FB639
:1010A000F894DEBF0FBECDBFDF91CF911F910F919E
:1010B000FF90EF9008952F923F924F925F926F9220
:1010C0007F928F929F92AF92BF92CF92DF92EF92D8
:1010D000FF920F931F93CF93DF93CDB7DEB7FC0141
:1010E0004B013A012DB63EB6DC010D900020E9F728
:1010F00011978D01081B190BDB010D900020E9F7FA
:1011000011977D01E61AF70ADA010D900020E9F740
:1011100011976D01C41AD50A98012E0D3F1D2C0D93
:101120003D1D290183E0480E511CADB7BEB7A4197F
:10113000B5090FB6F894BEBF0FBEADBF8DB79EB751
:1011400001965C0183E411968C9380E5D50111969C
:101150008C93119712962C938DB79EB70496A80185
:10116000BF010E94790E0D5F1F4FA701B401C50199
:10117000800F911F0E94790EC701800F911FA60159
:10118000B3018A0D9B1D0E94790EB501C2010E9418
:10119000280B0FB6F8943EBE0FBE2DBEDF91CF9147
:1011A0001F910F91FF90EF90DF90CF90BF90AF9085
:1011B0009F908F907F906F905F904F903F902F9077
:1011C0000895CF93DF9300D000D01F92CDB7DEB744
:1011D000BE016F5F7F4F83E090E00E94C60C898163
:1011E000833529F48A81803521F48B8103C085E41D
:1011F00001C085E40F900F900F900F900F90DF913A
:10120000CF9108950F931F93CF93DF93CDB7DEB7A0
:1012100062970FB6F894DEBF0FBECDBF19821A8257
:101220001B821C82FE01359685E0DF011D928A95A6
:10123000E9F7359687E0DF011D928A95E9F70E946C
:10124000A70042E053E060E080E00E94DB0040E362
:1012500051E060E081E00E94DB0000E010E049C066
:101260000E94130B882399F00E94A7004EEE51E0D4
:1012700060E080E00E94DB004BEF51E060E081E045
:101280000E94DB0080ED97E00E94F90D5FC10E9493
:10129000550D90ED980F9A30B8F4E1E0F0E0EC0FC6
:1012A000FD1FE00FF11F8083898B1A8AAE014F5E0C
:1012B0005F4F602F81E00E94DB000F5F1F4F88ECC3
:1012C00090E00E94F90D15C08A3299F40E94A7009F
:1012D0004CE252E060E080E00E94DB0045E352E037
:1012E00060E081E00E94DB0080ED97E00E94F90D54
:1012F0002DC1033011050CF4B3CF1C820E94A7004E
:1013000042E153E060E080E00E94DB004FE251E008
:1013100060E081E00E94DB0000E010E049C00E9434
:10132000130B882399F00E94A7004EEE51E060E075
:1013300080E00E94DB004BEF51E060E081E00E9422
:10134000DB0080ED97E00E94F90D00C10E94550D71
:1013500090ED980F9A30B8F4E5E0F0E0EC0FFD1F47
:10136000E00FF11F8083898B1A8AAE014F5E5F4FB9
:10137000602F81E00E94DB000F5F1F4F88EC90E040
:101380000E94F90D15C08A3299F40E94A7004CE220
:1013900052E060E080E00E94DB0045E352E060E064
:1013A00081E00E94DB0080ED97E00E94F90DCEC045
:1013B000043011050CF4B3CF19860E94A70045E252
:1013C00053E060E080E00E94DB004EE852E060E025
:1013D00081E00E94DB0000E010E00E94130B8823F4
:1013E00099F00E94A7004EEE51E060E080E00E947C
:1013F000DB004BEF51E060E081E00E94DB0080ED1C
:1014000097E00E94F90DA2C00E94550D90ED980F33
:101410009A30D8F406301105C4F4EAE0F0E0EC0F9D
:10142000FD1FE00FF11F8083898B1A8A62E0600F35
:10143000AE014F5E5F4F81E00E94DB000F5F1F4FE8
:1014400088EC90E00E94F90DC8CF833209F069C0A2
:10145000EAE0F0E0EC0FFD1FE00FF11F10820E94A8
:101460001F020E94A704882309F470C0AE01465FE2
:101470005F4FBE016B5F7F4FCE0101960E945B08FC
:101480000E94130B882399F00E94A7004EEE51E0B2
:1014900060E080E00E94DB004BEF51E060E081E023
:1014A0000E94DB0080ED97E00E94F90D4FC00E9482
:1014B000E108182F0E94A7001F3499F445EB51E072
:1014C00060E080E00E94DB004AEA52E060E081E0F8
:1014D0000E94DB0080ED97E00E94F90D0E946705F5
:1014E0001BC0193469F44FEC51E060E080E00E94C9
:1014F000DB0045EB52E060E081E00E94DB000CC0C5
:1015000042EC52E060E080E00E94DB004AEC52E0F6
:1015100060E081E00E94DB0088EB9BE00E94F90D17
:1015200015C08A3209F059CF0E94A7004CE252E060
:1015300060E080E00E94DB0045E352E060E081E093
:101540000E94DB0080ED97E00E94F90D62960FB6D5
:10155000F894DEBF0FBECDBFDF91CF911F910F91E9
:101560000895CF93DF9300D000D01F92CDB7DEB7A0
:1015700083E4898386E48A830E94130B882399F08D
:101580000E94A70044E353E060E080E00E94DB009B
:101590004FE353E060E081E00E94DB0080ED97E0E4
:1015A0000E94F90D38C0BE016F5F7F4F82E090E06E
:1015B0000E94280B0E94130B882399F00E94A70019
:1015C00044E353E060E080E00E94DB004FE353E03F
:1015D00060E081E00E94DB0080ED97E00E94F90D61
:1015E0001AC0BE016D5F7F4F82E090E00E94C60C82
:1015F0001D820E94A7004BE453E060E080E00E945F
:10160000DB0042E553E060E081E00E94DB0080ED1A
:1016100097E00E94F90D0F900F900F900F900F9090
:10162000DF91CF910895809175030895809375039C
:1016300008951092C50083E38093C4001092C00007
:1016400088E98093C10086E08093C2007894089571
:10165000EF92FF920F931F93CF93DF938C017B0147
:10166000C0E0D0E00FC08091C00085FFFCCFF70143
:10167000EC0FFD1F80818093C60084E190E00E9402
:10168000F90D2196C017D10774F38091C00086FF31
:10169000FCCFE0ECF0E0808180648083DF91CF912B
:1016A0001F910F91FF90EF9008951F920F920FB628
:1016B0000F9211242F933F934F935F936F937F93D8
:1016C0008F939F93AF93BF93EF93FF938091C60047
:1016D000E0916E039FEF9E0F953008F591E09E0F0D
:1016E00090936E03F0E0E159FC4F8083963009F04F
:1016F00005C190917303985081E09C3008F480E01C
:101700000E94160BEAE7F3E083E4808388E4818398
:10171000128281E080936B0310926E03EFC0909170
:101720006C03992309F4C0C090916D03933509F0BF
:1017300072C0843571F481E00E94160BEAE7F3E091
:1017400083E4808384E58183128281E080936B034C
:10175000A6C08C3471F480E00E94160BEAE7F3E037
:1017600083E480838CE48183128281E080936B0325
:1017700096C0883451F4EFE6F3E083E5808388E493
:10178000818382E080936E038AC020917803309138
:1017900079032F5F3F4F2F773078332334F4215074
:1017A000310920683F6F2F5F3F4F40917603509182
:1017B00077032417350759F0E0917803F091790306
:1017C000E358FC4F90833093790320937803209162
:1017D0007803309179032F5F3F4F2F773078332391
:1017E00034F42150310920683F6F2F5F3F4F409103
:1017F0007603509177032417350709F450C0E09120
:101800007803F0917903E358FC4F80833093790398
:101810002093780344C020917803309179032F5F9F
:101820003F4F2F773078332334F42150310920682B
:101830003F6F2F5F3F4F40917603509177032417FE
:10184000350759F0E0917803F0917903E358FC4FA4
:10185000908330937903209378032091780330911B
:1018600079032F5F3F4F2F773078332334F42150A3
:10187000310920683F6F2F5F3F4F409176035091B1
:1018800077032417350759F0E0917803F091790335
:10189000E358FC4F808330937903209378031092B0
:1018A0006C0310926D032AC0833531F480936D036D
:1018B00081E080936C0322C02091780330917903FA
:1018C0002F5F3F4F2F773078332334F42150310985
:1018D00020683F6F2F5F3F4F409176035091770311
:1018E0002417350759F0E0917803F0917903E35814
:1018F000FC4F80833093790320937803FF91EF911D
:10190000BF91AF919F918F917F916F915F914F9117
:101910003F912F910F900FBE0F901F9018954091FF
:10192000780350917903209176033091770381E019
:101930004217530709F080E090E00895CF93DF93BA
:10194000EC010E948F0C892BE1F4E0917603F09179
:101950007703E358FC4F80818883809176039091D0
:10196000770301968F779078992324F40197806804
:101970009F6F0196909377038093760381E090E0C8
:1019800002C080E090E0DF91CF910895AF92BF92C6
:10199000CF92DF92EF92FF920F931F93CF93DF933B
:1019A0001F92CDB7DEB76C015B01E12CF12C00E09A
:1019B00010E020C080916B03882329F08AE090E03A
:1019C0000E94F90D17C0CE0101960E949E0C892B32
:1019D00051F0F501E00FF11F898180830F5F1F4FE8
:1019E000E12CF12C07C08AE090E00E94F90D8FEF06
:1019F000E81AF80A0C151D0524F484E6E816F1042B
:101A0000CCF2F501E00FF11F10820F90DF91CF9122
:101A10001F910F91FF90EF90DF90CF90BF90AF900C
:101A2000089584B1836084B98AB1806C8AB98AB11F
:101A3000837C8AB98BB18C638BB90895CF93DF9384
:101A400000D0CDB7DEB71A82198205C089819A818C
:101A500001969A83898389819A81883E9340B0F365
:101A60000F900F90DF91CF9108951F93CF93DF9345
:101A7000182FC0E0D0E012C00E941E0D29B181E0F5
:101A800090E0012E02C0880F991F0A94E2F782238A
:101A9000D81302C0CF5F01C0C0E0D82FC73061F7B4
:101AA0008D2FDF91CF911F910895CF9385B18360E2
:101AB00085B98BB1806C8BB985B18D7F85B985E097
:101AC0000E94350D811104C00E94F302C1E301C0E0
:101AD000C0E084E00E94350D811103C00E94F30232
:101AE000C2E383E00E94350D811103C00E94F3021E
:101AF000C3E382E00E94350D811103C00E94F3020E
:101B0000C1E485B1826085B985B18E7F85B985E0F4
:101B10000E94350D811103C00E94F302C4E384E0EA
:101B20000E94350D811103C00E94F302C5E383E0DA
:101B30000E94350D811103C00E94F302C6E382E0CA
:101B40000E94350D811103C00E94F302C2E485B1E9
:101B5000816085B98BB18F778BB985E00E94350D97
:101B6000811103C00E94F302C7E384E00E94350D97
:101B7000811103C00E94F302C8E383E00E94350D87
:101B8000811103C00E94F302C9E382E00E94350D77
:101B9000811103C00E94F302C3E48BB180688BB94A
:101BA0008BB18F7B8BB985E00E94350D811103C00D
:101BB0000E94F302CAE284E00E94350D811103C045
:101BC0000E94F302C0E383E00E94350D811103C03F
:101BD0000E94F302C3E282E00E94350D811103C02E
:101BE0000E94F302C4E48BB180648BB98C2FCF9137
:101BF0000895AC0114BC85E085BD10926E0081EFA4
:101C000086BD20E030E008C0A99BFECF91EF96BDD5
:101C100092E095BB2F5F3F4F24173507ACF315BCFF
:101C20000895AC0114BC81E085BD10926E0085EF73
:101C300086BD20E030E009C0A99BFECF95EF96BDA0
:101C400095B3926095BB2F5F3F4F24173507A4F3E0
:101C500015BC0895A1E21A2EAA1BBB1BFD010DC0E5
:101C6000AA1FBB1FEE1FFF1FA217B307E407F5074C
:101C700020F0A21BB30BE40BF50B661F771F881F28
:101C8000991F1A9469F760957095809590959B01BE
:101C9000AC01BD01CF010895EE0FFF1F0590F49137
:101CA000E02D09941F93FC0199278827BC01E89433
:101CB00011911032E9F3193010F01E30C8F31B32C5
:101CC00051F01D3249F4689406C00E94CF0E610F96
:101CD000711D811D911D119110531A30B0F33EF406
:101CE00090958095709561957F4F8F4F9F4F1F9175
:101CF0000895FB01DC0102C001900D92415050405B
:101D0000D8F70895FB01DC010D900020E9F7119749
:101D100001900D920020E1F70895FB01DC018D9107
:101D2000019080190110D9F3990B0895FB01DC0192
:101D30000D900020E9F711974150504028F0019094
:101D400000200D92C9F708951C920895FB01DC0153
:101D50004150504048F001900D920020C9F701C059
:101D60001D9241505040E0F70895FB0151915523D9
:101D7000A9F0BF01DC014D9145174111E1F759F47C
:101D8000CD010190002049F04D9140154111C9F35A
:101D9000FB014111EFCF81E090E001970895592FA9
:101DA000482F372F262F660F771F881F991F660F22
:101DB000771F881F991F620F731F841F951F660F5F
:0C1DC000771F881F991F0895F894FFCF2B
:101DCC00AB01B301CD01D5014449474954452051DC
:101DDC0055414C51554552005445434C41004469C2
:101DEC006769746520636F6469676F3A005F5F5F52
:101DFC005F5F5F004469676974652073656E686135
:101E0C003A00416775617264652E2E2E004E616F2B
:101E1C00206175746F72697A61646F00464F52412C
:101E2C0020204445004F5045524143414F0042450C
:101E3C004D2056494E444F284129210050524F43C2
:101E4C00455353414E444F2E2E2E00434F4E54417A
:101E5C0020494E56414C494441210054454E54456D
:101E6C00204E4F56414D454E544500312D53617116
:101E7C00756500322D506167616D656E746F002061
:101E8C0000564F4C54414E444F2E2E2E00332D53A2
:101E9C00616C646F00342D5361697200436F6E6620
:101EAC0069726D6520612073656E68613A004F50F0
:101EBC002043414E43454C41444100534953544502
:101ECC004D4120424C4F512E002A0053656E6861E3
:101EDC0020696E636F7272657461210054656E7453
:101EEC0065206E6F76616D656E7465004F706572FE
:101EFC006163616F0063616E63656C616461004472
:101F0C006573656A6120636F6D70726F76616E7454
:101F1C00653F00312D53696D20322D4E616F0043AA
:101F2C006F6D70726F76616E746520656D0064659F
:101F3C0073656E766F6C76696D656E746F00566145
:101F4C006C6F7220646F2073617175653A00522456
:101F5C00004C696D697465206DE178696D6F005294
:101F6C002420313230302C3030005265616C697A6B
:101F7C0061646F2100696E737566696369656E745F
:101F8C0065004572726F206E61006F7065726163DF
:101F9C00616F005224302E30005224302E3030002D
:101FAC0053616C646F20617475616C3A0045727298
:101FBC006F20616F206F627465720073616C646F67
:101FCC00210042616E636F202833206469672E29DB
:101FDC003A00436F6E76656E696F20283420646911
:101FEC00672E293A0056616C6F7220646F20706105
:101FFC00672E3A0053455353414F204E414F0046F4
:10200C00494E414C495A4144412100536573736117
:0E201C006F0046696E616C697A616461210033
:00000001FF
