:100000000C943D000C945A000C945A000C945A0025
:100010000C945A000C945A000C945A000C945A00F8
:100020000C945A000C945A000C945A000C945A00E8
:100030000C945A000C945A000C945A000C945A00D8
:100040000C945A000C945A000C9432060C945A00EA
:100050000C945A000C945A000C945A000C945A00B8
:100060000C945A000C945A00E402F602FF020803B2
:100070003903B703BB03BF03D30311241FBECFEF64
:10008000D8E0DEBFCDBF12E0A0E0B1E0E0E4F1E1F6
:1000900002C005900D92A23EB107D9F723E0A2EE6F
:1000A000B2E001C01D92A137B207E1F70E94AC0295
:1000B0000C949E080C94000020E04CE268E071E093
:1000C00080E00E94FA0046E151E060E081E00E9499
:1000D000DB000895CF93C82F88B1807F9C2F929525
:1000E0009F70892B88B988B18F7D88B988B180616C
:1000F00088B988B18F7E88B984E690E00E944F0865
:1001000088B1807FCF70C82BC8B988B1806188B9A9
:1001100088B18F7E88B982E090E00E943708CF9145
:1001200008958FEF87B98AE090E00E94370882E057
:100130000E946A0088E20E946A008CE00E946A00C5
:1001400086E00E946A0081E00E946A00089581E0D2
:100150000E946A0080E80E946A000895CF93DF93AE
:10016000EC0123C098B1907F82958F70892B88B95C
:1001700088B1806288B988B1806188B988B18F7E82
:1001800088B988EC90E00E944F0898B18991907FDF
:100190008F70892B88B988B1806188B988B18F7ECA
:1001A00088B982E090E00E94370888818111DACF17
:1001B000DF91CF910895CF93DF93EA01811108C0B9
:1001C000603130F4862F8F7080680E946A0009C009
:1001D000813039F4603128F4862F8F70806C0E9452
:1001E0006A00CE010E94AE0080E80E946A00DF91A2
:1001F000CF9108956F927F928F929F92AF92BF920C
:10020000CF92DF92EF92FF920F931F93CF93DF93E2
:10021000CDB7DEB761970FB6F894DEBF0FBECDBF86
:10022000782E4A01622ECDB6DEB6ADB6BEB6FB0163
:1002300001900020E9F73197E61BF70B0E2FE13113
:1002400028F4AB0160E00E94DB0042C0FF277196FA
:100250008DB79EB78E1B9F0B0FB6F8949EBF0FBE37
:100260008DBF01967C010E946E08D7010D90002081
:10027000E9F7119781E1E6E2F1E001900D928A95AC
:10028000E1F710E01BC040E150E0B701610F711DC4
:10029000CE0101960E947508198AAE014F5F5F4F2B
:1002A00060E0872D0E94DB00C4010E9437080E9495
:1002B000B307892B11F0662059F01F5F011718F75B
:1002C0006110DFCF0FB6F894BEBE0FBEADBE05C045
:1002D0000FB6F894BEBE0FBEADBE0FB6F894DEBE2C
:1002E0000FBECDBE61960FB6F894DEBF0FBECDBF78
:1002F000DF91CF911F910F91FF90EF90DF90CF9002
:10030000BF90AF909F908F907F906F900895EF92E5
:10031000FF920F931F93CF93DF9300D0CDB7DEB73B
:100320007C010E94A70047E351E060E080E00E946A
:10033000DB0046E451E060E081E00E94DB0000E089
:1003400010E01DC00E94E706892BF1F40E94B3075C
:1003500090ED980F9A3098F4F701E00FF11F808329
:1003600089831A82AE014F5F5F4F602F81E00E9448
:10037000DB000F5F1F4F88EC90E00E9437080630CB
:10038000110504F3F70116820F900F90DF91CF91C2
:100390001F910F91FF90EF900895EF92FF920F93AE
:1003A0001F93CF93DF9300D0CDB7DEB77C010E94BF
:1003B000A7004DE451E060E080E00E94DB0046E4ED
:1003C00051E060E081E00E94DB0000E010E01EC030
:1003D0000E94E706892BF9F40E94B30790ED980F6D
:1003E0009A30A0F4F701E00FF11F80838AE289833D
:1003F0001A82AE014F5F5F4F602F81E00E94DB00E9
:100400000F5F1F4F88EC90E00E94370806301105FF
:10041000FCF2F70116820F900F90DF91CF911F91A0
:100420000F91FF90EF900895CF93DF93CDB7DEB794
:10043000A1970FB6F894DEBF0FBECDBFDC010D90C3
:100440000020E9F71197A81BB90B169709F053C0C4
:10045000DB010D900020E9F71197A61BB70B16974B
:1004600009F04CC0FC0183E4898385E48A8386E03B
:10047000DE01139601900D928A95E1F786E0FB016B
:10048000DE01199601900D928A95E1F7BE016F5F2A
:100490007F4F8EE090E00E940806BE01615F7F4FB3
:1004A00082E190E00E942B0719A20E94A7004BE571
:1004B00051E060E080E00E94DB00AE01415F5F4FF1
:1004C00060E081E00E94DB0080ED97E00E94370849
:1004D0000E94A7008F858335A1F488898534A1F413
:1004E0006AE671E0CE010F960E948408892B79F0AC
:1004F00080E090E00EC080E090E00BC080E090E0F3
:1005000008C080E090E005C080E090E002C081E09B
:1005100090E0A1960FB6F894DEBF0FBECDBFDF917D
:10052000CF9108950E94A7004EE651E060E080E080
:100530000E94DB004BE751E060E081E00E94DB00BD
:1005400004C088EC90E00E9437080E94E706892BDF
:10055000C1F70E94A7000895CF93DF93CDB7DEB710
:1005600066970FB6F894DEBF0FBECDBF0E946F072F
:100570000E9491000E94F90588E0E0E0F1E0DE01D0
:100580001F9601900D928A95E1F700E0E12CF12C85
:1005900009C001E007C002E005C003E003C0760126
:1005A00001C005E00E94E706892B21F00E9492021B
:1005B00000E0F8CF802F90E08930910598F7FC019A
:1005C000EC5CFF4F0C9468080E94A7000E945C003E
:1005D00004C00E94E706892B21F40E94B3078823F8
:1005E000C1F30E94E706892BA1F2DCCFCE01019670
:1005F0000E9487010E94E706892B69F2D3CFCE01C2
:1006000008960E94CD010E94E706892B31F2CACFDD
:10061000BE01685F7F4FCE0101960E941402892BB4
:10062000A1F00E94A70048E851E060E080E00E944D
:10063000DB0047E951E060E081E00E94DB0080EDF3
:1006400097E00E94370804E0ADCF0E94A70046EA79
:1006500051E060E080E00E94DB0046EB51E060E0AA
:1006600081E00E94DB0080ED97E00E94370800E007
:1006700099CF0E94A700F701EE0FFF1F81E090E0E5
:100680008C0F9D1FE80FF91F4685578560E080E0BD
:100690000E94DB0067019FEFC91AD90A84E0C816DF
:1006A000D10484F4F601EE0FFF1F81E090E08C0F7F
:1006B0009D1FE80FF91F4685578560E081E00E9485
:1006C000DB000BC045E351E060E081E00E94DB000D
:1006D00004C00E94E706892B29F40E94B307182F53
:1006E0008823B9F38CE291E00E943708123429F490
:1006F00092E0E916F1040CF452CF113439F41E14CF
:100700001F0424F481E0E81AF1084CCF1A3271F486
:100710000E94A70046EC51E060E080E00E94DB0010
:1007200088EE93E00E94370800E03CCFF701EE0F1F
:10073000FF1F81E090E08C0F9D1FE80FF91F0684DA
:10074000F785E02D808118132DCF123351F020F45E
:10075000113309F426CF26CF133329F0143329F0AF
:1007600021CF06E01FCF07E01DCF08E01BCF0E947E
:10077000490404E017CF0E94250504E013CF0E942E
:10078000A7004AEF51E060E080E00E94DB0042ED0C
:1007900051E060E081E00E94DB0080ED97E00E9484
:1007A000370804E0FFCE0E94AC0504E0FBCECF92F8
:1007B000DF92EF92FF920F931F93CF93DF93CDB70A
:1007C000DEB7BC01EDB6FEB6FC0101900020E9F7F2
:1007D0003197AF01481B590B6A0183E0C80ED11C49
:1007E000EDB7FEB7EC19FD090FB6F894FEBF0FBECA
:1007F000EDBF0DB71EB70F5F1F4F83E4818383E505
:10080000F801818342838DB79EB704960E947508D4
:10081000B801C6010E9408060FB6F894FEBE0FBECE
:10082000EDBEDF91CF911F910F91FF90EF90DF9080
:10083000CF900895CF93DF9300D000D01F92CDB713
:10084000DEB7BE016F5F7F4F84E090E00E942B0710
:100850001D820E94A700AE014F5F5F4F60E080E005
:100860000E94DB0080ED97E00E9437088A81833583
:1008700029F48B81833521F48C8103C085E401C088
:1008800085E40F900F900F900F900F90DF91CF9114
:1008900008950F931F93CF93DF93CDB7DEB72B97B8
:1008A0000FB6F894DEBF0FBECDBFFE01319689E0D2
:1008B000DF011D928A95E9F70E94A7004CE052E003
:1008C00060E080E00E94DB004CE152E060E081E00B
:1008D0000E94DB0000E010E00E94B30790ED980F4B
:1008E0009A30D8F408301105C4F4E1E0F0E0EC0FE0
:1008F000FD1FE00FF11F80838A871B8662E0600F77
:10090000AE01465F5F4F81E00E94DB000F5F1F4F2B
:1009100088EC90E00E943708DFCF833299F51016FB
:10092000110684F5E1E0F0E0EC0FFD1FE00FF11F90
:100930001082CE0101960E94D7030E941A04182F3C
:100940000E94A7001F3469F44FE152E060E080E0AC
:100950000E94DB0040E352E060E081E00E94DB00A7
:100960000CC042E452E060E080E00E94DB0045E51C
:1009700052E060E081E00E94DB0088EB9BE00E9497
:10098000370815C08A3209F0A7CF0E94A70047E6B2
:1009900052E060E080E00E94DB004DEA52E060E05F
:1009A00081E00E94DB0080ED97E00E9437082B96E3
:1009B0000FB6F894DEBF0FBECDBFDF91CF911F9170
:1009C0000F910895CF92DF92EF92FF920F931F93B2
:1009D000CF93DF93CDB7DEB7BC01EDB6FEB6FC0119
:1009E00001900020E9F73197AF01481B590B6A01CC
:1009F00083E0C80ED11CEDB7FEB7EC19FD090FB6A8
:100A0000F894FEBF0FBEEDBF0DB71EB70F5F1F4FAF
:100A100083E4818384E4F801818342838DB79EB7A8
:100A200004960E947508B801C6010E9408060FB618
:100A3000F894FEBE0FBEEDBEDF91CF911F910F91D6
:100A4000FF90EF90DF90CF9008950F931F93CF9377
:100A5000DF93CDB7DEB72B970FB6F894DEBF0FBE8E
:100A6000CDBFFE01319689E0DF011D928A95E9F73D
:100A70000E94A70040E752E060E080E00E94DB00B7
:100A80004CE152E060E081E00E94DB0000E010E019
:100A90000E94B30790ED980F9A30D8F408301105F2
:100AA000C4F4E1E0F0E0EC0FFD1FE00FF11F8083E4
:100AB0008A871B8662E0600FAE01465F5F4F81E070
:100AC0000E94DB000F5F1F4F88EC90E00E94370808
:100AD000DFCF833239F51016110624F5E1E0F0E09E
:100AE000EC0FFD1FE00FF11F1082CE0101960E9456
:100AF000E2040E941A04182F0E94A7001F3439F440
:100B000043E852E060E080E00E94DB0006C043E979
:100B100052E060E080E00E94DB0088EB9BE00E94F6
:100B200037080FC08A3209F0B3CF0E94A70044EA09
:100B300052E060E080E00E94DB0080ED97E00E94E0
:100B400037082B960FB6F894DEBF0FBECDBFDF91EE
:100B5000CF911F910F910895CF93DF93CDB7DEB75B
:100B60002D970FB6F894DEBF0FBECDBF83E4898307
:100B70008CE48A831B82BE016F5F7F4F83E090E02D
:100B80000E940806BE016C5F7F4F89E090E00E94E2
:100B90002B071D860E94A7008C81833589F48D81E7
:100BA0008C3471F447EB52E060E080E00E94DB009F
:100BB000AE014A5F5F4F60E081E00E94DB000CC045
:100BC00044EC52E060E080E00E94DB0042ED52E045
:100BD00060E081E00E94DB0088EB9BE00E94370828
:100BE0002D960FB6F894DEBF0FBECDBFDF91CF912B
:100BF00008951092C50083E38093C4001092C00052
:100C000088E98093C10086E08093C20078940895BB
:100C1000AC0120E030E00CC09091C00095FFFCCF0B
:100C2000FB01E20FF31F90819093C6002F5F3F4FAF
:100C3000241735078CF38091C00086FFFCCFE0ECD1
:100C4000F0E08081806480830895FC0101900020A1
:100C5000E9F73197BC019F01281B390BC9010E949C
:100C6000080608951F920F920FB60F9211242F932A
:100C70003F934F935F936F937F938F939F93AF9324
:100C8000BF93EF93FF938091C600E091E8029FEF3E
:100C90009E0F9530D8F491E09E0F9093E802F0E01B
:100CA000EE51FD4F8083963009F080C08091E602BE
:100CB000885091E08C3008F490E09093EA0288ED3F
:100CC00092E00E9425061092E80270C0E091E902CD
:100CD00091E09E0F9093E902F0E0E159FC4F808390
:100CE0008091E902823009F061C080916F03833501
:100CF00061F480917003843541F481E08093EA02CD
:100D00008BED92E00E9425064FC080916F038335E2
:100D100059F4809170038C3439F41092EA028EED0C
:100D200092E00E94250640C080916F038335A1F5B3
:100D300080917003883499F5E2EEF2E083E58083D8
:100D400088E4818382E08093E8022EC08091ED02E6
:100D50009091EE0201968F779078992324F4019771
:100D600080689F6F01964091EB025091EC028417CE
:100D7000950779F0E091ED02F091EE02D901A159C9
:100D8000BC4F4C91E151FD4F40839093EE02809314
:100D9000ED022F5F3F4F05C020E030E002C020E0B1
:100DA00030E02230310594F21092E902FF91EF9188
:100DB000BF91AF919F918F917F916F915F914F9173
:100DC0003F912F910F900FBE0F901F90189580911B
:100DD000EA0290E008954091ED025091EE022091D8
:100DE000EB023091EC0281E04217530709F080E0FA
:100DF00090E00895CF93DF93EC010E94EB06892BDE
:100E0000E1F4E091EB02F091EC02E151FD4F8081C1
:100E100088838091EB029091EC0201968F77907815
:100E2000992324F4019780689F6F01969093EC02B8
:100E30008093EB0281E090E002C080E090E0DF91DF
:100E4000CF9108951092EE021092ED021092EC02F2
:100E50001092EB020895AF92BF92CF92DF92EF9281
:100E6000FF920F931F93CF93DF931F92CDB7DEB7FF
:100E70006C015B010E942207E12CF12C00E010E0E4
:100E800017C0CE0101960E94FA06892B51F0F50198
:100E9000E00FF11F898180830F5F1F4FE12CF12C40
:100EA00007C08AE090E00E9437088FEFE81AF80A3E
:100EB0000C151D0524F484E6E816F10414F3F5017D
:100EC000E00FF11F10820F90DF91CF911F910F91D2
:100ED000FF90EF90DF90CF90BF90AF90089584B1D6
:100EE000836084B98AB1806C8AB98AB1837C8AB9FB
:100EF0008BB18C638BB90895CF93DF9300D0CDB7BE
:100F0000DEB71A82198205C089819A8101969A8377
:100F1000898389819A81883E9340B0F30F900F9026
:100F2000DF91CF9108951F93CF93DF93182FC0E0E7
:100F3000D0E012C00E947C0729B181E090E0012E30
:100F400002C0880F991F0A94E2F78223D81302C0C7
:100F5000CF5F01C0C0E0D82FC73061F78D2FDF9180
:100F6000CF911F910895CF9385B1836085B98BB1DF
:100F7000806C8BB985B18D7F85B985E00E94930720
:100F8000882311F0C0E001C0C1E384E00E94930710
:100F9000811101C0C2E383E00E949307811101C067
:100FA000C3E382E00E949307811101C0C1E485B1CF
:100FB000826085B985B18E7F85B985E00E949307EF
:100FC000811101C0C4E384E00E949307811101C034
:100FD000C5E383E00E949307811101C0C6E382E06C
:100FE0000E949307811101C0C2E485B1816085B977
:100FF0008BB18F778BB985E00E949307811101C077
:10100000C7E384E00E949307811101C0C8E383E035
:101010000E949307811101C0C9E382E00E949307F7
:10102000811101C0C3E48BB180688BB98BB18F7B18
:101030008BB985E00E949307811101C0CAE284E068
:101040000E949307811101C0C0E383E00E949307CF
:10105000811101C0C3E282E00E949307811101C0A7
:10106000C4E48BB180648BB98C2FCF910895AC010F
:1010700014BC85E085BD10926E0081EF86BD20E036
:1010800030E008C0A99BFECF91EF96BD92E095BBE2
:101090002F5F3F4F24173507ACF315BC0895AC0103
:1010A00014BC81E085BD10926E0085EF86BD20E006
:1010B00030E009C0A99BFECF95EF96BD95B3926035
:1010C00095BB2F5F3F4F24173507A4F315BC089538
:1010D000EE0FFF1F0590F491E02D0994FB01DC0158
:1010E00001900D920020E1F70895FB01DC014150D1
:1010F000504048F001900D920020C9F701C01D92A8
:1011000041505040E0F70895FB0151915523A9F05B
:10111000BF01DC014D9145174111E1F759F4CD01B3
:101120000190002049F04D9140154111C9F3FB0198
:101130004111EFCF81E090E001970895F894FFCF3F
:10114000E501ED01F80104022042616E636F205554
:101150004652475320004469676974652063617291
:1011600074616F3A200020202020202020202020A1
:101170002020202020200044696769746520636F67
:101180006469676F3A005F5F5F5F5F5F0044696734
:101190006974652073656E68613A005265737020EA
:1011A0005365727669646F723A004E616F00202059
:1011B0002020464F52412020444500202020204F2F
:1011C0005045524143414F00436F6469676F207639
:1011D000616C69646F210050726F63657373616E37
:1011E000646F2E2E2E00436F6E746120696E7661DF
:1011F0006C696461210054656E7465206E6F766160
:101200006D656E746500566F6C74616E646F2E2E22
:101210002E00456D20646573656E766F6C76696D22
:10122000656E746F00312D536171756500322D4408
:1012300065706F7369746F00332D506167616D6500
:101240006E746F00342D53616C646F0056616C6F67
:101250007220646F2073617175653A0052240053E7
:1012600061717565207265616C697A61646F2100D6
:10127000526574697265206F2064696E6865697271
:101280006F0053616C646F20696E73756669636982
:10129000656E74650054656E7465206F7574726F49
:1012A0002076616C6F72004F7065726163616F00D0
:1012B00056616C6F7220646F206465706F7369741F
:1012C0006F3A004465706F7369746F206665697466
:1012D0006F21004572726F206E6F206465706F73AE
:1012E00069746F004F7065726163616F2063616E36
:1012F00063656C6164610053616C646F2061747537
:10130000616C3A004572726F20616F206F62746584
:10131000720073616C646F00434800435400434C97
:021320000000CB
:00000001FF
