:100000000C943C000C9459000C9459000C94590029
:100010000C9459000C9459000C9459000C945900FC
:100020000C9459000C9459000C9459000C945C02E7
:100030000C9459000C9459000C9459000C945900DC
:100040000C9459000C9459000C940C090C94590010
:100050000C9459000C9459000C9459000C945900BC
:100060000C9459000C94590079038D039A03A7034B
:10007000DA0384048F04A50411241FBECFEFD8E057
:10008000DEBFCDBF13E0A0E0B1E0E8E2F9E102C0DD
:1000900005900D92A833B107D9F723E0A8E3B3E0A8
:1000A00001C01D92A73DB207E1F70E9431030C94F5
:1000B000920C0C9400000E94A70048E051E061E01F
:1000C00080E00E94DB0048E151E065E081E00E94B1
:1000D000DB000895CF93C82F88B1807F9C2F929525
:1000E0009F70892B88B988B18F7D88B988B180616C
:1000F00088B988B18F7E88B984E690E00E94C80BE9
:1001000088B1807FCF70C82BC8B988B1806188B9A9
:1001100088B18F7E88B982E090E00E94B00BCF91C9
:1001200008958FEF87B98AE090E00E94B00B82E0DB
:100130000E946A0088E20E946A008CE00E946A00C5
:1001400086E00E946A0081E00E946A00089581E0D2
:100150000E946A0080E80E946A000895CF93DF93AE
:10016000EC0123C098B1907F82958F70892B88B95C
:1001700088B1806288B988B1806188B988B18F7E82
:1001800088B988EC90E00E94C80B98B18991907F63
:100190008F70892B88B988B1806188B988B18F7ECA
:1001A00088B982E090E00E94B00B88818111DACF9B
:1001B000DF91CF910895CF93DF93EA01811108C0B9
:1001C000603130F4862F8F7080680E946A0009C009
:1001D000813039F4603128F4862F8F70806C0E9452
:1001E0006A00CE010E94AE0080E80E946A00DF91A2
:1001F000CF910895EF92FF920F931F93CF93DF93C8
:1002000000D0CDB7DEB77C010E94A7004EE151E0DF
:1002100060E080E00E94DB004DE251E060E081E0C0
:100220000E94DB0000E010E01DC00E94CA0881119E
:100230001EC00E940C0B90ED980F9A3098F4F701B5
:10024000E00FF11F808389831A82AE014F5F5F4FF9
:10025000602F81E00E94DB000F5F1F4F88EC90E071
:100260000E94B00B0630110504F3F70116820F90BF
:100270000F90DF91CF911F910F91FF90EF90089514
:10028000EF92FF920F931F93CF93DF9300D0CDB7E0
:10029000DEB77C010E94A70044E351E060E080E00B
:1002A0000E94DB004DE251E060E081E00E94DB0053
:1002B00000E010E01EC00E94CA0881111FC00E9409
:1002C0000C0B90ED980F9A30A0F4F701E00FF11F9E
:1002D00080838AE289831A82AE014F5F5F4F602F6D
:1002E00081E00E94DB000F5F1F4F88EC90E00E94CE
:1002F000B00B06301105FCF2F70116820F900F903B
:10030000DF91CF911F910F91FF90EF900895EF92A1
:10031000FF920F931F93CF93DF93CDB7DEB7AE97C6
:100320000FB6F894DEBF0FBECDBFDC010D900020EC
:10033000E9F71197A81BB90B169709F06BC0DB0101
:100340000D900020E9F71197A61BB70B169709F03F
:1003500064C07B018C0146E050E088E393E00E949A
:10036000540C10923E0383E4898385E48A8386E0FB
:10037000F801DE01139601900D928A95E1F786E06F
:10038000F701DE01199601900D928A95E1F7BE0101
:100390006F5F7F4F8EE090E00E94DF08BE01615FDB
:1003A0007F4F80E2DB011D928A95E9F78FE190E0B3
:1003B0000E947D0A0E94A70042E451E063E080E0D1
:1003C0000E94DB0088EE93E00E94B00B0E94A70021
:1003D0008F858335A9F48889853491F46DE471E0C3
:1003E000CE010F960E94630C892BD1F087E0E8E3E1
:1003F000F3E0DF011D928A95E9F780E090E012C0FA
:1004000087E0E8E3F3E0DF011D928A95E9F780E0F9
:1004100090E008C080E090E005C080E090E002C07D
:1004200081E090E0AE960FB6F894DEBF0FBECDBF70
:10043000DF91CF911F910F91FF90EF90089588E386
:1004400093E0089584B1806184B985B18F7E85B9C8
:10045000109280008BE0809381008AEF90E090936F
:100460008900809388000895EFE6F0E080818D7F19
:10047000808385B18F7E85B910924003109241032D
:100480001092420310924303109244030895CF93B5
:10049000DF9300D0CDB7DEB783E489838FE48A830E
:1004A000BE016F5F7F4F82E090E00E94DF080F90F7
:1004B0000F90DF91CF9108951F920F920FB60F9278
:1004C00011242F933F934F935F936F937F938F9359
:1004D0009F93AF93BF93EF93FF93809141039091CC
:1004E0004203A0914303B09144030196A11DB11DA5
:1004F0008093410390934203A0934303B09344033A
:100500008091410390914203A0914303B091440331
:1005100080359644A105B105A0F1809141039091E9
:100520004203A0914303B091440380339547A10552
:10053000B10538F581E080934003609141037091EB
:10054000420380914303909144032AEF30E040E05E
:1005500050E00E94E10B672B682B692B91F490917E
:100560003F0381E0911180E080933F0380913F033E
:10057000882321F085B1806185B903C085B18F7E64
:1005800085B98091410390914203A0914303B091BA
:10059000440380339547A105B105A0F00E944702AE
:1005A0000E94550810924103109242031092430397
:1005B000109244031092400385B18F7E85B981E08B
:1005C0000E94CD08FF91EF91BF91AF919F918F91C4
:1005D0007F916F915F914F913F912F910F900FBE3F
:1005E0000F901F90189510924103109242031092A1
:1005F0004303109244031092400385B18F7E85B966
:100600000895EFE6F0E08081826080830E94F3022B
:1006100008950E94A7004CE551E064E080E00E944C
:10062000DB0045E651E064E081E00E94DB0012C09F
:1006300080914503882351F064E573E082E090E007
:100640000E94DF08109245030E94F30288EC90E0BC
:100650000E94B00B0E94CA088111EACF0E94A70035
:100660000895CF93DF93CDB7DEB766970FB6F894B2
:10067000DEBF0FBECDBF0E94C80A0E9491000E943B
:10068000D0080E942202789488E0E0E0F1E0DE01E8
:100690001F9601900D928A95E1F700E00BC001E0F2
:1006A00009C002E007C003E005C005E003C004E0A4
:1006B00001C004E080914503882351F064E573E0B4
:1006C00082E090E00E94DF08109245030E94F3024E
:1006D0000E94CA08882331F00E9434020E94090354
:1006E00000E0E8CF802F90E0FC01EC5CFF4F0C9421
:1006F000030C0E9434020E94A7000E945B0004C009
:100700000E94CA08811104C00E940C0B8823C1F307
:100710000E94CA08882319F2CDCF0E940103CE019E
:1007200001960E94FA000E94CA08882309F4B9CFF2
:1007300000E0C0CF0E940103CE0108960E94400154
:100740000E94CA08882309F4AECF00E0B3CF0E940C
:100750000103BE01685F7F4FCE0101960E948701B1
:10076000892BA1F00E94A7004EE651E060E080E0F6
:100770000E94DB004CE751E060E081E00E94DB007A
:1007800080ED97E00E94B00B04E094CF0E94A70098
:100790004BE851E060E080E00E94DB004BE951E073
:1007A00060E081E00E94DB0080ED97E00E94B00BEA
:1007B00000E080CF0E9401030E94A7004BEA51E0B5
:1007C00060E080E00E94DB0043EB51E060E081E00C
:1007D0000E94DB00E12CF12C0E94CA0881116ACF33
:1007E0000E940C0B182F8823B9F30E94F3028CE2AD
:1007F00091E00E94B00B1234C1F582E0E816F104DA
:100800005CF767019FEFC91AD90A0E94A700F60199
:10081000EE0FFF1F81E090E08C0F9D1FE80FF91F86
:100820004685578560E080E00E94DB0092E0E90E9B
:10083000F11C84E0E816F10484F4EE0CFF1CE1E006
:10084000F0E0EC0FFD1FEE0DFF1D4685578560E0C3
:1008500081E00E94DB007601BFCF4FEB51E060E00A
:1008600081E00E94DB007601B7CF113449F51E14F8
:100870001F040CF0B1CF670191E0C91AD1080E94A2
:10088000A700F601EE0FFF1F81E090E08C0F9D1F87
:10089000E80FF91F4685578560E080E00E94DB0085
:1008A000EE0CFF1CE1E0F0E0EC0FFD1FEE0DFF1D74
:1008B0004685578560E081E00E94DB0076018CCFA1
:1008C0001A3271F40E94A70041EC51E060E080E030
:1008D0000E94DB0088EE93E00E94B00B00E0EACEBD
:1008E000123351F020F4113309F4DFCEE3CE133389
:1008F00029F0143329F0DECE06E0DCCE07E0DACEB4
:100900000E94550800E0D6CE0E9401030E94130603
:100910000E94CA08882309F4CACE00E0CBCE0E9408
:1009200001030E94A70045EB51E060E080E00E94D7
:10093000DB004DEC51E060E081E00E94DB0080EDE7
:1009400097E00E94B00B04E0B5CE0E9401030E9424
:1009500033070E94CA08882309F4ABCE00E0AACE70
:10096000CF92DF92EF92FF921F93CF93DF93CDB799
:10097000DEB727970FB6F894DEBF0FBECDBF6C0170
:10098000FE01319687E0DF011D928A95E9F70E940A
:10099000A7004FEE51E060E080E00E94DB004DE2F6
:1009A00051E060E081E00E94DB00E12CF12C0E942C
:1009B000CA08182F8823A1F00E94A70041E052E046
:1009C00060E080E00E94DB004EE052E060E081E009
:1009D0000E94DB0080ED97E00E94B00B10E071C038
:1009E0000E940C0B90ED980F9A30C8F4B6E0EB160D
:1009F000F104ACF4E1E0F0E0EC0FFD1FEE0DFF1DA3
:100A000080834CE152E06E2D81E00E94DB008FEF8D
:100A1000E81AF80A88EC90E00E94B00BC8CF833245
:100A2000C9F5E1E0F0E0EC0FFD1FEE0DFF1D1082B7
:100A3000B601CE0101960E943B0C892B09F440C0FF
:100A40000E94A7004EE152E060E080E00E94DB00DF
:100A50004FE252E060E081E00E94DB0080ED97E031
:100A60000E94B00B0E94A7004FEE51E060E080E0D2
:100A70000E94DB004DE251E060E081E00E94DB007B
:100A8000FE01319687E0DF011D928A95E9F7E12C9E
:100A9000F12C8DCF8A3209F08ACF0E94A7004FE354
:100AA00052E060E080E00E94DB0048E452E060E059
:100AB00081E00E94DB0080ED97E00E94B00B01C056
:100AC00011E0812F27960FB6F894DEBF0FBECDBF81
:100AD000DF91CF911F91FF90EF90DF90CF9008951D
:100AE0000E94A70042E552E060E080E00E94DB0047
:100AF00046E652E060E081E00E94DB000E94CA0806
:100B0000882399F00E94A70041E052E060E080E075
:100B10000E94DB004EE052E060E081E00E94DB00DA
:100B200080ED97E00E94B00B08950E940C0B81337A
:100B300099F40E94A70042E752E060E080E00E9442
:100B4000DB0040ED51E060E081E00E94DB0080EDE1
:100B500097E00E94B00B0895823381F60895CF92FA
:100B6000DF92EF92FF920F931F93CF93DF93CDB756
:100B7000DEB7BC01EDB6FEB6FC0101900020E9F73E
:100B80003197AF01481B590B6A0183E0C80ED11C95
:100B9000EDB7FEB7EC19FD090FB6F894FEBF0FBE16
:100BA000EDBF0DB71EB70F5F1F4F83E4818383E551
:100BB000F801818342838DB79EB704960E94540C3E
:100BC000B801C6010E94DF080FB6F894FEBE0FBE42
:100BD000EDBEDF91CF911F910F91FF90EF90DF90CD
:100BE000CF900895CF93DF9300D000D01F92CDB760
:100BF000DEB7BE016F5F7F4F83E090E00E947D0A09
:100C00008981833529F48A81833521F48B8103C05E
:100C100085E401C085E40F900F900F900F900F9026
:100C2000DF91CF9108950F931F93CF93DF93CDB7AB
:100C3000DEB729970FB6F894DEBF0FBECDBFFE0119
:100C4000319687E0DF011D928A95E9F70E94A7009F
:100C500041E852E060E080E00E94DB0041E952E0C0
:100C600060E081E00E94DB0000E010E00E94CA0822
:100C7000882399F00E94A70041E052E060E080E004
:100C80000E94DB004EE052E060E081E00E94DB0069
:100C900080ED97E00E94B00BDBC00E940C0B90ED42
:100CA000980F9A30D8F406301105C4F4E1E0F0E072
:100CB000EC0FFD1FE00FF11F80838887198662E02B
:100CC000600FAE01485F5F4F81E00E94DB000F5F65
:100CD0001F4F88EC90E00E94B00BC8CF833209F020
:100CE000A2C0101611060CF09EC0E1E0F0E0EC0F7F
:100CF000FD1FE00FF11F10820E94CA08882399F09F
:100D00000E94A70041E052E060E080E00E94DB002A
:100D10004EE052E060E081E00E94DB0080ED97E071
:100D20000E94B00B95C0CE0101960E94090C613C57
:100D3000744D8140910554F10E94A70044E952E0AE
:100D400060E080E00E94DB0042EA52E060E081E087
:100D50000E94DB0080ED97E00E94B00B0E94A7008C
:100D600041E852E060E080E00E94DB0041E952E0AF
:100D700060E081E00E94DB00FE01319687E0DF0148
:100D80001D928A95E9F700E010E070CF0E941F02E3
:100D90000E94B004882309F45BC0CE0101960E9432
:100DA000AF050E94CA08882399F00E94A70041E07D
:100DB00052E060E080E00E94DB004EE052E060E044
:100DC00081E00E94DB0080ED97E00E94B00B40C004
:100DD0000E94F205182F0E94A7001F3499F44DEAD3
:100DE00051E060E080E00E94DB004DEA52E060E00C
:100DF00081E00E94DB0080ED97E00E94B00B0E9432
:100E000070050CC042EE51E060E080E00E94DB0023
:100E100048EB52E060E081E00E94DB0088EB9BE061
:100E20000E94B00B15C08A3209F020CF0E94A700A3
:100E30004FE352E060E080E00E94DB0048E452E0D3
:100E400060E081E00E94DB0080ED97E00E94B00B43
:100E500029960FB6F894DEBF0FBECDBFDF91CF91BC
:100E60001F910F910895EF92FF920F931F93CF93CD
:100E7000DF93CDB7DEB7A9970FB6F894DEBF0FBEEC
:100E8000CDBF0E941F020E94B004811113C00E94B6
:100E9000A7004FE352E060E080E00E94DB0048E4FE
:100EA00052E060E081E00E94DB0080ED97E00E946C
:100EB000B00BEEC083E4898386E58A830E94CA086A
:100EC000882399F00E94A70041E052E060E080E0B2
:100ED0000E94DB004EE052E060E081E00E94DB0017
:100EE00080ED97E00E94B00BD3C0BE016F5F7F4FD3
:100EF00082E090E00E94DF080E94CA08882399F0EF
:100F00000E94A70041E052E060E080E00E94DB0028
:100F10004EE052E060E081E00E94DB0080ED97E06F
:100F20000E94B00BB5C0BE016D5F7F4F83E090E0C3
:100F30000E947D0A1E828B81833509F097C08C81C7
:100F4000863509F093C00D81FE017A9680E1DF01BC
:100F50001D928A95E9F7003108F00FE00E94CA0857
:100F6000882399F00E94A70041E052E060E080E011
:100F70000E94DB004EE052E060E081E00E94DB0076
:100F800080ED97E00E94B00B83C010E07E01BAE1D3
:100F9000EB0EF11CB701C8010E947D0AF701E00FBA
:100FA000F11F1082F70101900020E9F73197EE1947
:100FB000FF09E230F10544F17E0186E0E80EF11C04
:100FC00082E594E29F838E83D70112961C928F0153
:100FD00002501109A801BE01665E7F4FC7010E9441
:100FE000440CF70101900020E9F731978EE290E080
:100FF000918380836AE170E06C0F7D1F600F711F29
:10100000C7010E94300C1CC0319789F486E0E5ECE2
:10101000F2E0DE01169601900D928A95E1F7BE018D
:10102000665E7F4FCE0106960E94300C09C087E0B5
:10103000EBECF2E0DE01169601900D928A95E1F755
:101040000E94A70042ED52E060E080E00E94DB00D9
:10105000AE014A5F5F4F60E081E00E94DB0088EBF9
:101060009BE00E94B00B0E94700512C00E94A70076
:101070004FED52E060E080E00E94DB004DEE52E078
:1010800060E081E00E94DB0088EB9BE00E94B00BF7
:10109000A9960FB6F894DEBF0FBECDBFDF91CF91FA
:1010A0001F910F91FF90EF900895CF93DF9300D0A1
:1010B00000D01F92CDB7DEB783E4898386E48A83AC
:1010C0000E94CA08882399F00E94A70044EF52E0CA
:1010D00060E080E00E94DB004FEF52E060E081E0E2
:1010E0000E94DB0080ED97E00E94B00B4BC0BE0178
:1010F0006F5F7F4F82E090E00E94DF080E94CA0885
:10110000882399F00E94A70044EF52E060E080E05D
:101110000E94DB004FEF52E060E081E00E94DB00C4
:1011200080ED97E00E94B00B2DC0BE016D5F7F4F38
:1011300082E090E00E947D0A1D820E94A7008B81C0
:10114000833581F48C81863469F44BE053E060E0B0
:1011500080E00E94DB0042E153E060E081E00E9419
:10116000DB000CC04EE153E060E080E00E94DB0059
:1011700040E353E060E081E00E94DB0080ED97E017
:101180000E94B00B0F900F900F900F900F90DF9177
:10119000CF91089580914F03089580934F03089550
:1011A0001092C50083E38093C4001092C00088E9C8
:1011B0008093C10086E08093C20078940895EF92F6
:1011C000FF920F931F93CF93DF938C017B01C0E0BD
:1011D000D0E00FC08091C00085FFFCCFF701EC0F7D
:1011E000FD1F80818093C60084E190E00E94B00BD7
:1011F0002196C017D10774F38091C00086FFFCCF01
:10120000E0ECF0E0808180648083DF91CF911F91DA
:101210000F91FF90EF9008951F920F920FB60F92CB
:1012200011242F933F934F935F936F937F938F93EB
:101230009F93AF93BF93EF93FF938091C600E0918C
:1012400048039FEF9E0F953008F591E09E0F909315
:101250004803F0E0E75BFC4F8083963009F005C15E
:1012600090914D03985081E09C3008F480E00E94FA
:10127000CD08E4E5F3E083E4808388E4818312828F
:1012800081E08093450310924803EFC0909146039C
:10129000992309F4C0C090914703933509F072C0B7
:1012A000843571F481E00E94CD08E4E5F3E083E445
:1012B000808384E58183128281E080934503A6C008
:1012C0008C3471F480E00E94CD08E4E5F3E083E41F
:1012D00080838CE48183128281E08093450396C0F1
:1012E000883451F4E9E4F3E083E5808388E4818382
:1012F00082E0809348038AC02091520330915303C7
:101300002F5F3F4F2F773078332334F4215031094A
:1013100020683F6F2F5F3F4F409150035091510322
:101320002417350759F0E0915203F0915303E95A1D
:10133000FC4F908330935303209352032091520328
:10134000309153032F5F3F4F2F773078332334F49E
:101350002150310920683F6F2F5F3F4F409150036C
:10136000509151032417350709F450C0E0915203FE
:10137000F0915303E95AFC4F808330935303209339
:10138000520344C020915203309153032F5F3F4FCB
:101390002F773078332334F42150310920683F6FA0
:1013A0002F5F3F4F40915003509151032417350751
:1013B00059F0E0915203F0915303E95AFC4F9083A6
:1013C00030935303209352032091520330915303DF
:1013D0002F5F3F4F2F773078332334F4215031097A
:1013E00020683F6F2F5F3F4F409150035091510352
:1013F0002417350759F0E0915203F0915303E95A4D
:10140000FC4F808330935303209352031092460382
:10141000109247032AC0833531F48093470381E05B
:101420008093460322C020915203309153032F5FD3
:101430003F4F2F773078332334F42150310920681F
:101440003F6F2F5F3F4F409150035091510324173E
:10145000350759F0E0915203F0915303E95AFC4FDC
:1014600080833093530320935203FF91EF91BF91F8
:10147000AF919F918F917F916F915F914F913F912C
:101480002F910F900FBE0F901F901895409152030F
:1014900050915303209150033091510381E0421742
:1014A000530709F080E090E00895CF93DF93EC01BB
:1014B0000E94460A892BE1F4E0915003F091510318
:1014C000E95AFC4F808188838091500390915103A9
:1014D00001968F779078992324F4019780689F6F05
:1014E0000196909351038093500381E090E002C0F5
:1014F00080E090E0DF91CF910895AF92BF92CF92BC
:10150000DF92EF92FF920F931F93CF93DF931F927F
:10151000CDB7DEB76C015B01E12CF12C00E010E0EF
:1015200020C080914503882329F08AE090E00E9442
:10153000B00B17C0CE0101960E94550A892B51F0BD
:10154000F501E00FF11F898180830F5F1F4FE12CB0
:10155000F12C07C08AE090E00E94B00B8FEFE81AF0
:10156000F80A0C151D0524F484E6E816F104CCF203
:10157000F501E00FF11F10820F90DF91CF911F91C5
:101580000F91FF90EF90DF90CF90BF90AF900895B4
:1015900084B1836084B98AB1806C8AB98AB1837C52
:1015A0008AB98BB18C638BB90895CF93DF9300D048
:1015B000CDB7DEB71A82198205C089819A8101965A
:1015C0009A83898389819A81883E9340B0F30F90F2
:1015D0000F90DF91CF9108951F93CF93DF93182F32
:1015E000C0E0D0E012C00E94D50A29B181E090E0AD
:1015F000012E02C0880F991F0A94E2F78223D813A4
:1016000002C0CF5F01C0C0E0D82FC73061F78D2F77
:10161000DF91CF911F910895CF9385B1836085B9F4
:101620008BB1806C8BB985B18D7F85B985E00E94C7
:10163000EC0A811104C00E94F302C1E301C0C0E0C2
:1016400084E00E94EC0A811103C00E94F302C2E30D
:1016500083E00E94EC0A811103C00E94F302C3E3FD
:1016600082E00E94EC0A811103C00E94F302C1E4EF
:1016700085B1826085B985B18E7F85B985E00E948C
:10168000EC0A811103C00E94F302C4E384E00E94CB
:10169000EC0A811103C00E94F302C5E383E00E94BB
:1016A000EC0A811103C00E94F302C6E382E00E94AB
:1016B000EC0A811103C00E94F302C2E485B181608B
:1016C00085B98BB18F778BB985E00E94EC0A8111C7
:1016D00003C00E94F302C7E384E00E94EC0A811178
:1016E00003C00E94F302C8E383E00E94EC0A811168
:1016F00003C00E94F302C9E382E00E94EC0A811158
:1017000003C00E94F302C3E48BB180688BB98BB134
:101710008F7B8BB985E00E94EC0A811103C00E9487
:10172000F302CAE284E00E94EC0A811103C00E9425
:10173000F302C0E383E00E94EC0A811103C00E941F
:10174000F302C3E282E00E94EC0A811103C00E940E
:10175000F302C4E48BB180648BB98C2FCF910895D0
:10176000AC0114BC85E085BD10926E0081EF86BD92
:1017700020E030E008C0A99BFECF91EF96BD92E03B
:1017800095BB2F5F3F4F24173507ACF315BC089569
:10179000AC0114BC81E085BD10926E0085EF86BD62
:1017A00020E030E009C0A99BFECF95EF96BD95B330
:1017B000926095BB2F5F3F4F24173507A4F315BCEC
:1017C0000895A1E21A2EAA1BBB1BFD010DC0AA1F82
:1017D000BB1FEE1FFF1FA217B307E407F50720F09A
:1017E000A21BB30BE40BF50B661F771F881F991F15
:1017F0001A9469F760957095809590959B01AC015E
:10180000BD01CF010895EE0FFF1F0590F491E02D6B
:1018100009941F93FC0199278827BC01E894119132
:101820001032E9F3193010F01E30C8F31B3251F0BA
:101830001D3249F4689406C00E947D0C610F711D31
:10184000811D911D119110531A30B0F33EF4909503
:101850008095709561957F4F8F4F9F4F1F91089591
:10186000FB01DC010D900020E9F7119701900D922A
:101870000020E1F70895FB01DC018D9101908019B2
:101880000110D9F3990B0895FB01DC010D900020A4
:10189000E9F711974150504028F0019000200D9237
:1018A000C9F708951C920895FB01DC014150504096
:1018B00048F001900D920020C9F701C01D924150DF
:1018C0005040E0F70895FB0151915523A9F0BF0165
:1018D000DC014D9145174111E1F759F4CD0101901B
:1018E000002049F04D9140154111C9F3FB01411110
:1018F000EFCF81E090E001970895592F482F372FBF
:10190000262F660F771F881F991F660F771F881F66
:10191000991F620F731F841F951F660F771F881F03
:08192000991F0895F894FFCF10
:10192800AB01B301E001E80144494749544520515E
:1019380055414C51554552005445434C410044696A
:101948006769746520636F6469676F3A005F5F5FFA
:101958005F5F5F004469676974652073656E6861DD
:101968003A00416775617264652E2E2E004E616FD4
:10197800206175746F72697A61646F00464F5241D5
:1019880020204445004F5045524143414F004245B5
:101998004D2056494E444F284129210050524F436B
:1019A800455353414E444F2E2E2E00434F4E544123
:1019B80020494E56414C494441210054454E544516
:1019C800204E4F56414D454E544500312D536171BF
:1019D800756500322D506167616D656E746F00200A
:1019E80000564F4C54414E444F2E2E2E00456D202C
:1019F800646573656E766F6C76696D656E746F007D
:101A0800332D53616C646F00342D53616972004348
:101A18006F6E6669726D6520612073656E68613AE4
:101A2800004F502043414E43454C414441005349E7
:101A38005354454D4120424C4F512E002A005365C6
:101A48006E686120696E636F7272657461210054FB
:101A5800656E7465206E6F76616D656E7465004F96
:101A68007065726163616F0063616E63656C616468
:101A78006100446573656A6120636F6D70726F768B
:101A8800616E74653F00312D53696D20322D4E61B2
:101A98006F00436F6D70726F76616E746520656D4F
:101AA8000056616C6F7220646F2073617175653ABE
:101AB800005224004C696D697465206DE178696D88
:101AC8006F00522420313230302C303000526561A2
:101AD8006C697A61646F2100696E73756669636900
:101AE800656E7465005224302E30005224302E303A
:101AF800300053616C646F20617475616C3A004505
:101B080072726F20616F206F627465720073616C0E
:101B1800646F210053455353414F204E414F0046B7
:101B2800494E414C495A4144412100536573736100
:101B38006F0046696E616C697A6164612100457263
:101B4800726F20616F2066696E616C697A617200DC
:081B580073657373616F2100D6
:00000001FF
